{
  "address": "0xd7e36BCd92295723895E8363A8B0F1350A2cc582",
  "abi": [
    {
      "inputs": [
        {
          "internalType": "address",
          "name": "underlying_",
          "type": "address"
        },
        {
          "internalType": "contract ComptrollerInterface",
          "name": "comptroller_",
          "type": "address"
        },
        {
          "internalType": "contract InterestRateModel",
          "name": "interestRateModel_",
          "type": "address"
        },
        {
          "internalType": "uint256",
          "name": "initialExchangeRateMantissa_",
          "type": "uint256"
        },
        {
          "internalType": "string",
          "name": "name_",
          "type": "string"
        },
        {
          "internalType": "string",
          "name": "symbol_",
          "type": "string"
        },
        {
          "internalType": "uint8",
          "name": "decimals_",
          "type": "uint8"
        },
        {
          "internalType": "address payable",
          "name": "admin_",
          "type": "address"
        },
        {
          "internalType": "address",
          "name": "implementation_",
          "type": "address"
        },
        {
          "internalType": "bytes",
          "name": "becomeImplementationData",
          "type": "bytes"
        }
      ],
      "stateMutability": "nonpayable",
      "type": "constructor"
    },
    {
      "anonymous": false,
      "inputs": [
        {
          "indexed": false,
          "internalType": "uint256",
          "name": "cashPrior",
          "type": "uint256"
        },
        {
          "indexed": false,
          "internalType": "uint256",
          "name": "interestAccumulated",
          "type": "uint256"
        },
        {
          "indexed": false,
          "internalType": "uint256",
          "name": "borrowIndex",
          "type": "uint256"
        },
        {
          "indexed": false,
          "internalType": "uint256",
          "name": "totalBorrows",
          "type": "uint256"
        }
      ],
      "name": "AccrueInterest",
      "type": "event"
    },
    {
      "anonymous": false,
      "inputs": [
        {
          "indexed": true,
          "internalType": "address",
          "name": "owner",
          "type": "address"
        },
        {
          "indexed": true,
          "internalType": "address",
          "name": "spender",
          "type": "address"
        },
        {
          "indexed": false,
          "internalType": "uint256",
          "name": "amount",
          "type": "uint256"
        }
      ],
      "name": "Approval",
      "type": "event"
    },
    {
      "anonymous": false,
      "inputs": [
        {
          "indexed": false,
          "internalType": "address",
          "name": "borrower",
          "type": "address"
        },
        {
          "indexed": false,
          "internalType": "uint256",
          "name": "borrowAmount",
          "type": "uint256"
        },
        {
          "indexed": false,
          "internalType": "uint256",
          "name": "accountBorrows",
          "type": "uint256"
        },
        {
          "indexed": false,
          "internalType": "uint256",
          "name": "totalBorrows",
          "type": "uint256"
        }
      ],
      "name": "Borrow",
      "type": "event"
    },
    {
      "anonymous": false,
      "inputs": [
        {
          "indexed": false,
          "internalType": "address",
          "name": "liquidator",
          "type": "address"
        },
        {
          "indexed": false,
          "internalType": "address",
          "name": "borrower",
          "type": "address"
        },
        {
          "indexed": false,
          "internalType": "uint256",
          "name": "repayAmount",
          "type": "uint256"
        },
        {
          "indexed": false,
          "internalType": "address",
          "name": "kTokenCollateral",
          "type": "address"
        },
        {
          "indexed": false,
          "internalType": "uint256",
          "name": "seizeTokens",
          "type": "uint256"
        }
      ],
      "name": "LiquidateBorrow",
      "type": "event"
    },
    {
      "anonymous": false,
      "inputs": [
        {
          "indexed": false,
          "internalType": "address",
          "name": "minter",
          "type": "address"
        },
        {
          "indexed": false,
          "internalType": "uint256",
          "name": "mintAmount",
          "type": "uint256"
        },
        {
          "indexed": false,
          "internalType": "uint256",
          "name": "mintTokens",
          "type": "uint256"
        }
      ],
      "name": "Mint",
      "type": "event"
    },
    {
      "anonymous": false,
      "inputs": [
        {
          "indexed": false,
          "internalType": "address",
          "name": "oldAdmin",
          "type": "address"
        },
        {
          "indexed": false,
          "internalType": "address",
          "name": "newAdmin",
          "type": "address"
        }
      ],
      "name": "NewAdmin",
      "type": "event"
    },
    {
      "anonymous": false,
      "inputs": [
        {
          "indexed": false,
          "internalType": "contract ComptrollerInterface",
          "name": "oldComptroller",
          "type": "address"
        },
        {
          "indexed": false,
          "internalType": "contract ComptrollerInterface",
          "name": "newComptroller",
          "type": "address"
        }
      ],
      "name": "NewComptroller",
      "type": "event"
    },
    {
      "anonymous": false,
      "inputs": [
        {
          "indexed": false,
          "internalType": "address",
          "name": "oldImplementation",
          "type": "address"
        },
        {
          "indexed": false,
          "internalType": "address",
          "name": "newImplementation",
          "type": "address"
        }
      ],
      "name": "NewImplementation",
      "type": "event"
    },
    {
      "anonymous": false,
      "inputs": [
        {
          "indexed": false,
          "internalType": "contract InterestRateModel",
          "name": "oldInterestRateModel",
          "type": "address"
        },
        {
          "indexed": false,
          "internalType": "contract InterestRateModel",
          "name": "newInterestRateModel",
          "type": "address"
        }
      ],
      "name": "NewMarketInterestRateModel",
      "type": "event"
    },
    {
      "anonymous": false,
      "inputs": [
        {
          "indexed": false,
          "internalType": "address",
          "name": "oldPendingAdmin",
          "type": "address"
        },
        {
          "indexed": false,
          "internalType": "address",
          "name": "newPendingAdmin",
          "type": "address"
        }
      ],
      "name": "NewPendingAdmin",
      "type": "event"
    },
    {
      "anonymous": false,
      "inputs": [
        {
          "indexed": false,
          "internalType": "uint256",
          "name": "oldProtocolSeizeShareMantissa",
          "type": "uint256"
        },
        {
          "indexed": false,
          "internalType": "uint256",
          "name": "newProtocolSeizeShareMantissa",
          "type": "uint256"
        }
      ],
      "name": "NewProtocolSeizeShare",
      "type": "event"
    },
    {
      "anonymous": false,
      "inputs": [
        {
          "indexed": false,
          "internalType": "uint256",
          "name": "oldReserveFactorMantissa",
          "type": "uint256"
        },
        {
          "indexed": false,
          "internalType": "uint256",
          "name": "newReserveFactorMantissa",
          "type": "uint256"
        }
      ],
      "name": "NewReserveFactor",
      "type": "event"
    },
    {
      "anonymous": false,
      "inputs": [
        {
          "indexed": false,
          "internalType": "address",
          "name": "redeemer",
          "type": "address"
        },
        {
          "indexed": false,
          "internalType": "uint256",
          "name": "redeemAmount",
          "type": "uint256"
        },
        {
          "indexed": false,
          "internalType": "uint256",
          "name": "redeemTokens",
          "type": "uint256"
        }
      ],
      "name": "Redeem",
      "type": "event"
    },
    {
      "anonymous": false,
      "inputs": [
        {
          "indexed": false,
          "internalType": "address",
          "name": "payer",
          "type": "address"
        },
        {
          "indexed": false,
          "internalType": "address",
          "name": "borrower",
          "type": "address"
        },
        {
          "indexed": false,
          "internalType": "uint256",
          "name": "repayAmount",
          "type": "uint256"
        },
        {
          "indexed": false,
          "internalType": "uint256",
          "name": "accountBorrows",
          "type": "uint256"
        },
        {
          "indexed": false,
          "internalType": "uint256",
          "name": "totalBorrows",
          "type": "uint256"
        }
      ],
      "name": "RepayBorrow",
      "type": "event"
    },
    {
      "anonymous": false,
      "inputs": [
        {
          "indexed": false,
          "internalType": "address",
          "name": "benefactor",
          "type": "address"
        },
        {
          "indexed": false,
          "internalType": "uint256",
          "name": "addAmount",
          "type": "uint256"
        },
        {
          "indexed": false,
          "internalType": "uint256",
          "name": "newTotalReserves",
          "type": "uint256"
        }
      ],
      "name": "ReservesAdded",
      "type": "event"
    },
    {
      "anonymous": false,
      "inputs": [
        {
          "indexed": false,
          "internalType": "address",
          "name": "admin",
          "type": "address"
        },
        {
          "indexed": false,
          "internalType": "uint256",
          "name": "reduceAmount",
          "type": "uint256"
        },
        {
          "indexed": false,
          "internalType": "uint256",
          "name": "newTotalReserves",
          "type": "uint256"
        }
      ],
      "name": "ReservesReduced",
      "type": "event"
    },
    {
      "anonymous": false,
      "inputs": [
        {
          "indexed": true,
          "internalType": "address",
          "name": "from",
          "type": "address"
        },
        {
          "indexed": true,
          "internalType": "address",
          "name": "to",
          "type": "address"
        },
        {
          "indexed": false,
          "internalType": "uint256",
          "name": "amount",
          "type": "uint256"
        }
      ],
      "name": "Transfer",
      "type": "event"
    },
    {
      "stateMutability": "payable",
      "type": "fallback"
    },
    {
      "inputs": [],
      "name": "_acceptAdmin",
      "outputs": [
        {
          "internalType": "uint256",
          "name": "",
          "type": "uint256"
        }
      ],
      "stateMutability": "nonpayable",
      "type": "function"
    },
    {
      "inputs": [
        {
          "internalType": "uint256",
          "name": "addAmount",
          "type": "uint256"
        }
      ],
      "name": "_addReserves",
      "outputs": [
        {
          "internalType": "uint256",
          "name": "",
          "type": "uint256"
        }
      ],
      "stateMutability": "nonpayable",
      "type": "function"
    },
    {
      "inputs": [
        {
          "internalType": "uint256",
          "name": "reduceAmount",
          "type": "uint256"
        }
      ],
      "name": "_reduceReserves",
      "outputs": [
        {
          "internalType": "uint256",
          "name": "",
          "type": "uint256"
        }
      ],
      "stateMutability": "nonpayable",
      "type": "function"
    },
    {
      "inputs": [
        {
          "internalType": "contract ComptrollerInterface",
          "name": "newComptroller",
          "type": "address"
        }
      ],
      "name": "_setComptroller",
      "outputs": [
        {
          "internalType": "uint256",
          "name": "",
          "type": "uint256"
        }
      ],
      "stateMutability": "nonpayable",
      "type": "function"
    },
    {
      "inputs": [
        {
          "internalType": "address",
          "name": "implementation_",
          "type": "address"
        },
        {
          "internalType": "bool",
          "name": "allowResign",
          "type": "bool"
        },
        {
          "internalType": "bytes",
          "name": "becomeImplementationData",
          "type": "bytes"
        }
      ],
      "name": "_setImplementation",
      "outputs": [],
      "stateMutability": "nonpayable",
      "type": "function"
    },
    {
      "inputs": [
        {
          "internalType": "contract InterestRateModel",
          "name": "newInterestRateModel",
          "type": "address"
        }
      ],
      "name": "_setInterestRateModel",
      "outputs": [
        {
          "internalType": "uint256",
          "name": "",
          "type": "uint256"
        }
      ],
      "stateMutability": "nonpayable",
      "type": "function"
    },
    {
      "inputs": [
        {
          "internalType": "address payable",
          "name": "newPendingAdmin",
          "type": "address"
        }
      ],
      "name": "_setPendingAdmin",
      "outputs": [
        {
          "internalType": "uint256",
          "name": "",
          "type": "uint256"
        }
      ],
      "stateMutability": "nonpayable",
      "type": "function"
    },
    {
      "inputs": [
        {
          "internalType": "uint256",
          "name": "newProtocolSeizeShareMantissa",
          "type": "uint256"
        }
      ],
      "name": "_setProtocolSeizeShare",
      "outputs": [
        {
          "internalType": "uint256",
          "name": "",
          "type": "uint256"
        }
      ],
      "stateMutability": "nonpayable",
      "type": "function"
    },
    {
      "inputs": [
        {
          "internalType": "uint256",
          "name": "newReserveFactorMantissa",
          "type": "uint256"
        }
      ],
      "name": "_setReserveFactor",
      "outputs": [
        {
          "internalType": "uint256",
          "name": "",
          "type": "uint256"
        }
      ],
      "stateMutability": "nonpayable",
      "type": "function"
    },
    {
      "inputs": [],
      "name": "accrualBlockTimestamp",
      "outputs": [
        {
          "internalType": "uint256",
          "name": "",
          "type": "uint256"
        }
      ],
      "stateMutability": "view",
      "type": "function"
    },
    {
      "inputs": [],
      "name": "accrueInterest",
      "outputs": [
        {
          "internalType": "uint256",
          "name": "",
          "type": "uint256"
        }
      ],
      "stateMutability": "nonpayable",
      "type": "function"
    },
    {
      "inputs": [],
      "name": "admin",
      "outputs": [
        {
          "internalType": "address payable",
          "name": "",
          "type": "address"
        }
      ],
      "stateMutability": "view",
      "type": "function"
    },
    {
      "inputs": [
        {
          "internalType": "address",
          "name": "owner",
          "type": "address"
        },
        {
          "internalType": "address",
          "name": "spender",
          "type": "address"
        }
      ],
      "name": "allowance",
      "outputs": [
        {
          "internalType": "uint256",
          "name": "",
          "type": "uint256"
        }
      ],
      "stateMutability": "view",
      "type": "function"
    },
    {
      "inputs": [
        {
          "internalType": "address",
          "name": "spender",
          "type": "address"
        },
        {
          "internalType": "uint256",
          "name": "amount",
          "type": "uint256"
        }
      ],
      "name": "approve",
      "outputs": [
        {
          "internalType": "bool",
          "name": "",
          "type": "bool"
        }
      ],
      "stateMutability": "nonpayable",
      "type": "function"
    },
    {
      "inputs": [
        {
          "internalType": "address",
          "name": "owner",
          "type": "address"
        }
      ],
      "name": "balanceOf",
      "outputs": [
        {
          "internalType": "uint256",
          "name": "",
          "type": "uint256"
        }
      ],
      "stateMutability": "view",
      "type": "function"
    },
    {
      "inputs": [
        {
          "internalType": "address",
          "name": "owner",
          "type": "address"
        }
      ],
      "name": "balanceOfUnderlying",
      "outputs": [
        {
          "internalType": "uint256",
          "name": "",
          "type": "uint256"
        }
      ],
      "stateMutability": "nonpayable",
      "type": "function"
    },
    {
      "inputs": [
        {
          "internalType": "uint256",
          "name": "borrowAmount",
          "type": "uint256"
        }
      ],
      "name": "borrow",
      "outputs": [
        {
          "internalType": "uint256",
          "name": "",
          "type": "uint256"
        }
      ],
      "stateMutability": "nonpayable",
      "type": "function"
    },
    {
      "inputs": [
        {
          "internalType": "address",
          "name": "account",
          "type": "address"
        }
      ],
      "name": "borrowBalanceCurrent",
      "outputs": [
        {
          "internalType": "uint256",
          "name": "",
          "type": "uint256"
        }
      ],
      "stateMutability": "nonpayable",
      "type": "function"
    },
    {
      "inputs": [
        {
          "internalType": "address",
          "name": "account",
          "type": "address"
        }
      ],
      "name": "borrowBalanceStored",
      "outputs": [
        {
          "internalType": "uint256",
          "name": "",
          "type": "uint256"
        }
      ],
      "stateMutability": "view",
      "type": "function"
    },
    {
      "inputs": [],
      "name": "borrowIndex",
      "outputs": [
        {
          "internalType": "uint256",
          "name": "",
          "type": "uint256"
        }
      ],
      "stateMutability": "view",
      "type": "function"
    },
    {
      "inputs": [],
      "name": "borrowRatePerTimestamp",
      "outputs": [
        {
          "internalType": "uint256",
          "name": "",
          "type": "uint256"
        }
      ],
      "stateMutability": "view",
      "type": "function"
    },
    {
      "inputs": [],
      "name": "comptroller",
      "outputs": [
        {
          "internalType": "contract ComptrollerInterface",
          "name": "",
          "type": "address"
        }
      ],
      "stateMutability": "view",
      "type": "function"
    },
    {
      "inputs": [],
      "name": "decimals",
      "outputs": [
        {
          "internalType": "uint8",
          "name": "",
          "type": "uint8"
        }
      ],
      "stateMutability": "view",
      "type": "function"
    },
    {
      "inputs": [
        {
          "internalType": "bytes",
          "name": "data",
          "type": "bytes"
        }
      ],
      "name": "delegateToImplementation",
      "outputs": [
        {
          "internalType": "bytes",
          "name": "",
          "type": "bytes"
        }
      ],
      "stateMutability": "nonpayable",
      "type": "function"
    },
    {
      "inputs": [
        {
          "internalType": "bytes",
          "name": "data",
          "type": "bytes"
        }
      ],
      "name": "delegateToViewImplementation",
      "outputs": [
        {
          "internalType": "bytes",
          "name": "",
          "type": "bytes"
        }
      ],
      "stateMutability": "view",
      "type": "function"
    },
    {
      "inputs": [],
      "name": "exchangeRateCurrent",
      "outputs": [
        {
          "internalType": "uint256",
          "name": "",
          "type": "uint256"
        }
      ],
      "stateMutability": "nonpayable",
      "type": "function"
    },
    {
      "inputs": [],
      "name": "exchangeRateStored",
      "outputs": [
        {
          "internalType": "uint256",
          "name": "",
          "type": "uint256"
        }
      ],
      "stateMutability": "view",
      "type": "function"
    },
    {
      "inputs": [
        {
          "internalType": "address",
          "name": "account",
          "type": "address"
        }
      ],
      "name": "getAccountSnapshot",
      "outputs": [
        {
          "internalType": "uint256",
          "name": "",
          "type": "uint256"
        },
        {
          "internalType": "uint256",
          "name": "",
          "type": "uint256"
        },
        {
          "internalType": "uint256",
          "name": "",
          "type": "uint256"
        },
        {
          "internalType": "uint256",
          "name": "",
          "type": "uint256"
        }
      ],
      "stateMutability": "view",
      "type": "function"
    },
    {
      "inputs": [],
      "name": "getCash",
      "outputs": [
        {
          "internalType": "uint256",
          "name": "",
          "type": "uint256"
        }
      ],
      "stateMutability": "view",
      "type": "function"
    },
    {
      "inputs": [],
      "name": "implementation",
      "outputs": [
        {
          "internalType": "address",
          "name": "",
          "type": "address"
        }
      ],
      "stateMutability": "view",
      "type": "function"
    },
    {
      "inputs": [],
      "name": "interestRateModel",
      "outputs": [
        {
          "internalType": "contract InterestRateModel",
          "name": "",
          "type": "address"
        }
      ],
      "stateMutability": "view",
      "type": "function"
    },
    {
      "inputs": [],
      "name": "isKToken",
      "outputs": [
        {
          "internalType": "bool",
          "name": "",
          "type": "bool"
        }
      ],
      "stateMutability": "view",
      "type": "function"
    },
    {
      "inputs": [
        {
          "internalType": "address",
          "name": "borrower",
          "type": "address"
        },
        {
          "internalType": "uint256",
          "name": "repayAmount",
          "type": "uint256"
        },
        {
          "internalType": "contract KTokenInterface",
          "name": "kTokenCollateral",
          "type": "address"
        }
      ],
      "name": "liquidateBorrow",
      "outputs": [
        {
          "internalType": "uint256",
          "name": "",
          "type": "uint256"
        }
      ],
      "stateMutability": "nonpayable",
      "type": "function"
    },
    {
      "inputs": [],
      "name": "messageHub",
      "outputs": [
        {
          "internalType": "address",
          "name": "",
          "type": "address"
        }
      ],
      "stateMutability": "view",
      "type": "function"
    },
    {
      "inputs": [
        {
          "internalType": "uint256",
          "name": "mintAmount",
          "type": "uint256"
        }
      ],
      "name": "mint",
      "outputs": [
        {
          "internalType": "uint256",
          "name": "",
          "type": "uint256"
        }
      ],
      "stateMutability": "nonpayable",
      "type": "function"
    },
    {
      "inputs": [
        {
          "internalType": "uint256",
          "name": "mintAmount",
          "type": "uint256"
        },
        {
          "internalType": "uint256",
          "name": "deadline",
          "type": "uint256"
        },
        {
          "internalType": "uint8",
          "name": "v",
          "type": "uint8"
        },
        {
          "internalType": "bytes32",
          "name": "r",
          "type": "bytes32"
        },
        {
          "internalType": "bytes32",
          "name": "s",
          "type": "bytes32"
        }
      ],
      "name": "mintWithPermit",
      "outputs": [
        {
          "internalType": "uint256",
          "name": "",
          "type": "uint256"
        }
      ],
      "stateMutability": "nonpayable",
      "type": "function"
    },
    {
      "inputs": [],
      "name": "name",
      "outputs": [
        {
          "internalType": "string",
          "name": "",
          "type": "string"
        }
      ],
      "stateMutability": "view",
      "type": "function"
    },
    {
      "inputs": [],
      "name": "pendingAdmin",
      "outputs": [
        {
          "internalType": "address payable",
          "name": "",
          "type": "address"
        }
      ],
      "stateMutability": "view",
      "type": "function"
    },
    {
      "inputs": [],
      "name": "protocolSeizeShareMantissa",
      "outputs": [
        {
          "internalType": "uint256",
          "name": "",
          "type": "uint256"
        }
      ],
      "stateMutability": "view",
      "type": "function"
    },
    {
      "inputs": [
        {
          "internalType": "uint256",
          "name": "redeemTokens",
          "type": "uint256"
        }
      ],
      "name": "redeem",
      "outputs": [
        {
          "internalType": "uint256",
          "name": "",
          "type": "uint256"
        }
      ],
      "stateMutability": "nonpayable",
      "type": "function"
    },
    {
      "inputs": [
        {
          "internalType": "uint256",
          "name": "redeemAmount",
          "type": "uint256"
        }
      ],
      "name": "redeemUnderlying",
      "outputs": [
        {
          "internalType": "uint256",
          "name": "",
          "type": "uint256"
        }
      ],
      "stateMutability": "nonpayable",
      "type": "function"
    },
    {
      "inputs": [
        {
          "internalType": "uint256",
          "name": "repayAmount",
          "type": "uint256"
        }
      ],
      "name": "repayBorrow",
      "outputs": [
        {
          "internalType": "uint256",
          "name": "",
          "type": "uint256"
        }
      ],
      "stateMutability": "nonpayable",
      "type": "function"
    },
    {
      "inputs": [
        {
          "internalType": "address",
          "name": "borrower",
          "type": "address"
        },
        {
          "internalType": "uint256",
          "name": "repayAmount",
          "type": "uint256"
        }
      ],
      "name": "repayBorrowBehalf",
      "outputs": [
        {
          "internalType": "uint256",
          "name": "",
          "type": "uint256"
        }
      ],
      "stateMutability": "nonpayable",
      "type": "function"
    },
    {
      "inputs": [],
      "name": "reserveFactorMantissa",
      "outputs": [
        {
          "internalType": "uint256",
          "name": "",
          "type": "uint256"
        }
      ],
      "stateMutability": "view",
      "type": "function"
    },
    {
      "inputs": [
        {
          "internalType": "address",
          "name": "liquidator",
          "type": "address"
        },
        {
          "internalType": "address",
          "name": "borrower",
          "type": "address"
        },
        {
          "internalType": "uint256",
          "name": "seizeTokens",
          "type": "uint256"
        }
      ],
      "name": "seize",
      "outputs": [
        {
          "internalType": "uint256",
          "name": "",
          "type": "uint256"
        }
      ],
      "stateMutability": "nonpayable",
      "type": "function"
    },
    {
      "inputs": [],
      "name": "supplyRatePerTimestamp",
      "outputs": [
        {
          "internalType": "uint256",
          "name": "",
          "type": "uint256"
        }
      ],
      "stateMutability": "view",
      "type": "function"
    },
    {
      "inputs": [
        {
          "internalType": "contract EIP20NonStandardInterface",
          "name": "token",
          "type": "address"
        }
      ],
      "name": "sweepToken",
      "outputs": [],
      "stateMutability": "nonpayable",
      "type": "function"
    },
    {
      "inputs": [],
      "name": "symbol",
      "outputs": [
        {
          "internalType": "string",
          "name": "",
          "type": "string"
        }
      ],
      "stateMutability": "view",
      "type": "function"
    },
    {
      "inputs": [],
      "name": "totalBorrows",
      "outputs": [
        {
          "internalType": "uint256",
          "name": "",
          "type": "uint256"
        }
      ],
      "stateMutability": "view",
      "type": "function"
    },
    {
      "inputs": [],
      "name": "totalBorrowsCurrent",
      "outputs": [
        {
          "internalType": "uint256",
          "name": "",
          "type": "uint256"
        }
      ],
      "stateMutability": "nonpayable",
      "type": "function"
    },
    {
      "inputs": [],
      "name": "totalReserves",
      "outputs": [
        {
          "internalType": "uint256",
          "name": "",
          "type": "uint256"
        }
      ],
      "stateMutability": "view",
      "type": "function"
    },
    {
      "inputs": [],
      "name": "totalSupply",
      "outputs": [
        {
          "internalType": "uint256",
          "name": "",
          "type": "uint256"
        }
      ],
      "stateMutability": "view",
      "type": "function"
    },
    {
      "inputs": [
        {
          "internalType": "address",
          "name": "dst",
          "type": "address"
        },
        {
          "internalType": "uint256",
          "name": "amount",
          "type": "uint256"
        }
      ],
      "name": "transfer",
      "outputs": [
        {
          "internalType": "bool",
          "name": "",
          "type": "bool"
        }
      ],
      "stateMutability": "nonpayable",
      "type": "function"
    },
    {
      "inputs": [
        {
          "internalType": "address",
          "name": "src",
          "type": "address"
        },
        {
          "internalType": "address",
          "name": "dst",
          "type": "address"
        },
        {
          "internalType": "uint256",
          "name": "amount",
          "type": "uint256"
        }
      ],
      "name": "transferFrom",
      "outputs": [
        {
          "internalType": "bool",
          "name": "",
          "type": "bool"
        }
      ],
      "stateMutability": "nonpayable",
      "type": "function"
    },
    {
      "inputs": [],
      "name": "underlying",
      "outputs": [
        {
          "internalType": "address",
          "name": "",
          "type": "address"
        }
      ],
      "stateMutability": "view",
      "type": "function"
    }
  ],
  "transactionHash": "0x3d534fb7cd95568c460a5e1d7be2ee19c21d1d63d7ce965ecb1b9bfb25909879",
  "args": [
    "0x7b79995e5f793a07bc00c21412e50ecae098e7f9",
    "0x9627AC216A16bd1680A8b5EA3C3D226D1688672A",
    "0x72F6cCF7A463D732F1998ad1e82b419196b08aBB",
    "200000000000000000000000000",
    "Kawa ETH",
    "kETH",
    "8",
    "0x6027862A465EF7d842e32A8a16a39D4D83c25D3A",
    "0xe6566e69F7C307404e9eC1305e56c06C80Fa5366",
    "0x00"
  ],
  "numDeployments": 1,
  "solcInputHash": "dbba3bb1606cd0610b9b4eefb4c7fb1e",
  "bytecode": "0x60806040523480156200001157600080fd5b50604051620023ac380380620023ac83398101604081905262000034916200040a565b60038054610100600160a81b0319163361010002179055604051620000a590839062000071908d908d908d908d908d908d908d9060240162000546565b60408051601f198184030181529190526020810180516001600160e01b03908116631a31d46560e01b17909152620000ea16565b50620000b48260008362000166565b5050600380546001600160a01b0390921661010002610100600160a81b031990921691909117905550620005e995505050505050565b6060600080846001600160a01b031684604051620001099190620005af565b600060405180830381855af49150503d806000811462000146576040519150601f19603f3d011682016040523d82523d6000602084013e6200014b565b606091505b509092509050816200015e573d60208201fd5b949350505050565b60035461010090046001600160a01b03163314620001f05760405162461bcd60e51b815260206004820152603960248201527f4b457263323044656c656761746f723a3a5f736574496d706c656d656e74617460448201527f696f6e3a2043616c6c6572206d7573742062652061646d696e00000000000000606482015260840160405180910390fd5b811562000232576040805160048152602481019091526020810180516001600160e01b0390811663153ab50560e01b17909152620002309190620002ed16565b505b601480546001600160a01b038581166001600160a01b03198316179092556040519116906200029f906200026b908490602401620005cd565b60408051601f198184030181529190526020810180516001600160e01b03908116630adccee560e31b17909152620002ed16565b50601454604080516001600160a01b03808516825290921660208301527fd604de94d45953f9138079ec1b82d533cb2160c906d1076d1f7ed54befbca97a910160405180910390a150505050565b60145460609062000308906001600160a01b031683620000ea565b92915050565b80516001600160a01b03811681146200032657600080fd5b919050565b634e487b7160e01b600052604160045260246000fd5b60005b838110156200035e57818101518382015260200162000344565b50506000910152565b600082601f8301126200037957600080fd5b81516001600160401b03808211156200039657620003966200032b565b604051601f8301601f19908116603f01168101908282118183101715620003c157620003c16200032b565b81604052838152866020858801011115620003db57600080fd5b620003ee84602083016020890162000341565b9695505050505050565b805160ff811681146200032657600080fd5b6000806000806000806000806000806101408b8d0312156200042b57600080fd5b620004368b6200030e565b99506200044660208c016200030e565b98506200045660408c016200030e565b60608c015160808d015191995097506001600160401b03808211156200047b57600080fd5b620004898e838f0162000367565b975060a08d0151915080821115620004a057600080fd5b620004ae8e838f0162000367565b9650620004be60c08e01620003f8565b9550620004ce60e08e016200030e565b9450620004df6101008e016200030e565b93506101208d0151915080821115620004f757600080fd5b50620005068d828e0162000367565b9150509295989b9194979a5092959850565b600081518084526200053281602086016020860162000341565b601f01601f19169290920160200192915050565b6001600160a01b0388811682528781166020830152861660408201526060810185905260e060808201819052600090620005839083018662000518565b82810360a084015262000597818662000518565b91505060ff831660c083015298975050505050505050565b60008251620005c381846020870162000341565b9190910192915050565b602081526000620005e2602083018462000518565b9392505050565b611db380620005f96000396000f3fe6080604052600436106103505760003560e01c806370a08231116101c6578063c37f68e2116100f7578063dd62ed3e11610095578063f3fdb15a1161006f578063f3fdb15a14610a5f578063f5e3c46214610a7f578063f851a44014610a9f578063fca7820b14610ac457610350565b8063dd62ed3e14610a0a578063e9c714f214610a2a578063f2b3abbd14610a3f57610350565b8063cfa99201116100d1578063cfa992011461099f578063d0248fb4146109b5578063d3bd2c72146109d5578063db006a75146109ea57610350565b8063c37f68e21461092a578063c5ebeaec1461096a578063cd91801c1461098a57610350565b8063a0712d6811610164578063aa5af0fd1161013e578063aa5af0fd146108bf578063b2a02ff1146108d5578063b71d1a0c146108f5578063bd6d894d1461091557610350565b8063a0712d681461086a578063a6afed951461088a578063a9059cbb1461089f57610350565b8063852a12e3116101a0578063852a12e3146107ff5780638f840ddd1461081f57806395d89b411461083557806395dd91931461084a57610350565b806370a08231146107aa57806373acee98146107ca57806383030846146107df57610350565b8063313ce567116102a05780634847655d1161023e5780635fe3b567116102185780635fe3b56714610734578063601a0bf1146107545780636752e702146107745780636f307dc31461078a57610350565b80634847655d146106d4578063555bcc40146106f45780635c60da1b1461071457610350565b80633e9410101161027a5780633e9410101461065e5780634487152f1461067e5780634576b5db1461069e57806347bd3718146106be57610350565b8063313ce567146105fd5780633af9e669146106295780633b1d21a21461064957610350565b806318160ddd1161030d57806323b872dd116102e757806323b872dd146105705780632608f8181461059057806326782247146105b057806329d9109c146105e857610350565b806318160ddd14610525578063182df0f51461053b5780631be195601461055057610350565b806306fdde03146104465780630933c1ed14610471578063095ea7b3146104915780630e752702146104c1578063173b9904146104ef57806317bfdfbc14610505575b34156103c95760405162461bcd60e51b815260206004820152603760248201527f4b457263323044656c656761746f723a66616c6c6261636b3a2063616e6e6f7460448201527f2073656e642076616c756520746f2066616c6c6261636b00000000000000000060648201526084015b60405180910390fd5b6014546040516000916001600160a01b0316906103e990839036906118eb565b600060405180830381855af49150503d8060008114610424576040519150601f19603f3d011682016040523d82523d6000602084013e610429565b606091505b505090506040513d6000823e818015610440573d82f35b3d82fd5b005b34801561045257600080fd5b5061045b610ae4565b604051610468919061194b565b60405180910390f35b34801561047d57600080fd5b5061045b61048c366004611a23565b610b72565b34801561049d57600080fd5b506104b16104ac366004611a70565b610b91565b6040519015158152602001610468565b3480156104cd57600080fd5b506104e16104dc366004611a9c565b610c03565b604051908152602001610468565b3480156104fb57600080fd5b506104e160085481565b34801561051157600080fd5b506104e1610520366004611ab5565b610c68565b34801561053157600080fd5b506104e1600d5481565b34801561054757600080fd5b506104e1610cb5565b34801561055c57600080fd5b5061044461056b366004611ab5565b610d08565b34801561057c57600080fd5b506104b161058b366004611ad2565b610d53565b34801561059c57600080fd5b506104e16105ab366004611a70565b610dce565b3480156105bc57600080fd5b506004546105d0906001600160a01b031681565b6040516001600160a01b039091168152602001610468565b3480156105f457600080fd5b506104b1600181565b34801561060957600080fd5b506003546106179060ff1681565b60405160ff9091168152602001610468565b34801561063557600080fd5b506104e1610644366004611ab5565b610e38565b34801561065557600080fd5b506104e1610e85565b34801561066a57600080fd5b506104e1610679366004611a9c565b610ebc565b34801561068a57600080fd5b5061045b610699366004611a23565b610f04565b3480156106aa57600080fd5b506104e16106b9366004611ab5565b610fbf565b3480156106ca57600080fd5b506104e1600b5481565b3480156106e057600080fd5b506013546105d0906001600160a01b031681565b34801561070057600080fd5b5061044461070f366004611b21565b61100c565b34801561072057600080fd5b506014546105d0906001600160a01b031681565b34801561074057600080fd5b506005546105d0906001600160a01b031681565b34801561076057600080fd5b506104e161076f366004611a9c565b61117e565b34801561078057600080fd5b506104e160115481565b34801561079657600080fd5b506012546105d0906001600160a01b031681565b3480156107b657600080fd5b506104e16107c5366004611ab5565b6111c6565b3480156107d657600080fd5b506104e1611213565b3480156107eb57600080fd5b506104e16107fa366004611a9c565b61124a565b34801561080b57600080fd5b506104e161081a366004611a9c565b611292565b34801561082b57600080fd5b506104e1600c5481565b34801561084157600080fd5b5061045b6112da565b34801561085657600080fd5b506104e1610865366004611ab5565b6112e7565b34801561087657600080fd5b506104e1610885366004611a9c565b611334565b34801561089657600080fd5b506104e161137c565b3480156108ab57600080fd5b506104b16108ba366004611a70565b6113b3565b3480156108cb57600080fd5b506104e1600a5481565b3480156108e157600080fd5b506104e16108f0366004611ad2565b611407565b34801561090157600080fd5b506104e1610910366004611ab5565b611479565b34801561092157600080fd5b506104e16114c6565b34801561093657600080fd5b5061094a610945366004611ab5565b6114fd565b604080519485526020850193909352918301526060820152608001610468565b34801561097657600080fd5b506104e1610985366004611a9c565b61157d565b34801561099657600080fd5b506104e16115c5565b3480156109ab57600080fd5b506104e160095481565b3480156109c157600080fd5b506104e16109d0366004611b83565b6115fc565b3480156109e157600080fd5b506104e1611680565b3480156109f657600080fd5b506104e1610a05366004611a9c565b6116b7565b348015610a1657600080fd5b506104e1610a25366004611bd2565b6116ff565b348015610a3657600080fd5b506104e1611754565b348015610a4b57600080fd5b506104e1610a5a366004611ab5565b61178b565b348015610a6b57600080fd5b506006546105d0906001600160a01b031681565b348015610a8b57600080fd5b506104e1610a9a366004611c0b565b6117d8565b348015610aab57600080fd5b506003546105d09061010090046001600160a01b031681565b348015610ad057600080fd5b506104e1610adf366004611a9c565b611834565b60018054610af190611c4d565b80601f0160208091040260200160405190810160405280929190818152602001828054610b1d90611c4d565b8015610b6a5780601f10610b3f57610100808354040283529160200191610b6a565b820191906000526020600020905b815481529060010190602001808311610b4d57829003601f168201915b505050505081565b601454606090610b8b906001600160a01b03168361187c565b92915050565b6040516001600160a01b0383166024820152604481018290526000908190610be59060640160408051601f198184030181529190526020810180516001600160e01b031663095ea7b360e01b179052610b72565b905080806020019051810190610bfb9190611c87565b949350505050565b600080610c4b83604051602401610c1c91815260200190565b60408051601f198184030181529190526020810180516001600160e01b031663073a938160e11b179052610b72565b905080806020019051810190610c619190611ca4565b9392505050565b6040516001600160a01b03821660248201526000908190610c4b9060440160408051601f198184030181529190526020810180516001600160e01b03166305eff7ef60e21b179052610b72565b6040805160048152602481019091526020810180516001600160e01b031663182df0f560e01b1790526000908190610cec90610f04565b905080806020019051810190610d029190611ca4565b91505090565b6040516001600160a01b0382166024820152610d4f9060440160408051601f198184030181529190526020810180516001600160e01b031662df0cab60e51b179052610b72565b5050565b6040516001600160a01b03808516602483015283166044820152606481018290526000908190610daf9060840160408051601f198184030181529190526020810180516001600160e01b03166323b872dd60e01b179052610b72565b905080806020019051810190610dc59190611c87565b95945050505050565b6040516001600160a01b0383166024820152604481018290526000908190610e229060640160408051601f198184030181529190526020810180516001600160e01b03166304c11f0360e31b179052610b72565b905080806020019051810190610bfb9190611ca4565b6040516001600160a01b03821660248201526000908190610c4b9060440160408051601f198184030181529190526020810180516001600160e01b0316633af9e66960e01b179052610b72565b6040805160048152602481019091526020810180516001600160e01b0316631d8e90d160e11b1790526000908190610cec90610f04565b600080610c4b83604051602401610ed591815260200190565b60408051601f198184030181529190526020810180516001600160e01b03166303e9410160e41b179052610b72565b6060600080306001600160a01b031684604051602401610f24919061194b565b60408051601f198184030181529181526020820180516001600160e01b0316630933c1ed60e01b17905251610f599190611cbd565b600060405180830381855afa9150503d8060008114610f94576040519150601f19603f3d011682016040523d82523d6000602084013e610f99565b606091505b50909250905081610fab573d60208201fd5b80806020019051810190610bfb9190611cd9565b6040516001600160a01b03821660248201526000908190610c4b9060440160408051601f198184030181529190526020810180516001600160e01b0316634576b5db60e01b179052610b72565b60035461010090046001600160a01b031633146110915760405162461bcd60e51b815260206004820152603960248201527f4b457263323044656c656761746f723a3a5f736574496d706c656d656e74617460448201527f696f6e3a2043616c6c6572206d7573742062652061646d696e0000000000000060648201526084016103c0565b81156110cb576040805160048152602481019091526020810180516001600160e01b031663153ab50560e01b1790526110c990610b72565b505b601480546001600160a01b038581166001600160a01b03198316179092556040519116906111309061110190849060240161194b565b60408051601f198184030181529190526020810180516001600160e01b0316630adccee560e31b179052610b72565b50601454604080516001600160a01b03808516825290921660208301527fd604de94d45953f9138079ec1b82d533cb2160c906d1076d1f7ed54befbca97a910160405180910390a150505050565b600080610c4b8360405160240161119791815260200190565b60408051601f198184030181529190526020810180516001600160e01b031663601a0bf160e01b179052610b72565b6040516001600160a01b03821660248201526000908190610c4b9060440160408051601f198184030181529190526020810180516001600160e01b03166370a0823160e01b179052610f04565b6040805160048152602481019091526020810180516001600160e01b0316630e759dd360e31b1790526000908190610cec90610b72565b600080610c4b8360405160240161126391815260200190565b60408051601f198184030181529190526020810180516001600160e01b0316634181842360e11b179052610b72565b600080610c4b836040516024016112ab91815260200190565b60408051601f198184030181529190526020810180516001600160e01b031663852a12e360e01b179052610b72565b60028054610af190611c4d565b6040516001600160a01b03821660248201526000908190610c4b9060440160408051601f198184030181529190526020810180516001600160e01b03166395dd919360e01b179052610f04565b600080610c4b8360405160240161134d91815260200190565b60408051601f198184030181529190526020810180516001600160e01b031663140e25ad60e31b179052610b72565b6040805160048152602481019091526020810180516001600160e01b031663a6afed9560e01b1790526000908190610cec90610b72565b6040516001600160a01b0383166024820152604481018290526000908190610be59060640160408051601f198184030181529190526020810180516001600160e01b031663a9059cbb60e01b179052610b72565b6040516001600160a01b038085166024830152831660448201526064810182905260009081906114639060840160408051601f198184030181529190526020810180516001600160e01b031663b2a02ff160e01b179052610b72565b905080806020019051810190610dc59190611ca4565b6040516001600160a01b03821660248201526000908190610c4b9060440160408051601f198184030181529190526020810180516001600160e01b0316632dc7468360e21b179052610b72565b6040805160048152602481019091526020810180516001600160e01b031663bd6d894d60e01b1790526000908190610cec90610b72565b60008060008060006115578660405160240161152891906001600160a01b0391909116815260200190565b60408051601f198184030181529190526020810180516001600160e01b03166361bfb47160e11b179052610f04565b90508080602001905181019061156d9190611d47565b9450945094509450509193509193565b600080610c4b8360405160240161159691815260200190565b60408051601f198184030181529190526020810180516001600160e01b031663317afabb60e21b179052610b72565b6040805160048152602481019091526020810180516001600160e01b0316633364600760e21b1790526000908190610cec90610f04565b604051602481018690526044810185905260ff841660648201526084810183905260a48101829052600090819061165f9060c40160408051601f198184030181529190526020810180516001600160e01b031663340923ed60e21b179052610b72565b9050808060200190518101906116759190611ca4565b979650505050505050565b6040805160048152602481019091526020810180516001600160e01b03166369de963960e11b1790526000908190610cec90610f04565b600080610c4b836040516024016116d091815260200190565b60408051601f198184030181529190526020810180516001600160e01b031663db006a7560e01b179052610b72565b6040516001600160a01b038084166024830152821660448201526000908190610e229060640160408051601f198184030181529190526020810180516001600160e01b0316636eb1769f60e11b179052610f04565b6040805160048152602481019091526020810180516001600160e01b03166374e38a7960e11b1790526000908190610cec90610b72565b6040516001600160a01b03821660248201526000908190610c4b9060440160408051601f198184030181529190526020810180516001600160e01b031663f2b3abbd60e01b179052610b72565b6040516001600160a01b038085166024830152604482018490528216606482015260009081906114639060840160408051601f198184030181529190526020810180516001600160e01b0316637af1e23160e11b179052610b72565b600080610c4b8360405160240161184d91815260200190565b60408051601f198184030181529190526020810180516001600160e01b031663fca7820b60e01b179052610b72565b6060600080846001600160a01b0316846040516118999190611cbd565b600060405180830381855af49150503d80600081146118d4576040519150601f19603f3d011682016040523d82523d6000602084013e6118d9565b606091505b50909250905081610bfb573d60208201fd5b8183823760009101908152919050565b60005b838110156119165781810151838201526020016118fe565b50506000910152565b600081518084526119378160208601602086016118fb565b601f01601f19169290920160200192915050565b602081526000610c61602083018461191f565b634e487b7160e01b600052604160045260246000fd5b604051601f8201601f1916810167ffffffffffffffff8111828210171561199d5761199d61195e565b604052919050565b600067ffffffffffffffff8211156119bf576119bf61195e565b50601f01601f191660200190565b600082601f8301126119de57600080fd5b81356119f16119ec826119a5565b611974565b818152846020838601011115611a0657600080fd5b816020850160208301376000918101602001919091529392505050565b600060208284031215611a3557600080fd5b813567ffffffffffffffff811115611a4c57600080fd5b610bfb848285016119cd565b6001600160a01b0381168114611a6d57600080fd5b50565b60008060408385031215611a8357600080fd5b8235611a8e81611a58565b946020939093013593505050565b600060208284031215611aae57600080fd5b5035919050565b600060208284031215611ac757600080fd5b8135610c6181611a58565b600080600060608486031215611ae757600080fd5b8335611af281611a58565b92506020840135611b0281611a58565b929592945050506040919091013590565b8015158114611a6d57600080fd5b600080600060608486031215611b3657600080fd5b8335611b4181611a58565b92506020840135611b5181611b13565b9150604084013567ffffffffffffffff811115611b6d57600080fd5b611b79868287016119cd565b9150509250925092565b600080600080600060a08688031215611b9b57600080fd5b8535945060208601359350604086013560ff81168114611bba57600080fd5b94979396509394606081013594506080013592915050565b60008060408385031215611be557600080fd5b8235611bf081611a58565b91506020830135611c0081611a58565b809150509250929050565b600080600060608486031215611c2057600080fd5b8335611c2b81611a58565b9250602084013591506040840135611c4281611a58565b809150509250925092565b600181811c90821680611c6157607f821691505b602082108103611c8157634e487b7160e01b600052602260045260246000fd5b50919050565b600060208284031215611c9957600080fd5b8151610c6181611b13565b600060208284031215611cb657600080fd5b5051919050565b60008251611ccf8184602087016118fb565b9190910192915050565b600060208284031215611ceb57600080fd5b815167ffffffffffffffff811115611d0257600080fd5b8201601f81018413611d1357600080fd5b8051611d216119ec826119a5565b818152856020838501011115611d3657600080fd5b610dc58260208301602086016118fb565b60008060008060808587031215611d5d57600080fd5b50508251602084015160408501516060909501519196909550909250905056fea2646970667358221220c239cc23f2ff086e411cc2c5930ab03db1a6a38a2fee623cb0b54d96b0744f8864736f6c63430008140033",
  "devdoc": {
    "author": "Kawa",
    "kind": "dev",
    "methods": {
      "_acceptAdmin()": {
        "details": "Admin function for pending admin to accept role and update admin",
        "returns": {
          "_0": "uint 0=success, otherwise a failure (see ErrorReporter.sol for details)"
        }
      },
      "_addReserves(uint256)": {
        "params": {
          "addAmount": "Amount of reserves to add"
        },
        "returns": {
          "_0": "uint 0=success, otherwise a failure (see ErrorReporter.sol for details)"
        }
      },
      "_reduceReserves(uint256)": {
        "params": {
          "reduceAmount": "Amount of reduction to reserves"
        },
        "returns": {
          "_0": "uint 0=success, otherwise a failure (see ErrorReporter.sol for details)"
        }
      },
      "_setComptroller(address)": {
        "details": "Admin function to set a new comptroller",
        "returns": {
          "_0": "uint 0=success, otherwise a failure (see ErrorReporter.sol for details)"
        }
      },
      "_setImplementation(address,bool,bytes)": {
        "params": {
          "allowResign": "Flag to indicate whether to call _resignImplementation on the old implementation",
          "becomeImplementationData": "The encoded bytes data to be passed to _becomeImplementation",
          "implementation_": "The address of the new implementation for delegation"
        }
      },
      "_setInterestRateModel(address)": {
        "details": "Admin function to accrue interest and update the interest rate model",
        "params": {
          "newInterestRateModel": "the new interest rate model to use"
        },
        "returns": {
          "_0": "uint 0=success, otherwise a failure (see ErrorReporter.sol for details)"
        }
      },
      "_setPendingAdmin(address)": {
        "details": "Admin function to begin change of admin. The newPendingAdmin must call `_acceptAdmin` to finalize the transfer.",
        "params": {
          "newPendingAdmin": "New pending admin."
        },
        "returns": {
          "_0": "uint 0=success, otherwise a failure (see ErrorReporter.sol for details)"
        }
      },
      "_setProtocolSeizeShare(uint256)": {
        "details": "Admin function to accrue interest and set a new protocol seize share",
        "returns": {
          "_0": "uint 0=success, otherwise a failure (see ErrorReporter.sol for details)"
        }
      },
      "_setReserveFactor(uint256)": {
        "details": "Admin function to accrue interest and set a new reserve factor",
        "returns": {
          "_0": "uint 0=success, otherwise a failure (see ErrorReporter.sol for details)"
        }
      },
      "accrueInterest()": {
        "details": "This calculates interest accrued from the last checkpointed block      up to the current block and writes new checkpoint to storage."
      },
      "allowance(address,address)": {
        "params": {
          "owner": "The address of the account which owns the tokens to be spent",
          "spender": "The address of the account which may transfer tokens"
        },
        "returns": {
          "_0": "The number of tokens allowed to be spent (uint.max means infinite)"
        }
      },
      "approve(address,uint256)": {
        "details": "This will overwrite the approval amount for `spender`  and is subject to issues noted [here](https://eips.ethereum.org/EIPS/eip-20#approve)",
        "params": {
          "amount": "The number of tokens that are approved (uint.max means infinite)",
          "spender": "The address of the account which may transfer tokens"
        },
        "returns": {
          "_0": "Whether or not the approval succeeded"
        }
      },
      "balanceOf(address)": {
        "params": {
          "owner": "The address of the account to query"
        },
        "returns": {
          "_0": "The number of tokens owned by `owner`"
        }
      },
      "balanceOfUnderlying(address)": {
        "details": "This also accrues interest in a transaction",
        "params": {
          "owner": "The address of the account to query"
        },
        "returns": {
          "_0": "The amount of underlying owned by `owner`"
        }
      },
      "borrow(uint256)": {
        "params": {
          "borrowAmount": "The amount of the underlying asset to borrow"
        },
        "returns": {
          "_0": "uint 0=success, otherwise a failure (see ErrorReporter.sol for details)"
        }
      },
      "borrowBalanceCurrent(address)": {
        "params": {
          "account": "The address whose balance should be calculated after updating borrowIndex"
        },
        "returns": {
          "_0": "The calculated balance"
        }
      },
      "borrowBalanceStored(address)": {
        "params": {
          "account": "The address whose balance should be calculated"
        },
        "returns": {
          "_0": "The calculated balance"
        }
      },
      "borrowRatePerTimestamp()": {
        "returns": {
          "_0": "The borrow interest rate per timestamp, scaled by 1e18"
        }
      },
      "constructor": {
        "params": {
          "admin_": "Address of the administrator of this token",
          "becomeImplementationData": "The encoded args for becomeImplementation",
          "comptroller_": "The address of the Comptroller",
          "decimals_": "ERC-20 decimal precision of this token",
          "implementation_": "The address of the implementation the contract delegates to",
          "initialExchangeRateMantissa_": "The initial exchange rate, scaled by 1e18",
          "interestRateModel_": "The address of the interest rate model",
          "name_": "ERC-20 name of this token",
          "symbol_": "ERC-20 symbol of this token",
          "underlying_": "The address of the underlying asset"
        }
      },
      "delegateToImplementation(bytes)": {
        "details": "It returns to the external caller whatever the implementation returns or forwards reverts",
        "params": {
          "data": "The raw data to delegatecall"
        },
        "returns": {
          "_0": "The returned bytes from the delegatecall"
        }
      },
      "delegateToViewImplementation(bytes)": {
        "details": "It returns to the external caller whatever the implementation returns or forwards reverts  There are an additional 2 prefix uints from the wrapper returndata, which we ignore since we make an extra hop.",
        "params": {
          "data": "The raw data to delegatecall"
        },
        "returns": {
          "_0": "The returned bytes from the delegatecall"
        }
      },
      "exchangeRateCurrent()": {
        "returns": {
          "_0": "Calculated exchange rate scaled by 1e18"
        }
      },
      "exchangeRateStored()": {
        "details": "This function does not accrue interest before calculating the exchange rate",
        "returns": {
          "_0": "Calculated exchange rate scaled by 1e18"
        }
      },
      "getAccountSnapshot(address)": {
        "details": "This is used by comptroller to more efficiently perform liquidity checks.",
        "params": {
          "account": "Address of the account to snapshot"
        },
        "returns": {
          "_0": "(possible error, token balance, borrow balance, exchange rate mantissa)"
        }
      },
      "getCash()": {
        "returns": {
          "_0": "The quantity of underlying asset owned by this contract"
        }
      },
      "liquidateBorrow(address,uint256,address)": {
        "params": {
          "borrower": "The borrower of this kToken to be liquidated",
          "kTokenCollateral": "The market in which to seize collateral from the borrower",
          "repayAmount": "The amount of the underlying borrowed asset to repay"
        },
        "returns": {
          "_0": "uint 0=success, otherwise a failure (see ErrorReporter.sol for details)"
        }
      },
      "mint(uint256)": {
        "details": "Accrues interest whether or not the operation succeeds, unless reverted",
        "params": {
          "mintAmount": "The amount of the underlying asset to supply"
        },
        "returns": {
          "_0": "uint 0=success, otherwise a failure (see ErrorReporter.sol for details)"
        }
      },
      "mintWithPermit(uint256,uint256,uint8,bytes32,bytes32)": {
        "details": "Simply calls the underlying token's `permit()` function and then assumes things worked",
        "params": {
          "deadline": "The amount of the underlying asset to supply",
          "mintAmount": "The amount of the underlying asset to supply",
          "r": "ECDSA r parameter for the signature",
          "s": "ECDSA s parameter for the signature",
          "v": "ECDSA recovery id for the signature"
        },
        "returns": {
          "_0": "uint 0=success, otherwise a failure (see ErrorReporter.sol for details)"
        }
      },
      "redeem(uint256)": {
        "details": "Accrues interest whether or not the operation succeeds, unless reverted",
        "params": {
          "redeemTokens": "The number of kTokens to redeem into underlying"
        },
        "returns": {
          "_0": "uint 0=success, otherwise a failure (see ErrorReporter.sol for details)"
        }
      },
      "redeemUnderlying(uint256)": {
        "details": "Accrues interest whether or not the operation succeeds, unless reverted",
        "params": {
          "redeemAmount": "The amount of underlying to redeem"
        },
        "returns": {
          "_0": "uint 0=success, otherwise a failure (see ErrorReporter.sol for details)"
        }
      },
      "repayBorrow(uint256)": {
        "params": {
          "repayAmount": "The amount to repay, or uint.max for the full outstanding amount"
        },
        "returns": {
          "_0": "uint 0=success, otherwise a failure (see ErrorReporter.sol for details)"
        }
      },
      "repayBorrowBehalf(address,uint256)": {
        "params": {
          "borrower": "the account with the debt being payed off",
          "repayAmount": "The amount to repay, or uint.max for the full outstanding amount"
        },
        "returns": {
          "_0": "uint 0=success, otherwise a failure (see ErrorReporter.sol for details)"
        }
      },
      "seize(address,address,uint256)": {
        "details": "Will fail unless called by another kToken during the process of liquidation.  Its absolutely critical to use msg.sender as the borrowed kToken and not a parameter.",
        "params": {
          "borrower": "The account having collateral seized",
          "liquidator": "The account receiving seized collateral",
          "seizeTokens": "The number of kTokens to seize"
        },
        "returns": {
          "_0": "uint 0=success, otherwise a failure (see ErrorReporter.sol for details)"
        }
      },
      "supplyRatePerTimestamp()": {
        "returns": {
          "_0": "The supply interest rate per timestamp, scaled by 1e18"
        }
      },
      "sweepToken(address)": {
        "params": {
          "token": "The address of the ERC-20 token to sweep"
        }
      },
      "totalBorrowsCurrent()": {
        "returns": {
          "_0": "The total borrows with interest"
        }
      },
      "transfer(address,uint256)": {
        "params": {
          "amount": "The number of tokens to transfer",
          "dst": "The address of the destination account"
        },
        "returns": {
          "_0": "Whether or not the transfer succeeded"
        }
      },
      "transferFrom(address,address,uint256)": {
        "params": {
          "amount": "The number of tokens to transfer",
          "dst": "The address of the destination account",
          "src": "The address of the source account"
        },
        "returns": {
          "_0": "Whether or not the transfer succeeded"
        }
      }
    },
    "title": "Kawa's KErc20Delegator Contract",
    "version": 1
  },
  "userdoc": {
    "events": {
      "AccrueInterest(uint256,uint256,uint256,uint256)": {
        "notice": "Event emitted when interest is accrued"
      },
      "Approval(address,address,uint256)": {
        "notice": "EIP20 Approval event"
      },
      "Borrow(address,uint256,uint256,uint256)": {
        "notice": "Event emitted when underlying is borrowed"
      },
      "LiquidateBorrow(address,address,uint256,address,uint256)": {
        "notice": "Event emitted when a borrow is liquidated"
      },
      "Mint(address,uint256,uint256)": {
        "notice": "Event emitted when tokens are minted"
      },
      "NewAdmin(address,address)": {
        "notice": "Event emitted when pendingAdmin is accepted, which means admin is updated"
      },
      "NewComptroller(address,address)": {
        "notice": "Event emitted when comptroller is changed"
      },
      "NewImplementation(address,address)": {
        "notice": "Emitted when implementation is changed"
      },
      "NewMarketInterestRateModel(address,address)": {
        "notice": "Event emitted when interestRateModel is changed"
      },
      "NewPendingAdmin(address,address)": {
        "notice": "Event emitted when pendingAdmin is changed"
      },
      "NewProtocolSeizeShare(uint256,uint256)": {
        "notice": "Event emitted when the protocol seize share is changed"
      },
      "NewReserveFactor(uint256,uint256)": {
        "notice": "Event emitted when the reserve factor is changed"
      },
      "Redeem(address,uint256,uint256)": {
        "notice": "Event emitted when tokens are redeemed"
      },
      "RepayBorrow(address,address,uint256,uint256,uint256)": {
        "notice": "Event emitted when a borrow is repaid"
      },
      "ReservesAdded(address,uint256,uint256)": {
        "notice": "Event emitted when the reserves are added"
      },
      "ReservesReduced(address,uint256,uint256)": {
        "notice": "Event emitted when the reserves are reduced"
      },
      "Transfer(address,address,uint256)": {
        "notice": "EIP20 Transfer event"
      }
    },
    "kind": "user",
    "methods": {
      "_acceptAdmin()": {
        "notice": "Accepts transfer of admin rights. msg.sender must be pendingAdmin"
      },
      "_addReserves(uint256)": {
        "notice": "Accrues interest and adds reserves by transferring from admin"
      },
      "_reduceReserves(uint256)": {
        "notice": "Accrues interest and reduces reserves by transferring to admin"
      },
      "_setComptroller(address)": {
        "notice": "Sets a new comptroller for the market"
      },
      "_setImplementation(address,bool,bytes)": {
        "notice": "Called by the admin to update the implementation of the delegator"
      },
      "_setInterestRateModel(address)": {
        "notice": "Accrues interest and updates the interest rate model using _setInterestRateModelFresh"
      },
      "_setPendingAdmin(address)": {
        "notice": "Begins transfer of admin rights. The newPendingAdmin must call `_acceptAdmin` to finalize the transfer."
      },
      "_setProtocolSeizeShare(uint256)": {
        "notice": "accrues interest and sets a new protocol seize share for the protocol using _setProtocolSeizeShareFresh"
      },
      "_setReserveFactor(uint256)": {
        "notice": "accrues interest and sets a new reserve factor for the protocol using _setReserveFactorFresh"
      },
      "accrualBlockTimestamp()": {
        "notice": "Block number that interest was last accrued at"
      },
      "accrueInterest()": {
        "notice": "Applies accrued interest to total borrows and reserves."
      },
      "admin()": {
        "notice": "Administrator for this contract"
      },
      "allowance(address,address)": {
        "notice": "Get the current allowance from `owner` for `spender`"
      },
      "approve(address,uint256)": {
        "notice": "Approve `spender` to transfer up to `amount` from `src`"
      },
      "balanceOf(address)": {
        "notice": "Get the token balance of the `owner`"
      },
      "balanceOfUnderlying(address)": {
        "notice": "Get the underlying balance of the `owner`"
      },
      "borrow(uint256)": {
        "notice": "Sender borrows assets from the protocol to their own address"
      },
      "borrowBalanceCurrent(address)": {
        "notice": "Accrue interest to updated borrowIndex and then calculate account's borrow balance using the updated borrowIndex"
      },
      "borrowBalanceStored(address)": {
        "notice": "Return the borrow balance of account based on stored data"
      },
      "borrowIndex()": {
        "notice": "Accumulator of the total earned interest rate since the opening of the market"
      },
      "borrowRatePerTimestamp()": {
        "notice": "Returns the current per-timestamp borrow interest rate for this kToken"
      },
      "comptroller()": {
        "notice": "Contract which oversees inter-kToken operations"
      },
      "constructor": {
        "notice": "Construct a new money market"
      },
      "decimals()": {
        "notice": "EIP-20 token decimals for this token"
      },
      "delegateToImplementation(bytes)": {
        "notice": "Delegates execution to the implementation contract"
      },
      "delegateToViewImplementation(bytes)": {
        "notice": "Delegates execution to an implementation contract"
      },
      "exchangeRateCurrent()": {
        "notice": "Accrue interest then return the up-to-date exchange rate"
      },
      "exchangeRateStored()": {
        "notice": "Calculates the exchange rate from the underlying to the KToken"
      },
      "getAccountSnapshot(address)": {
        "notice": "Get a snapshot of the account's balances, and the cached exchange rate"
      },
      "getCash()": {
        "notice": "Get cash balance of this kToken in the underlying asset"
      },
      "implementation()": {
        "notice": "Implementation address for this contract"
      },
      "interestRateModel()": {
        "notice": "Model which tells what the current interest rate should be"
      },
      "isKToken()": {
        "notice": "Indicator that this is a KToken contract (for inspection)"
      },
      "liquidateBorrow(address,uint256,address)": {
        "notice": "The sender liquidates the borrowers collateral.  The collateral seized is transferred to the liquidator."
      },
      "messageHub()": {
        "notice": "messageHub for this KToken"
      },
      "mint(uint256)": {
        "notice": "Sender supplies assets into the market and receives kTokens in exchange"
      },
      "mintWithPermit(uint256,uint256,uint8,bytes32,bytes32)": {
        "notice": "Supply assets but without a 2-step approval process, EIP-2612"
      },
      "name()": {
        "notice": "EIP-20 token name for this token"
      },
      "pendingAdmin()": {
        "notice": "Pending administrator for this contract"
      },
      "protocolSeizeShareMantissa()": {
        "notice": "Share of seized collateral that is added to reserves"
      },
      "redeem(uint256)": {
        "notice": "Sender redeems kTokens in exchange for the underlying asset"
      },
      "redeemUnderlying(uint256)": {
        "notice": "Sender redeems kTokens in exchange for a specified amount of underlying asset"
      },
      "repayBorrow(uint256)": {
        "notice": "Sender repays their own borrow"
      },
      "repayBorrowBehalf(address,uint256)": {
        "notice": "Sender repays a borrow belonging to borrower"
      },
      "reserveFactorMantissa()": {
        "notice": "Fraction of interest currently set aside for reserves"
      },
      "seize(address,address,uint256)": {
        "notice": "Transfers collateral tokens (this market) to the liquidator."
      },
      "supplyRatePerTimestamp()": {
        "notice": "Returns the current per-timestamp supply interest rate for this kToken"
      },
      "sweepToken(address)": {
        "notice": "A public function to sweep accidental ERC-20 transfers to this contract. Tokens are sent to admin (timelock)"
      },
      "symbol()": {
        "notice": "EIP-20 token symbol for this token"
      },
      "totalBorrows()": {
        "notice": "Total amount of outstanding borrows of the underlying in this market"
      },
      "totalBorrowsCurrent()": {
        "notice": "Returns the current total borrows plus accrued interest"
      },
      "totalReserves()": {
        "notice": "Total amount of reserves of the underlying held in this market"
      },
      "totalSupply()": {
        "notice": "Total number of tokens in circulation"
      },
      "transfer(address,uint256)": {
        "notice": "Transfer `amount` tokens from `msg.sender` to `dst`"
      },
      "transferFrom(address,address,uint256)": {
        "notice": "Transfer `amount` tokens from `src` to `dst`"
      },
      "underlying()": {
        "notice": "Underlying asset for this KToken"
      }
    },
    "notice": "KTokens which wrap an EIP-20 underlying and delegate to an implementation",
    "version": 1
  },
  "storageLayout": {
    "storage": [
      {
        "astId": 15323,
        "contract": "contracts/KErc20Delegator.sol:KErc20Delegator",
        "label": "_notEntered",
        "offset": 0,
        "slot": "0",
        "type": "t_bool"
      },
      {
        "astId": 15326,
        "contract": "contracts/KErc20Delegator.sol:KErc20Delegator",
        "label": "name",
        "offset": 0,
        "slot": "1",
        "type": "t_string_storage"
      },
      {
        "astId": 15329,
        "contract": "contracts/KErc20Delegator.sol:KErc20Delegator",
        "label": "symbol",
        "offset": 0,
        "slot": "2",
        "type": "t_string_storage"
      },
      {
        "astId": 15332,
        "contract": "contracts/KErc20Delegator.sol:KErc20Delegator",
        "label": "decimals",
        "offset": 0,
        "slot": "3",
        "type": "t_uint8"
      },
      {
        "astId": 15342,
        "contract": "contracts/KErc20Delegator.sol:KErc20Delegator",
        "label": "admin",
        "offset": 1,
        "slot": "3",
        "type": "t_address_payable"
      },
      {
        "astId": 15345,
        "contract": "contracts/KErc20Delegator.sol:KErc20Delegator",
        "label": "pendingAdmin",
        "offset": 0,
        "slot": "4",
        "type": "t_address_payable"
      },
      {
        "astId": 15349,
        "contract": "contracts/KErc20Delegator.sol:KErc20Delegator",
        "label": "comptroller",
        "offset": 0,
        "slot": "5",
        "type": "t_contract(ComptrollerInterface)6331"
      },
      {
        "astId": 15353,
        "contract": "contracts/KErc20Delegator.sol:KErc20Delegator",
        "label": "interestRateModel",
        "offset": 0,
        "slot": "6",
        "type": "t_contract(InterestRateModel)17647"
      },
      {
        "astId": 15355,
        "contract": "contracts/KErc20Delegator.sol:KErc20Delegator",
        "label": "initialExchangeRateMantissa",
        "offset": 0,
        "slot": "7",
        "type": "t_uint256"
      },
      {
        "astId": 15358,
        "contract": "contracts/KErc20Delegator.sol:KErc20Delegator",
        "label": "reserveFactorMantissa",
        "offset": 0,
        "slot": "8",
        "type": "t_uint256"
      },
      {
        "astId": 15361,
        "contract": "contracts/KErc20Delegator.sol:KErc20Delegator",
        "label": "accrualBlockTimestamp",
        "offset": 0,
        "slot": "9",
        "type": "t_uint256"
      },
      {
        "astId": 15364,
        "contract": "contracts/KErc20Delegator.sol:KErc20Delegator",
        "label": "borrowIndex",
        "offset": 0,
        "slot": "10",
        "type": "t_uint256"
      },
      {
        "astId": 15367,
        "contract": "contracts/KErc20Delegator.sol:KErc20Delegator",
        "label": "totalBorrows",
        "offset": 0,
        "slot": "11",
        "type": "t_uint256"
      },
      {
        "astId": 15370,
        "contract": "contracts/KErc20Delegator.sol:KErc20Delegator",
        "label": "totalReserves",
        "offset": 0,
        "slot": "12",
        "type": "t_uint256"
      },
      {
        "astId": 15373,
        "contract": "contracts/KErc20Delegator.sol:KErc20Delegator",
        "label": "totalSupply",
        "offset": 0,
        "slot": "13",
        "type": "t_uint256"
      },
      {
        "astId": 15378,
        "contract": "contracts/KErc20Delegator.sol:KErc20Delegator",
        "label": "accountTokens",
        "offset": 0,
        "slot": "14",
        "type": "t_mapping(t_address,t_uint256)"
      },
      {
        "astId": 15385,
        "contract": "contracts/KErc20Delegator.sol:KErc20Delegator",
        "label": "transferAllowances",
        "offset": 0,
        "slot": "15",
        "type": "t_mapping(t_address,t_mapping(t_address,t_uint256))"
      },
      {
        "astId": 15396,
        "contract": "contracts/KErc20Delegator.sol:KErc20Delegator",
        "label": "accountBorrows",
        "offset": 0,
        "slot": "16",
        "type": "t_mapping(t_address,t_struct(BorrowSnapshot)15391_storage)"
      },
      {
        "astId": 15399,
        "contract": "contracts/KErc20Delegator.sol:KErc20Delegator",
        "label": "protocolSeizeShareMantissa",
        "offset": 0,
        "slot": "17",
        "type": "t_uint256"
      },
      {
        "astId": 15732,
        "contract": "contracts/KErc20Delegator.sol:KErc20Delegator",
        "label": "underlying",
        "offset": 0,
        "slot": "18",
        "type": "t_address"
      },
      {
        "astId": 15735,
        "contract": "contracts/KErc20Delegator.sol:KErc20Delegator",
        "label": "messageHub",
        "offset": 0,
        "slot": "19",
        "type": "t_address"
      },
      {
        "astId": 15904,
        "contract": "contracts/KErc20Delegator.sol:KErc20Delegator",
        "label": "implementation",
        "offset": 0,
        "slot": "20",
        "type": "t_address"
      }
    ],
    "types": {
      "t_address": {
        "encoding": "inplace",
        "label": "address",
        "numberOfBytes": "20"
      },
      "t_address_payable": {
        "encoding": "inplace",
        "label": "address payable",
        "numberOfBytes": "20"
      },
      "t_bool": {
        "encoding": "inplace",
        "label": "bool",
        "numberOfBytes": "1"
      },
      "t_contract(ComptrollerInterface)6331": {
        "encoding": "inplace",
        "label": "contract ComptrollerInterface",
        "numberOfBytes": "20"
      },
      "t_contract(InterestRateModel)17647": {
        "encoding": "inplace",
        "label": "contract InterestRateModel",
        "numberOfBytes": "20"
      },
      "t_mapping(t_address,t_mapping(t_address,t_uint256))": {
        "encoding": "mapping",
        "key": "t_address",
        "label": "mapping(address => mapping(address => uint256))",
        "numberOfBytes": "32",
        "value": "t_mapping(t_address,t_uint256)"
      },
      "t_mapping(t_address,t_struct(BorrowSnapshot)15391_storage)": {
        "encoding": "mapping",
        "key": "t_address",
        "label": "mapping(address => struct KTokenStorage.BorrowSnapshot)",
        "numberOfBytes": "32",
        "value": "t_struct(BorrowSnapshot)15391_storage"
      },
      "t_mapping(t_address,t_uint256)": {
        "encoding": "mapping",
        "key": "t_address",
        "label": "mapping(address => uint256)",
        "numberOfBytes": "32",
        "value": "t_uint256"
      },
      "t_string_storage": {
        "encoding": "bytes",
        "label": "string",
        "numberOfBytes": "32"
      },
      "t_struct(BorrowSnapshot)15391_storage": {
        "encoding": "inplace",
        "label": "struct KTokenStorage.BorrowSnapshot",
        "members": [
          {
            "astId": 15388,
            "contract": "contracts/KErc20Delegator.sol:KErc20Delegator",
            "label": "principal",
            "offset": 0,
            "slot": "0",
            "type": "t_uint256"
          },
          {
            "astId": 15390,
            "contract": "contracts/KErc20Delegator.sol:KErc20Delegator",
            "label": "interestIndex",
            "offset": 0,
            "slot": "1",
            "type": "t_uint256"
          }
        ],
        "numberOfBytes": "64"
      },
      "t_uint256": {
        "encoding": "inplace",
        "label": "uint256",
        "numberOfBytes": "32"
      },
      "t_uint8": {
        "encoding": "inplace",
        "label": "uint8",
        "numberOfBytes": "1"
      }
    }
  }
}