{
  "address": "0xF82Be348C538825148E3454b917412496D93D13D",
  "abi": [
    {
      "inputs": [
        {
          "internalType": "address",
          "name": "kToken_",
          "type": "address"
        }
      ],
      "stateMutability": "nonpayable",
      "type": "constructor"
    },
    {
      "anonymous": false,
      "inputs": [
        {
          "indexed": false,
          "internalType": "address",
          "name": "newAdapter",
          "type": "address"
        }
      ],
      "name": "NewAdapter",
      "type": "event"
    },
    {
      "anonymous": false,
      "inputs": [
        {
          "indexed": false,
          "internalType": "address",
          "name": "oldKToken",
          "type": "address"
        },
        {
          "indexed": false,
          "internalType": "address",
          "name": "newKToken",
          "type": "address"
        }
      ],
      "name": "NewKToken",
      "type": "event"
    },
    {
      "anonymous": false,
      "inputs": [
        {
          "indexed": true,
          "internalType": "address",
          "name": "previousOwner",
          "type": "address"
        },
        {
          "indexed": true,
          "internalType": "address",
          "name": "newOwner",
          "type": "address"
        }
      ],
      "name": "OwnershipTransferred",
      "type": "event"
    },
    {
      "anonymous": false,
      "inputs": [
        {
          "indexed": false,
          "internalType": "address",
          "name": "removedAdapter",
          "type": "address"
        }
      ],
      "name": "RemoveAdapter",
      "type": "event"
    },
    {
      "inputs": [
        {
          "internalType": "address",
          "name": "adapter",
          "type": "address"
        }
      ],
      "name": "_addAdapter",
      "outputs": [],
      "stateMutability": "nonpayable",
      "type": "function"
    },
    {
      "inputs": [
        {
          "internalType": "address",
          "name": "adapter",
          "type": "address"
        }
      ],
      "name": "_removeAdapter",
      "outputs": [],
      "stateMutability": "nonpayable",
      "type": "function"
    },
    {
      "inputs": [
        {
          "internalType": "address",
          "name": "kToken_",
          "type": "address"
        }
      ],
      "name": "_setKToken",
      "outputs": [],
      "stateMutability": "nonpayable",
      "type": "function"
    },
    {
      "inputs": [
        {
          "internalType": "uint256",
          "name": "",
          "type": "uint256"
        }
      ],
      "name": "adapters",
      "outputs": [
        {
          "internalType": "address",
          "name": "",
          "type": "address"
        }
      ],
      "stateMutability": "view",
      "type": "function"
    },
    {
      "inputs": [
        {
          "internalType": "bytes",
          "name": "payload",
          "type": "bytes"
        }
      ],
      "name": "calculateGas",
      "outputs": [
        {
          "internalType": "uint256",
          "name": "cost",
          "type": "uint256"
        }
      ],
      "stateMutability": "view",
      "type": "function"
    },
    {
      "inputs": [],
      "name": "kToken",
      "outputs": [
        {
          "internalType": "address",
          "name": "",
          "type": "address"
        }
      ],
      "stateMutability": "view",
      "type": "function"
    },
    {
      "inputs": [],
      "name": "owner",
      "outputs": [
        {
          "internalType": "address",
          "name": "",
          "type": "address"
        }
      ],
      "stateMutability": "view",
      "type": "function"
    },
    {
      "inputs": [
        {
          "internalType": "bytes",
          "name": "payload",
          "type": "bytes"
        }
      ],
      "name": "receiveMessage",
      "outputs": [],
      "stateMutability": "nonpayable",
      "type": "function"
    },
    {
      "inputs": [],
      "name": "renounceOwnership",
      "outputs": [],
      "stateMutability": "nonpayable",
      "type": "function"
    },
    {
      "inputs": [
        {
          "internalType": "address",
          "name": "sender",
          "type": "address"
        },
        {
          "internalType": "bytes",
          "name": "payload",
          "type": "bytes"
        }
      ],
      "name": "sendMessage",
      "outputs": [],
      "stateMutability": "payable",
      "type": "function"
    },
    {
      "inputs": [
        {
          "internalType": "address",
          "name": "newOwner",
          "type": "address"
        }
      ],
      "name": "transferOwnership",
      "outputs": [],
      "stateMutability": "nonpayable",
      "type": "function"
    }
  ],
  "transactionHash": "0x9327cbaa0e511a7aeb0d96592496b69c45f868a8476b4a974a9778c5acf97066",
  "args": [
    "0x0000000000000000000000000000000000000000"
  ],
  "numDeployments": 1,
  "solcInputHash": "912a57824662bd29e429bb5e3ecac0e6",
  "bytecode": "0x608060405234801561001057600080fd5b5060405161145138038061145183398101604081905261002f916100ad565b6100383361005d565b600180546001600160a01b0319166001600160a01b03929092169190911790556100dd565b600080546001600160a01b038381166001600160a01b0319831681178455604051919092169283917f8be0079c531659141344cd1fd0a4f28419497f9722a3daafe3b4186f6b6457e09190a35050565b6000602082840312156100bf57600080fd5b81516001600160a01b03811681146100d657600080fd5b9392505050565b611365806100ec6000396000f3fe60806040526004361061009c5760003560e01c8063715018a611610064578063715018a6146101605780638da5cb5b14610175578063bb5ddb0f14610193578063db19f8b8146101a6578063f2fde38b146101d4578063f953cec7146101f457600080fd5b8063163444d5146100a1578063223c19f9146100c357806348c6019d146101005780634ef501ac146101205780636ed5379214610140575b600080fd5b3480156100ad57600080fd5b506100c16100bc366004610ea3565b610214565b005b3480156100cf57600080fd5b506001546100e3906001600160a01b031681565b6040516001600160a01b0390911681526020015b60405180910390f35b34801561010c57600080fd5b506100c161011b366004610ea3565b6102f4565b34801561012c57600080fd5b506100e361013b366004610ec7565b610494565b34801561014c57600080fd5b506100c161015b366004610ea3565b6104be565b34801561016c57600080fd5b506100c1610520565b34801561018157600080fd5b506000546001600160a01b03166100e3565b6100c16101a1366004610f29565b610534565b3480156101b257600080fd5b506101c66101c1366004610f7e565b610678565b6040519081526020016100f7565b3480156101e057600080fd5b506100c16101ef366004610ea3565b61073a565b34801561020057600080fd5b506100c161020f366004610f7e565b6107b3565b61021c610861565b610225816108bb565b156102705760405162461bcd60e51b81526020600482015260166024820152754164617074657220616c72656164792065786973747360501b60448201526064015b60405180910390fd5b600280546001810182556000919091527f405787fa12a823e0f2b7631cc41b3ba8828b3321ca811111fa75cd3aa3bb5ace0180546001600160a01b0319166001600160a01b0383169081179091556040519081527ff9657d456e13b309f67c0481829377d6e1c68778e2f04a1b4339d885c7c6242d9060200160405180910390a150565b6102fc610861565b60025460005b60025481101561035d57826001600160a01b03166002828154811061032957610329610fc0565b6000918252602090912001546001600160a01b03160361034b5780915061035d565b8061035581610fec565b915050610302565b5060025481106103a35760405162461bcd60e51b81526020600482015260116024820152701059191c995cdcc81b9bdd08199bdd5b99607a1b6044820152606401610267565b600280546103b390600190611005565b815481106103c3576103c3610fc0565b600091825260209091200154600280546001600160a01b0390921691839081106103ef576103ef610fc0565b9060005260206000200160006101000a8154816001600160a01b0302191690836001600160a01b03160217905550600280548061042e5761042e61101e565b6000828152602090819020600019908301810180546001600160a01b03191690559091019091556040516001600160a01b03841681527f34f33faa2592bc1f615ec3e91b55b7784665ce46461403c294824d85f9f6645891015b60405180910390a15050565b600281815481106104a457600080fd5b6000918252602090912001546001600160a01b0316905081565b6104c6610861565b600180546001600160a01b038381166001600160a01b031983168117909355604080519190921680825260208201939093527f84db94e40e6dbe3caad59a7d17de7145400ba5c6abcafd6c24a5c8465b31dd5f9101610488565b610528610861565b6105326000610924565b565b604051631b633f1760e31b8152600090309063db19f8b89061055c908690869060040161105d565b602060405180830381865afa158015610579573d6000803e3d6000fd5b505050506040513d601f19601f8201168201806040525081019061059d9190611079565b90506105a881610974565b60005b60025481101561064c57600281815481106105c8576105c8610fc0565b60009182526020909120015460405163bb5ddb0f60e01b81526001600160a01b039091169063bb5ddb0f90349061060790899089908990600401611092565b6000604051808303818588803b15801561062057600080fd5b505af1158015610634573d6000803e3d6000fd5b5050505050808061064490610fec565b9150506105ab565b5060006106598234611005565b1115610672576106728461066d8334611005565b610a15565b50505050565b6000805b600254811015610733576002818154811061069957610699610fc0565b600091825260209091200154604051631b633f1760e31b81526001600160a01b039091169063db19f8b8906106d4908790879060040161105d565b602060405180830381865afa1580156106f1573d6000803e3d6000fd5b505050506040513d601f19601f820116820180604052508101906107159190611079565b61071f90836110c0565b91508061072b81610fec565b91505061067c565b5092915050565b610742610861565b6001600160a01b0381166107a75760405162461bcd60e51b815260206004820152602660248201527f4f776e61626c653a206e6577206f776e657220697320746865207a65726f206160448201526564647265737360d01b6064820152608401610267565b6107b081610924565b50565b6000805b60025481101561081357336001600160a01b0316600282815481106107de576107de610fc0565b6000918252602090912001546001600160a01b0316036108015760019150610813565b8061080b81610fec565b9150506107b7565b50806108525760405162461bcd60e51b815260206004820152600e60248201526d2737ba1030b71030b230b83a32b960911b6044820152606401610267565b61085c8383610aa9565b505050565b6000546001600160a01b031633146105325760405162461bcd60e51b815260206004820181905260248201527f4f776e61626c653a2063616c6c6572206973206e6f7420746865206f776e65726044820152606401610267565b6000805b60025481101561091b57826001600160a01b0316600282815481106108e6576108e6610fc0565b6000918252602090912001546001600160a01b0316036109095750600192915050565b8061091381610fec565b9150506108bf565b50600092915050565b600080546001600160a01b038381166001600160a01b0319831681178455604051919092169283917f8be0079c531659141344cd1fd0a4f28419497f9722a3daafe3b4186f6b6457e09190a35050565b6001546001600160a01b031633146109bd5760405162461bcd60e51b815260206004820152600c60248201526b155b985d5d1a1bdc9a5e995960a21b6044820152606401610267565b803410156109ca34610d83565b6109d383610d83565b6040516020016109e49291906110f7565b60405160208183030381529060405290610a115760405162461bcd60e51b81526004016102679190611181565b5050565b6000826001600160a01b03168260405160006040518083038185875af1925050503d8060008114610a62576040519150601f19603f3d011682016040523d82523d6000602084013e610a67565b606091505b505090508061085c5760405162461bcd60e51b815260206004820152600e60248201526d1499599d5b99080819985a5b195960921b6044820152606401610267565b6000610ab860048284866111b4565b610ac1916111de565b905063bf3ef0e760e01b6001600160e01b0319821601610b7257600080610aea8486018661122b565b6001546040516340c10f1960e01b81526001600160a01b038085166004830152602482018490529396509194509190911691506340c10f19906044015b6020604051808303816000875af1158015610b46573d6000803e3d6000fd5b505050506040513d601f19601f82011682018060405250810190610b6a9190611079565b505050505050565b630a84942b60e31b6001600160e01b0319821601610bda57600080610b998486018661122b565b60015460405163157b6bd560e31b81526001600160a01b0380851660048301526024820184905293965091945091909116915063abdb5ea890604401610b27565b63537bcad160e11b6001600160e01b0319821601610c955760008080610c028587018761126a565b600154604051632c84352f60e11b81526001600160a01b0380861660048301528085166024830152604482018490529498509296509094509190911691506359086a5e906064016020604051808303816000875af1158015610c68573d6000803e3d6000fd5b505050506040513d601f19601f82011682018060405250810190610c8c9190611079565b50505050505050565b6305c6383d60e21b6001600160e01b0319821601610d3b57600080610cbc8486018661122b565b600154604051633a39c7c360e21b81526001600160a01b0380851660048301526024820184905293965091945091909116915063e8e71f0c906044016020604051808303816000875af1158015610d17573d6000803e3d6000fd5b505050506040513d601f19601f82011682018060405250810190610b6a91906112b9565b60405162461bcd60e51b815260206004820152601960248201527f556e6b6e6f776e2066756e6374696f6e2073656c6563746f72000000000000006044820152606401610267565b606081600003610daa5750506040805180820190915260018152600360fc1b602082015290565b8160005b8115610dd45780610dbe81610fec565b9150610dcd9050600a836112f1565b9150610dae565b60008167ffffffffffffffff811115610def57610def611305565b6040519080825280601f01601f191660200182016040528015610e19576020820181803683370190505b509050815b8515610e8557610e2f600182611005565b9050610e3c600a8761131b565b610e479060306110c0565b60f81b828281518110610e5c57610e5c610fc0565b60200101906001600160f81b031916908160001a905350610e7e600a876112f1565b9550610e1e565b50949350505050565b6001600160a01b03811681146107b057600080fd5b600060208284031215610eb557600080fd5b8135610ec081610e8e565b9392505050565b600060208284031215610ed957600080fd5b5035919050565b60008083601f840112610ef257600080fd5b50813567ffffffffffffffff811115610f0a57600080fd5b602083019150836020828501011115610f2257600080fd5b9250929050565b600080600060408486031215610f3e57600080fd5b8335610f4981610e8e565b9250602084013567ffffffffffffffff811115610f6557600080fd5b610f7186828701610ee0565b9497909650939450505050565b60008060208385031215610f9157600080fd5b823567ffffffffffffffff811115610fa857600080fd5b610fb485828601610ee0565b90969095509350505050565b634e487b7160e01b600052603260045260246000fd5b634e487b7160e01b600052601160045260246000fd5b600060018201610ffe57610ffe610fd6565b5060010190565b8181038181111561101857611018610fd6565b92915050565b634e487b7160e01b600052603160045260246000fd5b81835281816020850137506000828201602090810191909152601f909101601f19169091010190565b602081526000611071602083018486611034565b949350505050565b60006020828403121561108b57600080fd5b5051919050565b6001600160a01b03841681526040602082018190526000906110b79083018486611034565b95945050505050565b8082018082111561101857611018610fd6565b60005b838110156110ee5781810151838201526020016110d6565b50506000910152565b7f496e73756666696369656e742066756e647320666f722063726f73732d636861815271034b71036b2b9b9b0b3b2971029b2b73a1d160751b60208201526000835161114a8160328501602088016110d3565b6a0102932b8bab4b932b21d160ad1b603291840191820152835161117581603d8401602088016110d3565b01603d01949350505050565b60208152600082518060208401526111a08160408501602087016110d3565b601f01601f19169190910160400192915050565b600080858511156111c457600080fd5b838611156111d157600080fd5b5050820193919092039150565b6001600160e01b031981358181169160048510156112065780818660040360031b1b83161692505b505092915050565b80356001600160e01b03198116811461122657600080fd5b919050565b60008060006060848603121561124057600080fd5b6112498461120e565b9250602084013561125981610e8e565b929592945050506040919091013590565b6000806000806080858703121561128057600080fd5b6112898561120e565b9350602085013561129981610e8e565b925060408501356112a981610e8e565b9396929550929360600135925050565b6000602082840312156112cb57600080fd5b81518015158114610ec057600080fd5b634e487b7160e01b600052601260045260246000fd5b600082611300576113006112db565b500490565b634e487b7160e01b600052604160045260246000fd5b60008261132a5761132a6112db565b50069056fea2646970667358221220a2b32a0877a38ec8eda4c5e9c2ab3a11cb1f27b36f81eaa07087c3238d8a4f9664736f6c63430008140033",
  "devdoc": {
    "kind": "dev",
    "methods": {
      "owner()": {
        "details": "Returns the address of the current owner."
      },
      "renounceOwnership()": {
        "details": "Leaves the contract without owner. It will not be possible to call `onlyOwner` functions. Can only be called by the current owner. NOTE: Renouncing ownership will leave the contract without an owner, thereby disabling any functionality that is only available to the owner."
      },
      "transferOwnership(address)": {
        "details": "Transfers ownership of the contract to a new account (`newOwner`). Can only be called by the current owner."
      }
    },
    "version": 1
  },
  "userdoc": {
    "kind": "user",
    "methods": {},
    "version": 1
  },
  "storageLayout": {
    "storage": [
      {
        "astId": 2858,
        "contract": "contracts/CentralHub/CentralHub.sol:CentralHub",
        "label": "_owner",
        "offset": 0,
        "slot": "0",
        "type": "t_address"
      },
      {
        "astId": 5772,
        "contract": "contracts/CentralHub/CentralHub.sol:CentralHub",
        "label": "kToken",
        "offset": 0,
        "slot": "1",
        "type": "t_address"
      },
      {
        "astId": 5775,
        "contract": "contracts/CentralHub/CentralHub.sol:CentralHub",
        "label": "adapters",
        "offset": 0,
        "slot": "2",
        "type": "t_array(t_address)dyn_storage"
      }
    ],
    "types": {
      "t_address": {
        "encoding": "inplace",
        "label": "address",
        "numberOfBytes": "20"
      },
      "t_array(t_address)dyn_storage": {
        "base": "t_address",
        "encoding": "dynamic_array",
        "label": "address[]",
        "numberOfBytes": "32"
      }
    }
  }
}