{
  "address": "0xe079c5E970194aD1AADA4fd58aa6A9B6a7518A37",
  "abi": [
    {
      "inputs": [
        {
          "internalType": "address",
          "name": "pythContract",
          "type": "address"
        }
      ],
      "stateMutability": "nonpayable",
      "type": "constructor"
    },
    {
      "inputs": [],
      "name": "admin",
      "outputs": [
        {
          "internalType": "address",
          "name": "",
          "type": "address"
        }
      ],
      "stateMutability": "view",
      "type": "function"
    },
    {
      "inputs": [
        {
          "internalType": "address",
          "name": "",
          "type": "address"
        }
      ],
      "name": "directPrices",
      "outputs": [
        {
          "internalType": "uint256",
          "name": "",
          "type": "uint256"
        }
      ],
      "stateMutability": "view",
      "type": "function"
    },
    {
      "inputs": [
        {
          "internalType": "address",
          "name": "kToken",
          "type": "address"
        }
      ],
      "name": "getPrice",
      "outputs": [
        {
          "internalType": "uint256",
          "name": "price",
          "type": "uint256"
        }
      ],
      "stateMutability": "view",
      "type": "function"
    },
    {
      "inputs": [
        {
          "internalType": "contract KTokenInterface",
          "name": "kToken",
          "type": "address"
        }
      ],
      "name": "getUnderlyingPrice",
      "outputs": [
        {
          "internalType": "uint256",
          "name": "",
          "type": "uint256"
        }
      ],
      "stateMutability": "view",
      "type": "function"
    },
    {
      "inputs": [],
      "name": "isPriceOracle",
      "outputs": [
        {
          "internalType": "bool",
          "name": "",
          "type": "bool"
        }
      ],
      "stateMutability": "view",
      "type": "function"
    },
    {
      "inputs": [],
      "name": "pyth",
      "outputs": [
        {
          "internalType": "contract IPyth",
          "name": "",
          "type": "address"
        }
      ],
      "stateMutability": "view",
      "type": "function"
    },
    {
      "inputs": [
        {
          "internalType": "address",
          "name": "",
          "type": "address"
        }
      ],
      "name": "pythPriceIds",
      "outputs": [
        {
          "internalType": "bytes32",
          "name": "",
          "type": "bytes32"
        }
      ],
      "stateMutability": "view",
      "type": "function"
    },
    {
      "inputs": [
        {
          "internalType": "address",
          "name": "token",
          "type": "address"
        },
        {
          "internalType": "uint256",
          "name": "price",
          "type": "uint256"
        }
      ],
      "name": "setDirectPrice",
      "outputs": [],
      "stateMutability": "nonpayable",
      "type": "function"
    },
    {
      "inputs": [
        {
          "internalType": "address",
          "name": "newAdmin",
          "type": "address"
        }
      ],
      "name": "updateAdmin",
      "outputs": [],
      "stateMutability": "nonpayable",
      "type": "function"
    },
    {
      "inputs": [
        {
          "internalType": "address[]",
          "name": "_tokens",
          "type": "address[]"
        },
        {
          "internalType": "bytes[]",
          "name": "_ids",
          "type": "bytes[]"
        }
      ],
      "name": "updatePythPriceIds",
      "outputs": [],
      "stateMutability": "nonpayable",
      "type": "function"
    }
  ],
  "transactionHash": "0xe0fec75177bf3305f5457b1745fb361ba7f1da2c8c38503a5193e1cc2d2844f2",
  "args": [
    "0xe9d69CdD6Fe41e7B621B4A688C5D1a68cB5c8ADc"
  ],
  "numDeployments": 1,
  "solcInputHash": "9daac8c254a967988052af59b161ce5f",
  "bytecode": "0x60a060405234801561001057600080fd5b50604051610c2b380380610c2b83398101604081905261002f91610052565b600080546001600160a01b031916331790556001600160a01b0316608052610082565b60006020828403121561006457600080fd5b81516001600160a01b038116811461007b57600080fd5b9392505050565b608051610b876100a46000396000818161018c01526104fd0152610b876000f3fe608060405234801561001057600080fd5b506004361061009e5760003560e01c8063e2f273bd11610066578063e2f273bd14610129578063f32d08f81461013c578063f851a4401461015c578063f98d06f014610187578063fc57d4df146101ae57600080fd5b806309a8acb0146100a3578063243e5f57146100b857806341976e09146100cb57806366331bba146100f15780637eb5fbfd14610109575b600080fd5b6100b66100b13660046105c7565b6101c1565b005b6100b66100c6366004610755565b610210565b6100de6100d9366004610817565b6102c3565b6040519081526020015b60405180910390f35b6100f9600181565b60405190151581526020016100e8565b6100de610117366004610817565b60016020526000908152604090205481565b6100b6610137366004610817565b6103f8565b6100de61014a366004610817565b60026020526000908152604090205481565b60005461016f906001600160a01b031681565b6040516001600160a01b0390911681526020016100e8565b61016f7f000000000000000000000000000000000000000000000000000000000000000081565b6100de6101bc366004610817565b610444565b6000546001600160a01b031633146101f45760405162461bcd60e51b81526004016101eb90610834565b60405180910390fd5b6001600160a01b03909116600090815260026020526040902055565b6000546001600160a01b0316331461023a5760405162461bcd60e51b81526004016101eb90610834565b60005b82518110156102be5781818151811061025857610258610861565b602002602001015161026990610877565b6001600085848151811061027f5761027f610861565b60200260200101516001600160a01b03166001600160a01b031681526020019081526020016000208190555080806102b6906108b4565b91505061023d565b505050565b600080826001600160a01b0316636f307dc36040518163ffffffff1660e01b8152600401602060405180830381865afa158015610304573d6000803e3d6000fd5b505050506040513d601f19601f8201168201806040525081019061032891906108cd565b6001600160a01b03811660009081526002602052604090205490915080156103525780925061035e565b61035b826104bf565b92505b6000826001600160a01b031663313ce5676040518163ffffffff1660e01b8152600401602060405180830381865afa15801561039e573d6000803e3d6000fd5b505050506040513d601f19601f820116820180604052508101906103c291906108ea565b6103d09060ff16601261090d565b905080156103f0576103e381600a610a0a565b6103ed9085610a16565b93505b505050919050565b6000546001600160a01b031633146104225760405162461bcd60e51b81526004016101eb90610834565b600080546001600160a01b0319166001600160a01b0392909216919091179055565b600080826001600160a01b03166395d89b416040518163ffffffff1660e01b8152600401600060405180830381865afa158015610485573d6000803e3d6000fd5b505050506040513d6000823e601f3d908101601f191682016040526104ad9190810190610a2d565b90506104b8836102c3565b9392505050565b6001600160a01b0381811660009081526001602052604080822054905163052571af60e51b81526004810191909152620151806024820152909182917f00000000000000000000000000000000000000000000000000000000000000009091169063a4ae35e090604401608060405180830381865afa158015610546573d6000803e3d6000fd5b505050506040513d601f19601f8201168201806040525081019061056a9190610aba565b805167ffffffffffffffff169250905060006105886008601261090d565b905080156105a85761059b81600a610a0a565b6105a59084610a16565b92505b5050919050565b6001600160a01b03811681146105c457600080fd5b50565b600080604083850312156105da57600080fd5b82356105e5816105af565b946020939093013593505050565b634e487b7160e01b600052604160045260246000fd5b604051601f8201601f1916810167ffffffffffffffff81118282101715610632576106326105f3565b604052919050565b600067ffffffffffffffff821115610654576106546105f3565b5060051b60200190565b600067ffffffffffffffff821115610678576106786105f3565b50601f01601f191660200190565b600082601f83011261069757600080fd5b813560206106ac6106a78361063a565b610609565b82815260059290921b840181019181810190868411156106cb57600080fd5b8286015b8481101561074a57803567ffffffffffffffff8111156106ef5760008081fd5b8701603f810189136107015760008081fd5b8481013560406107136106a78361065e565b8281528b828486010111156107285760008081fd5b82828501898301376000928101880192909252508452509183019183016106cf565b509695505050505050565b6000806040838503121561076857600080fd5b823567ffffffffffffffff8082111561078057600080fd5b818501915085601f83011261079457600080fd5b813560206107a46106a78361063a565b82815260059290921b840181019181810190898411156107c357600080fd5b948201945b838610156107ea5785356107db816105af565b825294820194908201906107c8565b9650508601359250508082111561080057600080fd5b5061080d85828601610686565b9150509250929050565b60006020828403121561082957600080fd5b81356104b8816105af565b6020808252601390820152721bdb9b1e4818591b5a5b881b585e4818d85b1b606a1b604082015260600190565b634e487b7160e01b600052603260045260246000fd5b80516020808301519190811015610898576000198160200360031b1b821691505b50919050565b634e487b7160e01b600052601160045260246000fd5b6000600182016108c6576108c661089e565b5060010190565b6000602082840312156108df57600080fd5b81516104b8816105af565b6000602082840312156108fc57600080fd5b815160ff811681146104b857600080fd5b818103818111156109205761092061089e565b92915050565b600181815b808511156109615781600019048211156109475761094761089e565b8085161561095457918102915b93841c939080029061092b565b509250929050565b60008261097857506001610920565b8161098557506000610920565b816001811461099b57600281146109a5576109c1565b6001915050610920565b60ff8411156109b6576109b661089e565b50506001821b610920565b5060208310610133831016604e8410600b84101617156109e4575081810a610920565b6109ee8383610926565b8060001904821115610a0257610a0261089e565b029392505050565b60006104b88383610969565b80820281158282048414176109205761092061089e565b60006020808385031215610a4057600080fd5b825167ffffffffffffffff811115610a5757600080fd5b8301601f81018513610a6857600080fd5b8051610a766106a78261065e565b8181528684838501011115610a8a57600080fd5b60005b82811015610aa8578381018501518282018601528401610a8d565b50600091810190930152509392505050565b600060808284031215610acc57600080fd5b6040516080810167ffffffffffffffff8282108183111715610af057610af06105f3565b81604052845191508160070b8214610b0757600080fd5b9082526020840151908082168214610b1e57600080fd5b5060208201526040830151600381900b8114610b3957600080fd5b6040820152606092830151928101929092525091905056fea26469706673582212202e02f2ca8d681d7d4362e487bd25f6fec105d2b57477d24bd22001c12d08619e64736f6c63430008140033",
  "devdoc": {
    "kind": "dev",
    "methods": {
      "getPrice(address)": {
        "details": "returns price of token",
        "params": {
          "kToken": "address of the kToken"
        },
        "returns": {
          "price": "scaled price of the token"
        }
      },
      "getUnderlyingPrice(address)": {
        "details": "returns price of cToken underlying",
        "params": {
          "kToken": "address of the kToken"
        },
        "returns": {
          "_0": "scaled price of the underlying"
        }
      },
      "setDirectPrice(address,uint256)": {
        "details": "set price of the token directly, only in case if there is no feed",
        "params": {
          "price": "underlying price in 18 decimal places",
          "token": "address of the underlying token"
        }
      }
    },
    "version": 1
  },
  "userdoc": {
    "kind": "user",
    "methods": {
      "isPriceOracle()": {
        "notice": "Indicator that this is a PriceOracle contract (for inspection)"
      }
    },
    "version": 1
  },
  "storageLayout": {
    "storage": [
      {
        "astId": 22477,
        "contract": "contracts/Pyth/PythOracle.sol:PythOracle",
        "label": "admin",
        "offset": 0,
        "slot": "0",
        "type": "t_address"
      },
      {
        "astId": 22491,
        "contract": "contracts/Pyth/PythOracle.sol:PythOracle",
        "label": "pythPriceIds",
        "offset": 0,
        "slot": "1",
        "type": "t_mapping(t_address,t_bytes32)"
      },
      {
        "astId": 22495,
        "contract": "contracts/Pyth/PythOracle.sol:PythOracle",
        "label": "directPrices",
        "offset": 0,
        "slot": "2",
        "type": "t_mapping(t_address,t_uint256)"
      }
    ],
    "types": {
      "t_address": {
        "encoding": "inplace",
        "label": "address",
        "numberOfBytes": "20"
      },
      "t_bytes32": {
        "encoding": "inplace",
        "label": "bytes32",
        "numberOfBytes": "32"
      },
      "t_mapping(t_address,t_bytes32)": {
        "encoding": "mapping",
        "key": "t_address",
        "label": "mapping(address => bytes32)",
        "numberOfBytes": "32",
        "value": "t_bytes32"
      },
      "t_mapping(t_address,t_uint256)": {
        "encoding": "mapping",
        "key": "t_address",
        "label": "mapping(address => uint256)",
        "numberOfBytes": "32",
        "value": "t_uint256"
      },
      "t_uint256": {
        "encoding": "inplace",
        "label": "uint256",
        "numberOfBytes": "32"
      }
    }
  }
}