{
  "address": "0xC7742e9B89599bA6127fa22560619C309149FcAB",
  "abi": [
    {
      "inputs": [
        {
          "internalType": "address",
          "name": "_weth",
          "type": "address"
        }
      ],
      "stateMutability": "nonpayable",
      "type": "constructor"
    },
    {
      "inputs": [
        {
          "internalType": "address payable",
          "name": "to",
          "type": "address"
        },
        {
          "internalType": "uint256",
          "name": "amount",
          "type": "uint256"
        }
      ],
      "name": "send",
      "outputs": [],
      "stateMutability": "nonpayable",
      "type": "function"
    },
    {
      "inputs": [],
      "name": "weth",
      "outputs": [
        {
          "internalType": "address",
          "name": "",
          "type": "address"
        }
      ],
      "stateMutability": "view",
      "type": "function"
    },
    {
      "stateMutability": "payable",
      "type": "receive"
    }
  ],
  "transactionHash": "0x7976e0da504a7c3ebcd16e64ce0098ee61f438953b17dbd7e46ab86a218f518c",
  "args": [
    "0x027D2E627209f1cebA52ADc8A5aFE9318459b44B"
  ],
  "numDeployments": 1,
  "solcInputHash": "9daac8c254a967988052af59b161ce5f",
  "bytecode": "0x60a060405234801561001057600080fd5b5060405161030c38038061030c83398101604081905261002f91610040565b6001600160a01b0316608052610070565b60006020828403121561005257600080fd5b81516001600160a01b038116811461006957600080fd5b9392505050565b60805161027561009760003960008181603d0152818160bb015261012a01526102756000f3fe60806040526004361061002d5760003560e01c80633fc8cef3146100a9578063d0679d34146100f957600080fd5b366100a457336001600160a01b037f000000000000000000000000000000000000000000000000000000000000000016146100a25760405162461bcd60e51b81526020600482015260116024820152700dcdee840c2c6c6cae0e8d2dcce40cae8d607b1b604482015260640160405180910390fd5b005b600080fd5b3480156100b557600080fd5b506100dd7f000000000000000000000000000000000000000000000000000000000000000081565b6040516001600160a01b03909116815260200160405180910390f35b34801561010557600080fd5b506100a2610114366004610207565b604051632e1a7d4d60e01b8152600481018290527f00000000000000000000000000000000000000000000000000000000000000006001600160a01b031690632e1a7d4d90602401600060405180830381600087803b15801561017657600080fd5b505af115801561018a573d6000803e3d6000fd5b50505050600080836001600160a01b03168360405160006040518083038185875af1925050503d80600081146101dc576040519150601f19603f3d011682016040523d82523d6000602084013e6101e1565b606091505b5091509150816102015780516000036101f957600080fd5b805181602001fd5b50505050565b6000806040838503121561021a57600080fd5b82356001600160a01b038116811461023157600080fd5b94602093909301359350505056fea2646970667358221220b851423cb524c1dad45ccd9cdf6e69ff9abd320efa1aac8cb3c9057079fdf7b764736f6c63430008140033",
  "devdoc": {
    "kind": "dev",
    "methods": {
      "constructor": {
        "params": {
          "_weth": "the WETH contract address"
        }
      },
      "send(address,uint256)": {
        "params": {
          "amount": "the amount of ETH to transfer",
          "to": "the recipient address"
        }
      }
    },
    "version": 1
  },
  "userdoc": {
    "kind": "user",
    "methods": {
      "constructor": {
        "notice": "construct a new WethUnwrapper"
      },
      "send(address,uint256)": {
        "notice": "transfer ETH underlying to the recipient first unwrap the WETH into raw ETH, then transfer"
      },
      "weth()": {
        "notice": "reference to the WETH contract"
      }
    },
    "version": 1
  },
  "storageLayout": {
    "storage": [],
    "types": null
  }
}