{
  "address": "0x28bF3c063eB78744041C325d6DE688A78a34B3Fb",
  "abi": [
    {
      "inputs": [
        {
          "internalType": "contract WETH9",
          "name": "_weth",
          "type": "address"
        },
        {
          "internalType": "contract KErc20",
          "name": "_kToken",
          "type": "address"
        }
      ],
      "stateMutability": "nonpayable",
      "type": "constructor"
    },
    {
      "inputs": [],
      "name": "kToken",
      "outputs": [
        {
          "internalType": "contract KErc20",
          "name": "",
          "type": "address"
        }
      ],
      "stateMutability": "view",
      "type": "function"
    },
    {
      "inputs": [
        {
          "internalType": "address",
          "name": "recipient",
          "type": "address"
        }
      ],
      "name": "mint",
      "outputs": [],
      "stateMutability": "payable",
      "type": "function"
    },
    {
      "inputs": [
        {
          "internalType": "address",
          "name": "borrower",
          "type": "address"
        }
      ],
      "name": "repayBorrowBehalf",
      "outputs": [],
      "stateMutability": "payable",
      "type": "function"
    },
    {
      "inputs": [],
      "name": "weth",
      "outputs": [
        {
          "internalType": "contract WETH9",
          "name": "",
          "type": "address"
        }
      ],
      "stateMutability": "view",
      "type": "function"
    },
    {
      "stateMutability": "payable",
      "type": "receive"
    }
  ],
  "transactionHash": "0xab51afd094bfa83fd3f9342b7f806f1108d18d719d0f4d86ef6bf0d947f58cdf",
  "args": [
    "0x027D2E627209f1cebA52ADc8A5aFE9318459b44B",
    "0xF4b1a17336aFFb8DED9204eAE8F5CcdB93ae3473"
  ],
  "numDeployments": 1,
  "solcInputHash": "9daac8c254a967988052af59b161ce5f",
  "bytecode": "0x60c060405234801561001057600080fd5b50604051610c99380380610c9983398101604081905261002f916100d0565b6001600160a01b03828116608081905290821660a081905260405163095ea7b360e01b81526004810191909152600019602482015263095ea7b3906044016020604051808303816000875af115801561008c573d6000803e3d6000fd5b505050506040513d601f19601f820116820180604052508101906100b0919061010a565b505050610133565b6001600160a01b03811681146100cd57600080fd5b50565b600080604083850312156100e357600080fd5b82516100ee816100b8565b60208401519092506100ff816100b8565b809150509250929050565b60006020828403121561011c57600080fd5b8151801515811461012c57600080fd5b9392505050565b60805160a051610afd61019c6000396000818160d5015281816101f3015281816102dc015281816103510152818161039f015281816104ad01526106700152600081816053015281816101250152818161016f0152818161041801526105db0152610afd6000f3fe6080604052600436106100435760003560e01c8063223c19f9146100c35780633fc8cef3146101135780636a62784214610147578063e59746191461015a57600080fd5b366100be57336001600160a01b037f000000000000000000000000000000000000000000000000000000000000000016146100bc5760405162461bcd60e51b81526020600482015260146024820152730ae8aa890a4deeae8cae47440dcdee840eecae8d60631b60448201526064015b60405180910390fd5b005b600080fd5b3480156100cf57600080fd5b506100f77f000000000000000000000000000000000000000000000000000000000000000081565b6040516001600160a01b03909116815260200160405180910390f35b34801561011f57600080fd5b506100f77f000000000000000000000000000000000000000000000000000000000000000081565b6100bc6101553660046109a3565b61016d565b6100bc6101683660046109a3565b61037b565b7f00000000000000000000000000000000000000000000000000000000000000006001600160a01b031663d0e30db0346040518263ffffffff1660e01b81526004016000604051808303818588803b1580156101c857600080fd5b505af11580156101dc573d6000803e3d6000fd5b505060405163140e25ad60e31b81523460048201527f00000000000000000000000000000000000000000000000000000000000000006001600160a01b0316935063a0712d68925060240190506020604051808303816000875af1158015610248573d6000803e3d6000fd5b505050506040513d601f19601f8201168201806040525081019061026c91906109d3565b156102b95760405162461bcd60e51b815260206004820152601760248201527f57455448526f757465723a206d696e74206661696c656400000000000000000060448201526064016100b3565b6040516370a0823160e01b81523060048201526103789082906001600160a01b037f000000000000000000000000000000000000000000000000000000000000000016906370a0823190602401602060405180830381865afa158015610323573d6000803e3d6000fd5b505050506040513d601f19601f8201168201806040525081019061034791906109d3565b6001600160a01b037f0000000000000000000000000000000000000000000000000000000000000000169190610703565b50565b6040516305eff7ef60e21b81526001600160a01b03828116600483015234916000917f000000000000000000000000000000000000000000000000000000000000000016906317bfdfbc906024016020604051808303816000875af11580156103e8573d6000803e3d6000fd5b505050506040513d601f19601f8201168201806040525081019061040c91906109d3565b9050808211156105d9577f00000000000000000000000000000000000000000000000000000000000000006001600160a01b031663d0e30db0826040518263ffffffff1660e01b81526004016000604051808303818588803b15801561047157600080fd5b505af1158015610485573d6000803e3d6000fd5b50506040516304c11f0360e31b81526001600160a01b038781166004830152602482018690527f0000000000000000000000000000000000000000000000000000000000000000169350632608f818925060440190506020604051808303816000875af11580156104fa573d6000803e3d6000fd5b505050506040513d601f19601f8201168201806040525081019061051e91906109d3565b1561053b5760405162461bcd60e51b81526004016100b3906109ec565b604051600090339047908381818185875af1925050503d806000811461057d576040519150601f19603f3d011682016040523d82523d6000602084013e610582565b606091505b50509050806105d35760405162461bcd60e51b815260206004820152601f60248201527f57455448526f757465723a20455448207472616e73666572206661696c65640060448201526064016100b3565b50505050565b7f00000000000000000000000000000000000000000000000000000000000000006001600160a01b031663d0e30db0836040518263ffffffff1660e01b81526004016000604051808303818588803b15801561063457600080fd5b505af1158015610648573d6000803e3d6000fd5b50506040516304c11f0360e31b81526001600160a01b038781166004830152602482018790527f0000000000000000000000000000000000000000000000000000000000000000169350632608f818925060440190506020604051808303816000875af11580156106bd573d6000803e3d6000fd5b505050506040513d601f19601f820116820180604052508101906106e191906109d3565b156106fe5760405162461bcd60e51b81526004016100b3906109ec565b505050565b604080516001600160a01b03848116602483015260448083018590528351808403909101815260649092018352602080830180516001600160e01b031663a9059cbb60e01b17905283518085019094528084527f5361666545524332303a206c6f772d6c6576656c2063616c6c206661696c6564908401526106fe92869291600091610793918516908490610813565b90508051600014806107b45750808060200190518101906107b49190610a32565b6106fe5760405162461bcd60e51b815260206004820152602a60248201527f5361666545524332303a204552433230206f7065726174696f6e20646964206e6044820152691bdd081cdd58d8d9595960b21b60648201526084016100b3565b6060610822848460008561082a565b949350505050565b60608247101561088b5760405162461bcd60e51b815260206004820152602660248201527f416464726573733a20696e73756666696369656e742062616c616e636520666f6044820152651c8818d85b1b60d21b60648201526084016100b3565b600080866001600160a01b031685876040516108a79190610a78565b60006040518083038185875af1925050503d80600081146108e4576040519150601f19603f3d011682016040523d82523d6000602084013e6108e9565b606091505b50915091506108fa87838387610905565b979650505050505050565b6060831561097457825160000361096d576001600160a01b0385163b61096d5760405162461bcd60e51b815260206004820152601d60248201527f416464726573733a2063616c6c20746f206e6f6e2d636f6e747261637400000060448201526064016100b3565b5081610822565b61082283838151156109895781518083602001fd5b8060405162461bcd60e51b81526004016100b39190610a94565b6000602082840312156109b557600080fd5b81356001600160a01b03811681146109cc57600080fd5b9392505050565b6000602082840312156109e557600080fd5b5051919050565b60208082526026908201527f57455448526f757465723a20726570617920626f72726f7720626568616c662060408201526519985a5b195960d21b606082015260800190565b600060208284031215610a4457600080fd5b815180151581146109cc57600080fd5b60005b83811015610a6f578181015183820152602001610a57565b50506000910152565b60008251610a8a818460208701610a54565b9190910192915050565b6020815260008251806020840152610ab3816040850160208701610a54565b601f01601f1916919091016040019291505056fea2646970667358221220efe105bccc4ded9bfa20c49d53b262bac738b7989690ff44376059f78202ce3464736f6c63430008140033",
  "devdoc": {
    "kind": "dev",
    "methods": {
      "constructor": {
        "params": {
          "_kToken": "The kToken contract",
          "_weth": "The WETH9 contract"
        }
      },
      "mint(address)": {
        "params": {
          "recipient": "The address to receive the kToken"
        }
      },
      "repayBorrowBehalf(address)": {
        "details": "all excess ETH will be returned to the sender",
        "params": {
          "borrower": "to repay on behalf of"
        }
      }
    },
    "version": 1
  },
  "userdoc": {
    "kind": "user",
    "methods": {
      "constructor": {
        "notice": "construct the WETH router"
      },
      "kToken()": {
        "notice": "The kToken contract"
      },
      "mint(address)": {
        "notice": "Deposit ETH into the Kawa protocol"
      },
      "repayBorrowBehalf(address)": {
        "notice": "repay borrow using raw ETH with the most up to date borrow balance"
      },
      "weth()": {
        "notice": "The WETH9 contract"
      }
    },
    "notice": "WETH router for depositing raw ETH into Kawa by wrapping into WETH then calling mint allows for a single transaction to remove ETH from Kawa",
    "version": 1
  },
  "storageLayout": {
    "storage": [],
    "types": null
  }
}