{
  "address": "0x92684176D8f7a0A54B63ef476af8e3d949a1e3E9",
  "abi": [
    {
      "inputs": [
        {
          "internalType": "uint256",
          "name": "baseRatePerYear",
          "type": "uint256"
        },
        {
          "internalType": "uint256",
          "name": "multiplierPerYear",
          "type": "uint256"
        },
        {
          "internalType": "uint256",
          "name": "jumpMultiplierPerYear",
          "type": "uint256"
        },
        {
          "internalType": "uint256",
          "name": "kink_",
          "type": "uint256"
        }
      ],
      "stateMutability": "nonpayable",
      "type": "constructor"
    },
    {
      "anonymous": false,
      "inputs": [
        {
          "indexed": false,
          "internalType": "uint256",
          "name": "baseRatePerTimestamp",
          "type": "uint256"
        },
        {
          "indexed": false,
          "internalType": "uint256",
          "name": "multiplierPerTimestamp",
          "type": "uint256"
        },
        {
          "indexed": false,
          "internalType": "uint256",
          "name": "jumpMultiplierPerTimestamp",
          "type": "uint256"
        },
        {
          "indexed": false,
          "internalType": "uint256",
          "name": "kink",
          "type": "uint256"
        }
      ],
      "name": "NewInterestParams",
      "type": "event"
    },
    {
      "inputs": [],
      "name": "baseRatePerTimestamp",
      "outputs": [
        {
          "internalType": "uint256",
          "name": "",
          "type": "uint256"
        }
      ],
      "stateMutability": "view",
      "type": "function"
    },
    {
      "inputs": [
        {
          "internalType": "uint256",
          "name": "cash",
          "type": "uint256"
        },
        {
          "internalType": "uint256",
          "name": "borrows",
          "type": "uint256"
        },
        {
          "internalType": "uint256",
          "name": "reserves",
          "type": "uint256"
        }
      ],
      "name": "getBorrowRate",
      "outputs": [
        {
          "internalType": "uint256",
          "name": "",
          "type": "uint256"
        }
      ],
      "stateMutability": "view",
      "type": "function"
    },
    {
      "inputs": [
        {
          "internalType": "uint256",
          "name": "cash",
          "type": "uint256"
        },
        {
          "internalType": "uint256",
          "name": "borrows",
          "type": "uint256"
        },
        {
          "internalType": "uint256",
          "name": "reserves",
          "type": "uint256"
        },
        {
          "internalType": "uint256",
          "name": "reserveFactorMantissa",
          "type": "uint256"
        }
      ],
      "name": "getSupplyRate",
      "outputs": [
        {
          "internalType": "uint256",
          "name": "",
          "type": "uint256"
        }
      ],
      "stateMutability": "view",
      "type": "function"
    },
    {
      "inputs": [],
      "name": "isInterestRateModel",
      "outputs": [
        {
          "internalType": "bool",
          "name": "",
          "type": "bool"
        }
      ],
      "stateMutability": "view",
      "type": "function"
    },
    {
      "inputs": [],
      "name": "jumpMultiplierPerTimestamp",
      "outputs": [
        {
          "internalType": "uint256",
          "name": "",
          "type": "uint256"
        }
      ],
      "stateMutability": "view",
      "type": "function"
    },
    {
      "inputs": [],
      "name": "kink",
      "outputs": [
        {
          "internalType": "uint256",
          "name": "",
          "type": "uint256"
        }
      ],
      "stateMutability": "view",
      "type": "function"
    },
    {
      "inputs": [],
      "name": "multiplierPerTimestamp",
      "outputs": [
        {
          "internalType": "uint256",
          "name": "",
          "type": "uint256"
        }
      ],
      "stateMutability": "view",
      "type": "function"
    },
    {
      "inputs": [],
      "name": "timestampsPerYear",
      "outputs": [
        {
          "internalType": "uint256",
          "name": "",
          "type": "uint256"
        }
      ],
      "stateMutability": "view",
      "type": "function"
    },
    {
      "inputs": [
        {
          "internalType": "uint256",
          "name": "cash",
          "type": "uint256"
        },
        {
          "internalType": "uint256",
          "name": "borrows",
          "type": "uint256"
        },
        {
          "internalType": "uint256",
          "name": "reserves",
          "type": "uint256"
        }
      ],
      "name": "utilizationRate",
      "outputs": [
        {
          "internalType": "uint256",
          "name": "",
          "type": "uint256"
        }
      ],
      "stateMutability": "pure",
      "type": "function"
    }
  ],
  "transactionHash": "0x593e364f95c68b9847320fc4759fc281260a27a36ca44337808ed79b30160d68",
  "args": [
    "20000000000000000",
    "100000000000000000",
    "1090000000000000000",
    "800000000000000000"
  ],
  "numDeployments": 1,
  "solcInputHash": "f7db05aaed8f2fad2107baa116d98cd3",
  "bytecode": "0x608060405234801561001057600080fd5b506040516108b33803806108b383398101604081905261002f91610200565b610051670de0b6b3a764000061004b6301e133808188846100f1565b90610181565b600155610070670de0b6b3a764000061004b6301e133808187846100f1565b60005561008f670de0b6b3a764000061004b6301e133808186846100f1565b60028190556003829055600154600054604080519283526020830191909152810191909152606081018290527f6960ab234c7ef4b0c9197100f5393cfcde7c453ac910a27bd2000aa1dd4c068d9060800160405180910390a1505050506102cb565b6000826000036101035750600061017b565b600061010f8385610236565b90508261011c858361025b565b146101785760405162461bcd60e51b815260206004820152602160248201527f536166654d6174683a206d756c7469706c69636174696f6e206f766572666c6f6044820152607760f81b60648201526084015b60405180910390fd5b90505b92915050565b600061017883836040518060400160405280601a81526020017f536166654d6174683a206469766973696f6e206279207a65726f0000000000008152506101c960201b60201c565b600081836101ea5760405162461bcd60e51b815260040161016f919061027d565b5060006101f7848661025b565b95945050505050565b6000806000806080858703121561021657600080fd5b505082516020840151604085015160609095015191969095509092509050565b808202811582820484141761017b57634e487b7160e01b600052601160045260246000fd5b60008261027857634e487b7160e01b600052601260045260246000fd5b500490565b600060208083528351808285015260005b818110156102aa5785810183015185820160400152820161028e565b506000604082860101526040601f19601f8301168501019250505092915050565b6105d9806102da6000396000f3fe608060405234801561001057600080fd5b50600436106100935760003560e01c806340bc0af41161006657806340bc0af4146100ea5780636c2df6a7146100f35780636e71e2d8146100fc578063b81688161461010f578063fd2da3391461012257600080fd5b80630c5748611461009857806315f24053146100b65780632191f92a146100c957806326c394f7146100e1575b600080fd5b6100a36301e1338081565b6040519081526020015b60405180910390f35b6100a36100c4366004610482565b61012b565b6100d1600181565b60405190151581526020016100ad565b6100a360025481565b6100a360015481565b6100a360005481565b6100a361010a366004610482565b6101f7565b6100a361011d3660046104ae565b61023a565b6100a360035481565b6000806101398585856101f7565b9050600354811161017f57610177600154610171670de0b6b3a764000061016b600054866102a790919063ffffffff16565b90610337565b90610379565b9150506101f0565b60006101aa600154610171670de0b6b3a764000061016b6000546003546102a790919063ffffffff16565b905060006101c3600354846103d890919063ffffffff16565b90506101ea82610171670de0b6b3a764000061016b600254866102a790919063ffffffff16565b93505050505b9392505050565b600082600003610209575060006101f0565b6102326102208361021a8787610379565b906103d8565b61016b85670de0b6b3a76400006102a7565b949350505050565b60008061024f670de0b6b3a7640000846103d8565b9050600061025e87878761012b565b90506000610278670de0b6b3a764000061016b84866102a7565b905061029b670de0b6b3a764000061016b836102958c8c8c6101f7565b906102a7565b98975050505050505050565b6000826000036102b957506000610331565b60006102c583856104f6565b9050826102d2858361050d565b1461032e5760405162461bcd60e51b815260206004820152602160248201527f536166654d6174683a206d756c7469706c69636174696f6e206f766572666c6f6044820152607760f81b60648201526084015b60405180910390fd5b90505b92915050565b600061032e83836040518060400160405280601a81526020017f536166654d6174683a206469766973696f6e206279207a65726f00000000000081525061041a565b600080610386838561052f565b90508381101561032e5760405162461bcd60e51b815260206004820152601b60248201527f536166654d6174683a206164646974696f6e206f766572666c6f7700000000006044820152606401610325565b600061032e83836040518060400160405280601f81526020017f536166654d6174683a207375627472616374696f6e20756e646572666c6f7700815250610451565b6000818361043b5760405162461bcd60e51b81526004016103259190610542565b506000610448848661050d565b95945050505050565b600081848411156104755760405162461bcd60e51b81526004016103259190610542565b5060006104488486610590565b60008060006060848603121561049757600080fd5b505081359360208301359350604090920135919050565b600080600080608085870312156104c457600080fd5b5050823594602084013594506040840135936060013592509050565b634e487b7160e01b600052601160045260246000fd5b8082028115828204841417610331576103316104e0565b60008261052a57634e487b7160e01b600052601260045260246000fd5b500490565b80820180821115610331576103316104e0565b600060208083528351808285015260005b8181101561056f57858101830151858201604001528201610553565b506000604082860101526040601f19601f8301168501019250505092915050565b81810381811115610331576103316104e056fea2646970667358221220e0bf4daa6dd4040459d1ff4af96d16bb7ed2f6440e541f92e47819db5420944b64736f6c63430008140033",
  "devdoc": {
    "author": "CompoundKawa",
    "kind": "dev",
    "methods": {
      "constructor": {
        "params": {
          "baseRatePerYear": "The approximate target base APR, as a mantissa (scaled by 1e18)",
          "jumpMultiplierPerYear": "The multiplierPerTimestamp after hitting a specified utilization point",
          "kink_": "The utilization point at which the jump multiplier is applied",
          "multiplierPerYear": "The rate of increase in interest rate wrt utilization (scaled by 1e18)"
        }
      },
      "getBorrowRate(uint256,uint256,uint256)": {
        "params": {
          "borrows": "The amount of borrows in the market",
          "cash": "The amount of cash in the market",
          "reserves": "The amount of reserves in the market"
        },
        "returns": {
          "_0": "The borrow rate percentage per timestamp as a mantissa (scaled by 1e18)"
        }
      },
      "getSupplyRate(uint256,uint256,uint256,uint256)": {
        "params": {
          "borrows": "The amount of borrows in the market",
          "cash": "The amount of cash in the market",
          "reserveFactorMantissa": "The current reserve factor for the market",
          "reserves": "The amount of reserves in the market"
        },
        "returns": {
          "_0": "The supply rate percentage per timestamp as a mantissa (scaled by 1e18)"
        }
      },
      "utilizationRate(uint256,uint256,uint256)": {
        "params": {
          "borrows": "The amount of borrows in the market",
          "cash": "The amount of cash in the market",
          "reserves": "The amount of reserves in the market (currently unused)"
        },
        "returns": {
          "_0": "The utilization rate as a mantissa between [0, 1e18]"
        }
      }
    },
    "title": "Kawa's JumpRateModel Contract",
    "version": 1
  },
  "userdoc": {
    "kind": "user",
    "methods": {
      "baseRatePerTimestamp()": {
        "notice": "The base interest rate which is the y-intercept when utilization rate is 0"
      },
      "constructor": {
        "notice": "Construct an interest rate model"
      },
      "getBorrowRate(uint256,uint256,uint256)": {
        "notice": "Calculates the current borrow rate per timestamp, with the error code expected by the market"
      },
      "getSupplyRate(uint256,uint256,uint256,uint256)": {
        "notice": "Calculates the current supply rate per timestamp"
      },
      "isInterestRateModel()": {
        "notice": "Indicator that this is an InterestRateModel contract (for inspection)"
      },
      "jumpMultiplierPerTimestamp()": {
        "notice": "The multiplierPerTimestamp after hitting a specified utilization point"
      },
      "kink()": {
        "notice": "The utilization point at which the jump multiplier is applied"
      },
      "multiplierPerTimestamp()": {
        "notice": "The multiplier of utilization rate that gives the slope of the interest rate"
      },
      "timestampsPerYear()": {
        "notice": "The approximate number of timestamps per year that is assumed by the interest rate model"
      },
      "utilizationRate(uint256,uint256,uint256)": {
        "notice": "Calculates the utilization rate of the market: `borrows / (cash + borrows - reserves)`"
      }
    },
    "version": 1
  },
  "storageLayout": {
    "storage": [
      {
        "astId": 20315,
        "contract": "contracts/irm/JumpRateModel.sol:JumpRateModel",
        "label": "multiplierPerTimestamp",
        "offset": 0,
        "slot": "0",
        "type": "t_uint256"
      },
      {
        "astId": 20318,
        "contract": "contracts/irm/JumpRateModel.sol:JumpRateModel",
        "label": "baseRatePerTimestamp",
        "offset": 0,
        "slot": "1",
        "type": "t_uint256"
      },
      {
        "astId": 20321,
        "contract": "contracts/irm/JumpRateModel.sol:JumpRateModel",
        "label": "jumpMultiplierPerTimestamp",
        "offset": 0,
        "slot": "2",
        "type": "t_uint256"
      },
      {
        "astId": 20324,
        "contract": "contracts/irm/JumpRateModel.sol:JumpRateModel",
        "label": "kink",
        "offset": 0,
        "slot": "3",
        "type": "t_uint256"
      }
    ],
    "types": {
      "t_uint256": {
        "encoding": "inplace",
        "label": "uint256",
        "numberOfBytes": "32"
      }
    }
  }
}