{
  "address": "0xd022E1CAA86Ea77356e91D6767272954FeFc790c",
  "abi": [
    {
      "inputs": [],
      "stateMutability": "nonpayable",
      "type": "constructor"
    },
    {
      "anonymous": false,
      "inputs": [
        {
          "indexed": false,
          "internalType": "uint256",
          "name": "cashPrior",
          "type": "uint256"
        },
        {
          "indexed": false,
          "internalType": "uint256",
          "name": "interestAccumulated",
          "type": "uint256"
        },
        {
          "indexed": false,
          "internalType": "uint256",
          "name": "borrowIndex",
          "type": "uint256"
        },
        {
          "indexed": false,
          "internalType": "uint256",
          "name": "totalBorrows",
          "type": "uint256"
        }
      ],
      "name": "AccrueInterest",
      "type": "event"
    },
    {
      "anonymous": false,
      "inputs": [
        {
          "indexed": true,
          "internalType": "address",
          "name": "owner",
          "type": "address"
        },
        {
          "indexed": true,
          "internalType": "address",
          "name": "spender",
          "type": "address"
        },
        {
          "indexed": false,
          "internalType": "uint256",
          "name": "amount",
          "type": "uint256"
        }
      ],
      "name": "Approval",
      "type": "event"
    },
    {
      "anonymous": false,
      "inputs": [
        {
          "indexed": false,
          "internalType": "address",
          "name": "borrower",
          "type": "address"
        },
        {
          "indexed": false,
          "internalType": "uint256",
          "name": "borrowAmount",
          "type": "uint256"
        },
        {
          "indexed": false,
          "internalType": "uint256",
          "name": "accountBorrows",
          "type": "uint256"
        },
        {
          "indexed": false,
          "internalType": "uint256",
          "name": "totalBorrows",
          "type": "uint256"
        }
      ],
      "name": "Borrow",
      "type": "event"
    },
    {
      "anonymous": false,
      "inputs": [
        {
          "indexed": false,
          "internalType": "uint256",
          "name": "error",
          "type": "uint256"
        },
        {
          "indexed": false,
          "internalType": "uint256",
          "name": "info",
          "type": "uint256"
        },
        {
          "indexed": false,
          "internalType": "uint256",
          "name": "detail",
          "type": "uint256"
        }
      ],
      "name": "Failure",
      "type": "event"
    },
    {
      "anonymous": false,
      "inputs": [
        {
          "indexed": false,
          "internalType": "address",
          "name": "liquidator",
          "type": "address"
        },
        {
          "indexed": false,
          "internalType": "address",
          "name": "borrower",
          "type": "address"
        },
        {
          "indexed": false,
          "internalType": "uint256",
          "name": "repayAmount",
          "type": "uint256"
        },
        {
          "indexed": false,
          "internalType": "address",
          "name": "kTokenCollateral",
          "type": "address"
        },
        {
          "indexed": false,
          "internalType": "uint256",
          "name": "seizeTokens",
          "type": "uint256"
        }
      ],
      "name": "LiquidateBorrow",
      "type": "event"
    },
    {
      "anonymous": false,
      "inputs": [
        {
          "indexed": false,
          "internalType": "address",
          "name": "minter",
          "type": "address"
        },
        {
          "indexed": false,
          "internalType": "uint256",
          "name": "mintAmount",
          "type": "uint256"
        },
        {
          "indexed": false,
          "internalType": "uint256",
          "name": "mintTokens",
          "type": "uint256"
        }
      ],
      "name": "Mint",
      "type": "event"
    },
    {
      "anonymous": false,
      "inputs": [
        {
          "indexed": false,
          "internalType": "address",
          "name": "oldAdmin",
          "type": "address"
        },
        {
          "indexed": false,
          "internalType": "address",
          "name": "newAdmin",
          "type": "address"
        }
      ],
      "name": "NewAdmin",
      "type": "event"
    },
    {
      "anonymous": false,
      "inputs": [
        {
          "indexed": false,
          "internalType": "contract ComptrollerInterface",
          "name": "oldComptroller",
          "type": "address"
        },
        {
          "indexed": false,
          "internalType": "contract ComptrollerInterface",
          "name": "newComptroller",
          "type": "address"
        }
      ],
      "name": "NewComptroller",
      "type": "event"
    },
    {
      "anonymous": false,
      "inputs": [
        {
          "indexed": false,
          "internalType": "contract InterestRateModel",
          "name": "oldInterestRateModel",
          "type": "address"
        },
        {
          "indexed": false,
          "internalType": "contract InterestRateModel",
          "name": "newInterestRateModel",
          "type": "address"
        }
      ],
      "name": "NewMarketInterestRateModel",
      "type": "event"
    },
    {
      "anonymous": false,
      "inputs": [
        {
          "indexed": false,
          "internalType": "address",
          "name": "oldMessageHub",
          "type": "address"
        },
        {
          "indexed": false,
          "internalType": "address",
          "name": "messageHub",
          "type": "address"
        }
      ],
      "name": "NewMessageHub",
      "type": "event"
    },
    {
      "anonymous": false,
      "inputs": [
        {
          "indexed": false,
          "internalType": "address",
          "name": "oldPendingAdmin",
          "type": "address"
        },
        {
          "indexed": false,
          "internalType": "address",
          "name": "newPendingAdmin",
          "type": "address"
        }
      ],
      "name": "NewPendingAdmin",
      "type": "event"
    },
    {
      "anonymous": false,
      "inputs": [
        {
          "indexed": false,
          "internalType": "uint256",
          "name": "oldProtocolSeizeShareMantissa",
          "type": "uint256"
        },
        {
          "indexed": false,
          "internalType": "uint256",
          "name": "newProtocolSeizeShareMantissa",
          "type": "uint256"
        }
      ],
      "name": "NewProtocolSeizeShare",
      "type": "event"
    },
    {
      "anonymous": false,
      "inputs": [
        {
          "indexed": false,
          "internalType": "uint256",
          "name": "oldReserveFactorMantissa",
          "type": "uint256"
        },
        {
          "indexed": false,
          "internalType": "uint256",
          "name": "newReserveFactorMantissa",
          "type": "uint256"
        }
      ],
      "name": "NewReserveFactor",
      "type": "event"
    },
    {
      "anonymous": false,
      "inputs": [
        {
          "indexed": false,
          "internalType": "address",
          "name": "redeemer",
          "type": "address"
        },
        {
          "indexed": false,
          "internalType": "uint256",
          "name": "redeemAmount",
          "type": "uint256"
        },
        {
          "indexed": false,
          "internalType": "uint256",
          "name": "redeemTokens",
          "type": "uint256"
        }
      ],
      "name": "Redeem",
      "type": "event"
    },
    {
      "anonymous": false,
      "inputs": [
        {
          "indexed": false,
          "internalType": "address",
          "name": "payer",
          "type": "address"
        },
        {
          "indexed": false,
          "internalType": "address",
          "name": "borrower",
          "type": "address"
        },
        {
          "indexed": false,
          "internalType": "uint256",
          "name": "repayAmount",
          "type": "uint256"
        },
        {
          "indexed": false,
          "internalType": "uint256",
          "name": "accountBorrows",
          "type": "uint256"
        },
        {
          "indexed": false,
          "internalType": "uint256",
          "name": "totalBorrows",
          "type": "uint256"
        }
      ],
      "name": "RepayBorrow",
      "type": "event"
    },
    {
      "anonymous": false,
      "inputs": [
        {
          "indexed": false,
          "internalType": "address",
          "name": "benefactor",
          "type": "address"
        },
        {
          "indexed": false,
          "internalType": "uint256",
          "name": "addAmount",
          "type": "uint256"
        },
        {
          "indexed": false,
          "internalType": "uint256",
          "name": "newTotalReserves",
          "type": "uint256"
        }
      ],
      "name": "ReservesAdded",
      "type": "event"
    },
    {
      "anonymous": false,
      "inputs": [
        {
          "indexed": false,
          "internalType": "address",
          "name": "admin",
          "type": "address"
        },
        {
          "indexed": false,
          "internalType": "uint256",
          "name": "reduceAmount",
          "type": "uint256"
        },
        {
          "indexed": false,
          "internalType": "uint256",
          "name": "newTotalReserves",
          "type": "uint256"
        }
      ],
      "name": "ReservesReduced",
      "type": "event"
    },
    {
      "anonymous": false,
      "inputs": [
        {
          "indexed": true,
          "internalType": "address",
          "name": "from",
          "type": "address"
        },
        {
          "indexed": true,
          "internalType": "address",
          "name": "to",
          "type": "address"
        },
        {
          "indexed": false,
          "internalType": "uint256",
          "name": "amount",
          "type": "uint256"
        }
      ],
      "name": "Transfer",
      "type": "event"
    },
    {
      "inputs": [],
      "name": "_acceptAdmin",
      "outputs": [
        {
          "internalType": "uint256",
          "name": "",
          "type": "uint256"
        }
      ],
      "stateMutability": "nonpayable",
      "type": "function"
    },
    {
      "inputs": [
        {
          "internalType": "uint256",
          "name": "addAmount",
          "type": "uint256"
        }
      ],
      "name": "_addReserves",
      "outputs": [
        {
          "internalType": "uint256",
          "name": "",
          "type": "uint256"
        }
      ],
      "stateMutability": "nonpayable",
      "type": "function"
    },
    {
      "inputs": [
        {
          "internalType": "bytes",
          "name": "data",
          "type": "bytes"
        }
      ],
      "name": "_becomeImplementation",
      "outputs": [],
      "stateMutability": "nonpayable",
      "type": "function"
    },
    {
      "inputs": [
        {
          "internalType": "uint256",
          "name": "reduceAmount",
          "type": "uint256"
        }
      ],
      "name": "_reduceReserves",
      "outputs": [
        {
          "internalType": "uint256",
          "name": "",
          "type": "uint256"
        }
      ],
      "stateMutability": "nonpayable",
      "type": "function"
    },
    {
      "inputs": [],
      "name": "_resignImplementation",
      "outputs": [],
      "stateMutability": "nonpayable",
      "type": "function"
    },
    {
      "inputs": [
        {
          "internalType": "contract ComptrollerInterface",
          "name": "newComptroller",
          "type": "address"
        }
      ],
      "name": "_setComptroller",
      "outputs": [
        {
          "internalType": "uint256",
          "name": "",
          "type": "uint256"
        }
      ],
      "stateMutability": "nonpayable",
      "type": "function"
    },
    {
      "inputs": [
        {
          "internalType": "contract InterestRateModel",
          "name": "newInterestRateModel",
          "type": "address"
        }
      ],
      "name": "_setInterestRateModel",
      "outputs": [
        {
          "internalType": "uint256",
          "name": "",
          "type": "uint256"
        }
      ],
      "stateMutability": "nonpayable",
      "type": "function"
    },
    {
      "inputs": [
        {
          "internalType": "address",
          "name": "newMessageHub",
          "type": "address"
        }
      ],
      "name": "_setMessageHub",
      "outputs": [],
      "stateMutability": "nonpayable",
      "type": "function"
    },
    {
      "inputs": [
        {
          "internalType": "address payable",
          "name": "newPendingAdmin",
          "type": "address"
        }
      ],
      "name": "_setPendingAdmin",
      "outputs": [
        {
          "internalType": "uint256",
          "name": "",
          "type": "uint256"
        }
      ],
      "stateMutability": "nonpayable",
      "type": "function"
    },
    {
      "inputs": [
        {
          "internalType": "uint256",
          "name": "newProtocolSeizeShareMantissa",
          "type": "uint256"
        }
      ],
      "name": "_setProtocolSeizeShare",
      "outputs": [
        {
          "internalType": "uint256",
          "name": "",
          "type": "uint256"
        }
      ],
      "stateMutability": "nonpayable",
      "type": "function"
    },
    {
      "inputs": [
        {
          "internalType": "uint256",
          "name": "newReserveFactorMantissa",
          "type": "uint256"
        }
      ],
      "name": "_setReserveFactor",
      "outputs": [
        {
          "internalType": "uint256",
          "name": "",
          "type": "uint256"
        }
      ],
      "stateMutability": "nonpayable",
      "type": "function"
    },
    {
      "inputs": [],
      "name": "accrualBlockTimestamp",
      "outputs": [
        {
          "internalType": "uint256",
          "name": "",
          "type": "uint256"
        }
      ],
      "stateMutability": "view",
      "type": "function"
    },
    {
      "inputs": [],
      "name": "accrueInterest",
      "outputs": [
        {
          "internalType": "uint256",
          "name": "",
          "type": "uint256"
        }
      ],
      "stateMutability": "nonpayable",
      "type": "function"
    },
    {
      "inputs": [],
      "name": "admin",
      "outputs": [
        {
          "internalType": "address payable",
          "name": "",
          "type": "address"
        }
      ],
      "stateMutability": "view",
      "type": "function"
    },
    {
      "inputs": [
        {
          "internalType": "address",
          "name": "owner",
          "type": "address"
        },
        {
          "internalType": "address",
          "name": "spender",
          "type": "address"
        }
      ],
      "name": "allowance",
      "outputs": [
        {
          "internalType": "uint256",
          "name": "",
          "type": "uint256"
        }
      ],
      "stateMutability": "view",
      "type": "function"
    },
    {
      "inputs": [
        {
          "internalType": "address",
          "name": "spender",
          "type": "address"
        },
        {
          "internalType": "uint256",
          "name": "amount",
          "type": "uint256"
        }
      ],
      "name": "approve",
      "outputs": [
        {
          "internalType": "bool",
          "name": "",
          "type": "bool"
        }
      ],
      "stateMutability": "nonpayable",
      "type": "function"
    },
    {
      "inputs": [
        {
          "internalType": "address",
          "name": "owner",
          "type": "address"
        }
      ],
      "name": "balanceOf",
      "outputs": [
        {
          "internalType": "uint256",
          "name": "",
          "type": "uint256"
        }
      ],
      "stateMutability": "view",
      "type": "function"
    },
    {
      "inputs": [
        {
          "internalType": "address",
          "name": "owner",
          "type": "address"
        }
      ],
      "name": "balanceOfUnderlying",
      "outputs": [
        {
          "internalType": "uint256",
          "name": "",
          "type": "uint256"
        }
      ],
      "stateMutability": "nonpayable",
      "type": "function"
    },
    {
      "inputs": [
        {
          "internalType": "uint256",
          "name": "borrowAmount",
          "type": "uint256"
        }
      ],
      "name": "borrow",
      "outputs": [
        {
          "internalType": "uint256",
          "name": "",
          "type": "uint256"
        }
      ],
      "stateMutability": "payable",
      "type": "function"
    },
    {
      "inputs": [
        {
          "internalType": "address",
          "name": "account",
          "type": "address"
        }
      ],
      "name": "borrowBalanceCurrent",
      "outputs": [
        {
          "internalType": "uint256",
          "name": "",
          "type": "uint256"
        }
      ],
      "stateMutability": "nonpayable",
      "type": "function"
    },
    {
      "inputs": [
        {
          "internalType": "address",
          "name": "account",
          "type": "address"
        }
      ],
      "name": "borrowBalanceStored",
      "outputs": [
        {
          "internalType": "uint256",
          "name": "",
          "type": "uint256"
        }
      ],
      "stateMutability": "view",
      "type": "function"
    },
    {
      "inputs": [],
      "name": "borrowIndex",
      "outputs": [
        {
          "internalType": "uint256",
          "name": "",
          "type": "uint256"
        }
      ],
      "stateMutability": "view",
      "type": "function"
    },
    {
      "inputs": [],
      "name": "borrowRatePerTimestamp",
      "outputs": [
        {
          "internalType": "uint256",
          "name": "",
          "type": "uint256"
        }
      ],
      "stateMutability": "view",
      "type": "function"
    },
    {
      "inputs": [],
      "name": "comptroller",
      "outputs": [
        {
          "internalType": "contract ComptrollerInterface",
          "name": "",
          "type": "address"
        }
      ],
      "stateMutability": "view",
      "type": "function"
    },
    {
      "inputs": [],
      "name": "decimals",
      "outputs": [
        {
          "internalType": "uint8",
          "name": "",
          "type": "uint8"
        }
      ],
      "stateMutability": "view",
      "type": "function"
    },
    {
      "inputs": [],
      "name": "exchangeRateCurrent",
      "outputs": [
        {
          "internalType": "uint256",
          "name": "",
          "type": "uint256"
        }
      ],
      "stateMutability": "nonpayable",
      "type": "function"
    },
    {
      "inputs": [],
      "name": "exchangeRateStored",
      "outputs": [
        {
          "internalType": "uint256",
          "name": "",
          "type": "uint256"
        }
      ],
      "stateMutability": "view",
      "type": "function"
    },
    {
      "inputs": [
        {
          "internalType": "address",
          "name": "account",
          "type": "address"
        }
      ],
      "name": "getAccountSnapshot",
      "outputs": [
        {
          "internalType": "uint256",
          "name": "",
          "type": "uint256"
        },
        {
          "internalType": "uint256",
          "name": "",
          "type": "uint256"
        },
        {
          "internalType": "uint256",
          "name": "",
          "type": "uint256"
        },
        {
          "internalType": "uint256",
          "name": "",
          "type": "uint256"
        }
      ],
      "stateMutability": "view",
      "type": "function"
    },
    {
      "inputs": [],
      "name": "getCash",
      "outputs": [
        {
          "internalType": "uint256",
          "name": "",
          "type": "uint256"
        }
      ],
      "stateMutability": "view",
      "type": "function"
    },
    {
      "inputs": [],
      "name": "implementation",
      "outputs": [
        {
          "internalType": "address",
          "name": "",
          "type": "address"
        }
      ],
      "stateMutability": "view",
      "type": "function"
    },
    {
      "inputs": [
        {
          "internalType": "contract ComptrollerInterface",
          "name": "comptroller_",
          "type": "address"
        },
        {
          "internalType": "contract InterestRateModel",
          "name": "interestRateModel_",
          "type": "address"
        },
        {
          "internalType": "uint256",
          "name": "initialExchangeRateMantissa_",
          "type": "uint256"
        },
        {
          "internalType": "string",
          "name": "name_",
          "type": "string"
        },
        {
          "internalType": "string",
          "name": "symbol_",
          "type": "string"
        },
        {
          "internalType": "uint8",
          "name": "decimals_",
          "type": "uint8"
        }
      ],
      "name": "initialize",
      "outputs": [],
      "stateMutability": "nonpayable",
      "type": "function"
    },
    {
      "inputs": [
        {
          "internalType": "address",
          "name": "underlying_",
          "type": "address"
        },
        {
          "internalType": "contract ComptrollerInterface",
          "name": "comptroller_",
          "type": "address"
        },
        {
          "internalType": "contract InterestRateModel",
          "name": "interestRateModel_",
          "type": "address"
        },
        {
          "internalType": "uint256",
          "name": "initialExchangeRateMantissa_",
          "type": "uint256"
        },
        {
          "internalType": "string",
          "name": "name_",
          "type": "string"
        },
        {
          "internalType": "string",
          "name": "symbol_",
          "type": "string"
        },
        {
          "internalType": "uint8",
          "name": "decimals_",
          "type": "uint8"
        },
        {
          "internalType": "address",
          "name": "messageHub_",
          "type": "address"
        }
      ],
      "name": "initialize",
      "outputs": [],
      "stateMutability": "nonpayable",
      "type": "function"
    },
    {
      "inputs": [],
      "name": "interestRateModel",
      "outputs": [
        {
          "internalType": "contract InterestRateModel",
          "name": "",
          "type": "address"
        }
      ],
      "stateMutability": "view",
      "type": "function"
    },
    {
      "inputs": [],
      "name": "isKToken",
      "outputs": [
        {
          "internalType": "bool",
          "name": "",
          "type": "bool"
        }
      ],
      "stateMutability": "view",
      "type": "function"
    },
    {
      "inputs": [
        {
          "internalType": "address",
          "name": "liquidator",
          "type": "address"
        },
        {
          "internalType": "address",
          "name": "borrower",
          "type": "address"
        },
        {
          "internalType": "uint256",
          "name": "repayAmount",
          "type": "uint256"
        },
        {
          "internalType": "contract KTokenInterface",
          "name": "kTokenCollateral",
          "type": "address"
        }
      ],
      "name": "liquidateBorrow",
      "outputs": [
        {
          "internalType": "uint256",
          "name": "",
          "type": "uint256"
        }
      ],
      "stateMutability": "nonpayable",
      "type": "function"
    },
    {
      "inputs": [],
      "name": "messageHub",
      "outputs": [
        {
          "internalType": "address",
          "name": "",
          "type": "address"
        }
      ],
      "stateMutability": "view",
      "type": "function"
    },
    {
      "inputs": [
        {
          "internalType": "address",
          "name": "minter",
          "type": "address"
        },
        {
          "internalType": "uint256",
          "name": "mintAmount",
          "type": "uint256"
        }
      ],
      "name": "mint",
      "outputs": [
        {
          "internalType": "uint256",
          "name": "",
          "type": "uint256"
        }
      ],
      "stateMutability": "nonpayable",
      "type": "function"
    },
    {
      "inputs": [],
      "name": "name",
      "outputs": [
        {
          "internalType": "string",
          "name": "",
          "type": "string"
        }
      ],
      "stateMutability": "view",
      "type": "function"
    },
    {
      "inputs": [],
      "name": "pendingAdmin",
      "outputs": [
        {
          "internalType": "address payable",
          "name": "",
          "type": "address"
        }
      ],
      "stateMutability": "view",
      "type": "function"
    },
    {
      "inputs": [],
      "name": "protocolSeizeShareMantissa",
      "outputs": [
        {
          "internalType": "uint256",
          "name": "",
          "type": "uint256"
        }
      ],
      "stateMutability": "view",
      "type": "function"
    },
    {
      "inputs": [
        {
          "internalType": "uint256",
          "name": "redeemTokens",
          "type": "uint256"
        }
      ],
      "name": "redeem",
      "outputs": [
        {
          "internalType": "uint256",
          "name": "",
          "type": "uint256"
        }
      ],
      "stateMutability": "payable",
      "type": "function"
    },
    {
      "inputs": [
        {
          "internalType": "uint256",
          "name": "redeemAmount",
          "type": "uint256"
        }
      ],
      "name": "redeemUnderlying",
      "outputs": [
        {
          "internalType": "uint256",
          "name": "",
          "type": "uint256"
        }
      ],
      "stateMutability": "payable",
      "type": "function"
    },
    {
      "inputs": [
        {
          "internalType": "address",
          "name": "payer",
          "type": "address"
        },
        {
          "internalType": "uint256",
          "name": "repayAmount",
          "type": "uint256"
        }
      ],
      "name": "repayBorrow",
      "outputs": [
        {
          "internalType": "uint256",
          "name": "",
          "type": "uint256"
        }
      ],
      "stateMutability": "nonpayable",
      "type": "function"
    },
    {
      "inputs": [
        {
          "internalType": "address",
          "name": "payer",
          "type": "address"
        },
        {
          "internalType": "address",
          "name": "borrower",
          "type": "address"
        },
        {
          "internalType": "uint256",
          "name": "repayAmount",
          "type": "uint256"
        }
      ],
      "name": "repayBorrowBehalf",
      "outputs": [
        {
          "internalType": "uint256",
          "name": "",
          "type": "uint256"
        }
      ],
      "stateMutability": "nonpayable",
      "type": "function"
    },
    {
      "inputs": [],
      "name": "reserveFactorMantissa",
      "outputs": [
        {
          "internalType": "uint256",
          "name": "",
          "type": "uint256"
        }
      ],
      "stateMutability": "view",
      "type": "function"
    },
    {
      "inputs": [
        {
          "internalType": "address",
          "name": "liquidator",
          "type": "address"
        },
        {
          "internalType": "address",
          "name": "borrower",
          "type": "address"
        },
        {
          "internalType": "uint256",
          "name": "seizeTokens",
          "type": "uint256"
        }
      ],
      "name": "seize",
      "outputs": [
        {
          "internalType": "uint256",
          "name": "",
          "type": "uint256"
        }
      ],
      "stateMutability": "nonpayable",
      "type": "function"
    },
    {
      "inputs": [],
      "name": "supplyRatePerTimestamp",
      "outputs": [
        {
          "internalType": "uint256",
          "name": "",
          "type": "uint256"
        }
      ],
      "stateMutability": "view",
      "type": "function"
    },
    {
      "inputs": [
        {
          "internalType": "contract EIP20NonStandardInterface",
          "name": "token",
          "type": "address"
        }
      ],
      "name": "sweepToken",
      "outputs": [],
      "stateMutability": "nonpayable",
      "type": "function"
    },
    {
      "inputs": [],
      "name": "symbol",
      "outputs": [
        {
          "internalType": "string",
          "name": "",
          "type": "string"
        }
      ],
      "stateMutability": "view",
      "type": "function"
    },
    {
      "inputs": [],
      "name": "totalBorrows",
      "outputs": [
        {
          "internalType": "uint256",
          "name": "",
          "type": "uint256"
        }
      ],
      "stateMutability": "view",
      "type": "function"
    },
    {
      "inputs": [],
      "name": "totalBorrowsCurrent",
      "outputs": [
        {
          "internalType": "uint256",
          "name": "",
          "type": "uint256"
        }
      ],
      "stateMutability": "nonpayable",
      "type": "function"
    },
    {
      "inputs": [],
      "name": "totalReserves",
      "outputs": [
        {
          "internalType": "uint256",
          "name": "",
          "type": "uint256"
        }
      ],
      "stateMutability": "view",
      "type": "function"
    },
    {
      "inputs": [],
      "name": "totalSupply",
      "outputs": [
        {
          "internalType": "uint256",
          "name": "",
          "type": "uint256"
        }
      ],
      "stateMutability": "view",
      "type": "function"
    },
    {
      "inputs": [
        {
          "internalType": "address",
          "name": "dst",
          "type": "address"
        },
        {
          "internalType": "uint256",
          "name": "amount",
          "type": "uint256"
        }
      ],
      "name": "transfer",
      "outputs": [
        {
          "internalType": "bool",
          "name": "",
          "type": "bool"
        }
      ],
      "stateMutability": "nonpayable",
      "type": "function"
    },
    {
      "inputs": [
        {
          "internalType": "address",
          "name": "src",
          "type": "address"
        },
        {
          "internalType": "address",
          "name": "dst",
          "type": "address"
        },
        {
          "internalType": "uint256",
          "name": "amount",
          "type": "uint256"
        }
      ],
      "name": "transferFrom",
      "outputs": [
        {
          "internalType": "bool",
          "name": "",
          "type": "bool"
        }
      ],
      "stateMutability": "nonpayable",
      "type": "function"
    },
    {
      "inputs": [],
      "name": "underlying",
      "outputs": [
        {
          "internalType": "address",
          "name": "",
          "type": "address"
        }
      ],
      "stateMutability": "view",
      "type": "function"
    }
  ],
  "transactionHash": "0xebb8dffcd9edbfa44930c9fabb047d318c029fc9381529fcd9d32be594d450bc",
  "args": [],
  "numDeployments": 1,
  "solcInputHash": "793c830b20ac64feae3c614cbe433c41",
  "bytecode": "0x608060405234801561001057600080fd5b506158ec80620000216000396000f3fe60806040526004361061036b5760003560e01c806373acee98116101c6578063bd6d894d116100f7578063db006a7511610095578063f2b3abbd1161006f578063f2b3abbd146109b5578063f3fdb15a146109d5578063f851a440146109f5578063fca7820b14610a1a57600080fd5b8063db006a7514610947578063dd62ed3e1461095a578063e9c714f2146109a057600080fd5b8063cd91801c116100d1578063cd91801c146108e7578063cfa99201146108fc578063d3bd2c7214610912578063d4af8de21461092757600080fd5b8063bd6d894d1461087f578063c37f68e214610894578063c5ebeaec146108d457600080fd5b806399d8c1b411610164578063aa5af0fd1161013e578063aa5af0fd14610809578063abdb5ea81461081f578063b2a02ff11461083f578063b71d1a0c1461085f57600080fd5b806399d8c1b4146107b4578063a6afed95146107d4578063a9059cbb146107e957600080fd5b80638a979cd6116101a05780638a979cd6146107495780638f840ddd1461076957806395d89b411461077f57806395dd91931461079457600080fd5b806373acee98146107015780638303084614610716578063852a12e31461073657600080fd5b80633e941010116102a05780635c60da1b1161023e57806364fd70781161021857806364fd7078146106755780636752e702146106955780636f307dc3146106ab57806370a08231146106cb57600080fd5b80635c60da1b146106155780635fe3b56714610635578063601a0bf11461065557600080fd5b806347bd37181161027a57806347bd37181461059f5780634847655d146105b557806356e67728146105d557806359086a5e146105f557600080fd5b80633e9410101461053f57806340c10f191461055f5780634576b5db1461057f57600080fd5b80631be195601161030d57806329d9109c116102e757806329d9109c146104c9578063313ce567146104de5780633af9e6691461050a5780633b1d21a21461052a57600080fd5b80631be195601461045157806323b872dd14610471578063267822471461049157600080fd5b8063173b990411610349578063173b9904146103e257806317bfdfbc1461040657806318160ddd14610426578063182df0f51461043c57600080fd5b806306fdde0314610370578063095ea7b31461039b578063153ab505146103cb575b600080fd5b34801561037c57600080fd5b50610385610a3a565b604051610392919061519e565b60405180910390f35b3480156103a757600080fd5b506103bb6103b6366004615201565b610ac8565b6040519015158152602001610392565b3480156103d757600080fd5b506103e0610b38565b005b3480156103ee57600080fd5b506103f860085481565b604051908152602001610392565b34801561041257600080fd5b506103f861042136600461522d565b610bb4565b34801561043257600080fd5b506103f8600d5481565b34801561044857600080fd5b506103f8610c24565b34801561045d57600080fd5b506103e061046c36600461522d565b610cb5565b34801561047d57600080fd5b506103bb61048c36600461524a565b610e81565b34801561049d57600080fd5b506004546104b1906001600160a01b031681565b6040516001600160a01b039091168152602001610392565b3480156104d557600080fd5b506103bb600181565b3480156104ea57600080fd5b506003546104f89060ff1681565b60405160ff9091168152602001610392565b34801561051657600080fd5b506103f861052536600461522d565b610ed1565b34801561053657600080fd5b506103f8610f81565b34801561054b57600080fd5b506103f861055a36600461528b565b610f90565b34801561056b57600080fd5b506103f861057a366004615201565b610f9b565b34801561058b57600080fd5b506103f861059a36600461522d565b610fdd565b3480156105ab57600080fd5b506103f8600b5481565b3480156105c157600080fd5b506013546104b1906001600160a01b031681565b3480156105e157600080fd5b506103e06105f0366004615330565b611123565b34801561060157600080fd5b506103f861061036600461524a565b61119b565b34801561062157600080fd5b506014546104b1906001600160a01b031681565b34801561064157600080fd5b506005546104b1906001600160a01b031681565b34801561066157600080fd5b506103f861067036600461528b565b6111df565b34801561068157600080fd5b506103f8610690366004615379565b61125e565b3480156106a157600080fd5b506103f860115481565b3480156106b757600080fd5b506012546104b1906001600160a01b031681565b3480156106d757600080fd5b506103f86106e636600461522d565b6001600160a01b03166000908152600e602052604090205490565b34801561070d57600080fd5b506103f86112a4565b34801561072257600080fd5b506103f861073136600461528b565b61130a565b6103f861074436600461528b565b61136c565b34801561075557600080fd5b506103e061076436600461522d565b611377565b34801561077557600080fd5b506103f8600c5481565b34801561078b57600080fd5b50610385611407565b3480156107a057600080fd5b506103f86107af36600461522d565b611414565b3480156107c057600080fd5b506103e06107cf366004615402565b6114ae565b3480156107e057600080fd5b506103f86116fb565b3480156107f557600080fd5b506103bb610804366004615201565b611a6c565b34801561081557600080fd5b506103f8600a5481565b34801561082b57600080fd5b506103f861083a366004615201565b611abb565b34801561084b57600080fd5b506103f861085a36600461524a565b611af4565b34801561086b57600080fd5b506103f861087a36600461522d565b611b43565b34801561088b57600080fd5b506103f8611bc3565b3480156108a057600080fd5b506108b46108af36600461522d565b611c2f565b604080519485526020850193909352918301526060820152608001610392565b6103f86108e236600461528b565b611cd0565b3480156108f357600080fd5b506103f8611cdb565b34801561090857600080fd5b506103f860095481565b34801561091e57600080fd5b506103f8611d6b565b34801561093357600080fd5b506103e06109423660046154a4565b611dc6565b6103f861095536600461528b565b611e6c565b34801561096657600080fd5b506103f861097536600461556f565b6001600160a01b039182166000908152600f6020908152604080832093909416825291909152205490565b3480156109ac57600080fd5b506103f8611e77565b3480156109c157600080fd5b506103f86109d036600461522d565b611f6f565b3480156109e157600080fd5b506006546104b1906001600160a01b031681565b348015610a0157600080fd5b506003546104b19061010090046001600160a01b031681565b348015610a2657600080fd5b506103f8610a3536600461528b565b611fa7565b60018054610a47906155a8565b80601f0160208091040260200160405190810160405280929190818152602001828054610a73906155a8565b8015610ac05780601f10610a9557610100808354040283529160200191610ac0565b820191906000526020600020905b815481529060010190602001808311610aa357829003601f168201915b505050505081565b336000818152600f602090815260408083206001600160a01b03871680855292528083208590555191929182907f8c5be1e5ebec7d5bd14f71427d1e84f3dd0314c0f7b2291e5b200ac8c7c3b92590610b249087815260200190565b60405180910390a360019150505b92915050565b60035461010090046001600160a01b03163314610bb25760405162461bcd60e51b815260206004820152602d60248201527f6f6e6c79207468652061646d696e206d61792063616c6c205f72657369676e4960448201526c36b83632b6b2b73a30ba34b7b760991b60648201526084015b60405180910390fd5b565b6000805460ff16610bd75760405162461bcd60e51b8152600401610ba9906155e2565b6000805460ff19168155610be96116fb565b14610c065760405162461bcd60e51b8152600401610ba99061561c565b610c0f82611414565b90505b6000805460ff19166001179055919050565b6000806000610c31612009565b90925090506000826003811115610c4a57610c4a615606565b14610b325760405162461bcd60e51b815260206004820152603560248201527f65786368616e67655261746553746f7265643a2065786368616e67655261746560448201527414dd1bdc9959125b9d195c9b985b0819985a5b1959605a1b6064820152608401610ba9565b60035461010090046001600160a01b03163314610d2c5760405162461bcd60e51b815260206004820152602f60248201527f4b45726332303a3a7377656570546f6b656e3a206f6e6c792061646d696e206360448201526e616e20737765657020746f6b656e7360881b6064820152608401610ba9565b6012546001600160a01b0390811690821603610da55760405162461bcd60e51b815260206004820152603260248201527f4b45726332303a3a7377656570546f6b656e3a2063616e206e6f74207377656560448201527138103ab73232b9363cb4b733903a37b5b2b760711b6064820152608401610ba9565b6040516370a0823160e01b81523060048201526000906001600160a01b038316906370a0823190602401602060405180830381865afa158015610dec573d6000803e3d6000fd5b505050506040513d601f19601f82011682018060405250810190610e10919061564c565b60035460405163a9059cbb60e01b81526001600160a01b03610100909204821660048201526024810183905291925083169063a9059cbb90604401600060405180830381600087803b158015610e6557600080fd5b505af1158015610e79573d6000803e3d6000fd5b505050505050565b6000805460ff16610ea45760405162461bcd60e51b8152600401610ba9906155e2565b6000805460ff19168155610eba338686866120c7565b1490506000805460ff191660011790559392505050565b6000806040518060200160405280610ee7611bc3565b90526001600160a01b0384166000908152600e6020526040812054919250908190610f13908490612363565b90925090506000826003811115610f2c57610f2c615606565b14610f795760405162461bcd60e51b815260206004820152601f60248201527f62616c616e636520636f756c64206e6f742062652063616c63756c61746564006044820152606401610ba9565b949350505050565b6000610f8b6123b6565b905090565b6000610b328261242b565b6013546000906001600160a01b03163314610fc85760405162461bcd60e51b8152600401610ba990615665565b6000610fd484846124a3565b50949350505050565b60035460009061010090046001600160a01b0316331461100357610b326001603f612530565b60055460408051623f1ee960e11b815290516001600160a01b0392831692851691627e3dd29160048083019260209291908290030181865afa15801561104d573d6000803e3d6000fd5b505050506040513d601f19601f82011682018060405250810190611071919061568b565b6110bd5760405162461bcd60e51b815260206004820152601c60248201527f6d61726b6572206d6574686f642072657475726e65642066616c7365000000006044820152606401610ba9565b600580546001600160a01b0319166001600160a01b0385811691821790925560408051928416835260208301919091527f7ac369dbd14fa5ea3f473ed67cc9d598964a77501540ba6751eb0b3decf5870d91015b60405180910390a160005b9392505050565b60035461010090046001600160a01b031633146111985760405162461bcd60e51b815260206004820152602d60248201527f6f6e6c79207468652061646d696e206d61792063616c6c205f6265636f6d654960448201526c36b83632b6b2b73a30ba34b7b760991b6064820152608401610ba9565b50565b6013546000906001600160a01b031633146111c85760405162461bcd60e51b8152600401610ba990615665565b60006111d58585856125a9565b5095945050505050565b6000805460ff166112025760405162461bcd60e51b8152600401610ba9906155e2565b6000805460ff191681556112146116fb565b905080156112405761123881601081111561123157611231615606565b6030612530565b915050610c12565b61124983612638565b9150506000805460ff19166001179055919050565b6013546000906001600160a01b0316331461128b5760405162461bcd60e51b8152600401610ba990615665565b60006112998686868661277c565b509695505050505050565b6000805460ff166112c75760405162461bcd60e51b8152600401610ba9906155e2565b6000805460ff191681556112d96116fb565b146112f65760405162461bcd60e51b8152600401610ba99061561c565b50600b546000805460ff1916600117905590565b6000805460ff1661132d5760405162461bcd60e51b8152600401610ba9906155e2565b6000805460ff1916815561133f6116fb565b905080156113635761123881601081111561135c5761135c615606565b6051612530565b61124983612895565b6000610b3282612911565b60035461010090046001600160a01b031633146113a65760405162461bcd60e51b8152600401610ba990615665565b601380546001600160a01b038381166001600160a01b031983168117909355604080519190921680825260208201939093527f71ad738455238e074409355be0b830053b58dfcc1b834957d5915003784864a1910160405180910390a15050565b60028054610a47906155a8565b600080600061142284612976565b9092509050600082600381111561143b5761143b615606565b1461111c5760405162461bcd60e51b815260206004820152603760248201527f626f72726f7742616c616e636553746f7265643a20626f72726f7742616c616e60448201527f636553746f726564496e7465726e616c206661696c65640000000000000000006064820152608401610ba9565b60035461010090046001600160a01b031633146115195760405162461bcd60e51b8152602060048201526024808201527f6f6e6c792061646d696e206d617920696e697469616c697a6520746865206d616044820152631c9ad95d60e21b6064820152608401610ba9565b6009541580156115295750600a54155b6115815760405162461bcd60e51b815260206004820152602360248201527f6d61726b6574206d6179206f6e6c7920626520696e697469616c697a6564206f6044820152626e636560e81b6064820152608401610ba9565b6007849055836115ec5760405162461bcd60e51b815260206004820152603060248201527f696e697469616c2065786368616e67652072617465206d75737420626520677260448201526f32b0ba32b9103a3430b7103d32b9379760811b6064820152608401610ba9565b60006115f787610fdd565b905080156116475760405162461bcd60e51b815260206004820152601a60248201527f73657474696e6720636f6d7074726f6c6c6572206661696c65640000000000006044820152606401610ba9565b42600955670de0b6b3a7640000600a5561166086612a31565b905080156116bb5760405162461bcd60e51b815260206004820152602260248201527f73657474696e6720696e7465726573742072617465206d6f64656c206661696c604482015261195960f21b6064820152608401610ba9565b60016116c785826156f8565b5060026116d484826156f8565b50506003805460ff90921660ff199283161790556000805490911660011790555050505050565b60095460009042908181036117145760005b9250505090565b600061171e6123b6565b600b54600c54600a546006546040516315f2405360e01b81526004810186905260248101859052604481018490529495509293919290916000916001600160a01b0316906315f2405390606401602060405180830381865afa158015611788573d6000803e3d6000fd5b505050506040513d601f19601f820116820180604052508101906117ac919061564c565b905065048c273950008111156118045760405162461bcd60e51b815260206004820152601c60248201527f626f72726f772072617465206973206162737572646c792068696768000000006044820152606401610ba9565b6000806118118989612b8c565b9092509050600082600381111561182a5761182a615606565b146118775760405162461bcd60e51b815260206004820152601f60248201527f636f756c64206e6f742063616c63756c61746520626c6f636b2064656c7461006044820152606401610ba9565b6040805160208101909152600081526000806000806118a460405180602001604052808a81525087612bb7565b909750945060008760038111156118bd576118bd615606565b146118f3576118e0600960068960038111156118db576118db615606565b612c33565b9e50505050505050505050505050505090565b6118fd858c612363565b9097509350600087600381111561191657611916615606565b14611934576118e0600960018960038111156118db576118db615606565b61193e848c612cab565b9097509250600087600381111561195757611957615606565b14611975576118e0600960048960038111156118db576118db615606565b6119906040518060200160405280600854815250858c612cdb565b909750915060008760038111156119a9576119a9615606565b146119c7576118e0600960058960038111156118db576118db615606565b6119d2858a8b612cdb565b909750905060008760038111156119eb576119eb615606565b14611a09576118e0600960038960038111156118db576118db615606565b60098e9055600a819055600b839055600c829055604080518d815260208101869052908101829052606081018490527f4dec04e750ca11537cabcd8a9eab06494de08da3735bc8871cd41250e190bc049060800160405180910390a160006118e0565b6000805460ff16611a8f5760405162461bcd60e51b8152600401610ba9906155e2565b6000805460ff19168155611aa5333386866120c7565b1490506000805460ff1916600117905592915050565b6013546000906001600160a01b03163314611ae85760405162461bcd60e51b8152600401610ba990615665565b6000610fd48484612d36565b6000805460ff16611b175760405162461bcd60e51b8152600401610ba9906155e2565b6000805460ff19169055611b2d33858585612d9c565b90506000805460ff191660011790559392505050565b60035460009061010090046001600160a01b03163314611b6957610b3260016045612530565b600480546001600160a01b038481166001600160a01b031983168117909355604080519190921680825260208201939093527fca4f2f25d0898edd99413412fb94012f9e54ec8142f9b093e7720646a95b16a99101611111565b6000805460ff16611be65760405162461bcd60e51b8152600401610ba9906155e2565b6000805460ff19168155611bf86116fb565b14611c155760405162461bcd60e51b8152600401610ba99061561c565b611c1d610c24565b90506000805460ff1916600117905590565b6001600160a01b0381166000908152600e6020526040812054819081908190818080611c5a89612976565b935090506000816003811115611c7257611c72615606565b14611c905760095b6000806000975097509750975050505050611cc9565b611c98612009565b925090506000816003811115611cb057611cb0615606565b14611cbc576009611c7a565b5060009650919450925090505b9193509193565b6000610b32826131ef565b6006546000906001600160a01b03166315f24053611cf76123b6565b600b54600c546040516001600160e01b031960e086901b1681526004810193909352602483019190915260448201526064015b602060405180830381865afa158015611d47573d6000803e3d6000fd5b505050506040513d601f19601f82011682018060405250810190610f8b919061564c565b6006546000906001600160a01b031663b8168816611d876123b6565b600b54600c546008546040516001600160e01b031960e087901b1681526004810194909452602484019290925260448301526064820152608401611d2a565b611dd48787878787876114ae565b601380546001600160a01b038084166001600160a01b03199283161790925560128054928b169290911682179055604080516318160ddd60e01b815290516318160ddd916004808201926020929091908290030181865afa158015611e3d573d6000803e3d6000fd5b505050506040513d601f19601f82011682018060405250810190611e61919061564c565b505050505050505050565b6000610b3282613252565b6004546000906001600160a01b031633141580611e92575033155b15611ea357610f8b60016000612530565b60038054600480546001600160a01b03808216610100818102610100600160a81b0319871617968790556001600160a01b031990931690935560408051948390048216808652929095041660208401529290917ff9ffabca9c8276e99321725bcb43fb076a6c66a54b7f21c4e8146d8519b417dc910160405180910390a1600454604080516001600160a01b03808516825290921660208301527fca4f2f25d0898edd99413412fb94012f9e54ec8142f9b093e7720646a95b16a9910160405180910390a1600061170d565b600080611f7a6116fb565b90508015611f9e5761111c816010811115611f9757611f97615606565b6040612530565b61111c83612a31565b6000805460ff16611fca5760405162461bcd60e51b8152600401610ba9906155e2565b6000805460ff19168155611fdc6116fb565b9050801561200057611238816010811115611ff957611ff9615606565b6046612530565b611249836132b0565b600d546000908190808203612025575050600754600092909150565b600061202f6123b6565b905060006120496040518060200160405280600081525090565b600061205a84600b54600c54613345565b93509050600081600381111561207257612072615606565b14612084579660009650945050505050565b61208e8386613389565b9250905060008160038111156120a6576120a6615606565b146120b8579660009650945050505050565b50516000969095509350505050565b6005546040516317b9b84b60e31b81523060048201526001600160a01b038581166024830152848116604483015260648201849052600092839291169063bdcdc258906084016020604051808303816000875af115801561212c573d6000803e3d6000fd5b505050506040513d601f19601f82011682018060405250810190612150919061564c565b9050801561216d576121656003604a83612c33565b915050610f79565b836001600160a01b0316856001600160a01b031603612192576121656002604b612530565b6000856001600160a01b0316876001600160a01b0316036121b657506000196121de565b506001600160a01b038086166000908152600f60209081526040808320938a16835292905220545b6000806000806121ee8589612b8c565b9094509250600084600381111561220757612207615606565b14612225576122186009604b612530565b9650505050505050610f79565b6001600160a01b038a166000908152600e60205260409020546122489089612b8c565b9094509150600084600381111561226157612261615606565b14612272576122186009604c612530565b6001600160a01b0389166000908152600e60205260409020546122959089612cab565b909450905060008460038111156122ae576122ae615606565b146122bf576122186009604d612530565b6001600160a01b03808b166000908152600e6020526040808220859055918b168152208190556000198514612317576001600160a01b03808b166000908152600f60209081526040808320938f168352929052208390555b886001600160a01b03168a6001600160a01b03166000805160206158978339815191528a60405161234a91815260200190565b60405180910390a360009b9a5050505050505050505050565b6000806000806123738686612bb7565b9092509050600082600381111561238c5761238c615606565b1461239d57509150600090506123af565b60006123a882613454565b9350935050505b9250929050565b6012546040516370a0823160e01b81523060048201526000916001600160a01b03169081906370a0823190602401602060405180830381865afa158015612401573d6000803e3d6000fd5b505050506040513d601f19601f82011682018060405250810190612425919061564c565b91505090565b6000805460ff1661244e5760405162461bcd60e51b8152600401610ba9906155e2565b6000805460ff191681556124606116fb565b905080156124845761123881601081111561247d5761247d615606565b604e612530565b61248d8361346c565b509150506000805460ff19166001179055919050565b60008054819060ff166124c85760405162461bcd60e51b8152600401610ba9906155e2565b6000805460ff191681556124da6116fb565b9050801561250a576124fe8160108111156124f7576124f7615606565b601e612530565b6000925092505061251a565b6125148585613546565b92509250505b6000805460ff1916600117905590939092509050565b60007f45b96fe442630264581b197e84bbada861235052c5a1aadfff9ea4e40a969aa083601081111561256557612565615606565b83605381111561257757612577615606565b60408051928352602083019190915260009082015260600160405180910390a182601081111561111c5761111c615606565b60008054819060ff166125ce5760405162461bcd60e51b8152600401610ba9906155e2565b6000805460ff191681556125e06116fb565b90508015612610576126048160108111156125fd576125fd615606565b6035612530565b60009250925050612621565b61261b8686866139ca565b92509250505b6000805460ff191660011790559094909350915050565b600354600090819061010090046001600160a01b031633146126605761111c60016031612530565b42600954146126755761111c600a6033612530565b8261267e6123b6565b10156126905761111c600e6032612530565b600c548311156126a65761111c60026034612530565b82600c546126b491906157ce565b9050600c548111156127145760405162461bcd60e51b8152602060048201526024808201527f72656475636520726573657276657320756e657870656374656420756e646572604482015263666c6f7760e01b6064820152608401610ba9565b600c8190556003546127349061010090046001600160a01b031684613de1565b7f3bad0c59cf2f06e7314077049f48a93578cd16f5ef92329f1dab1420a99c177e600360019054906101000a90046001600160a01b03168483604051611111939291906157e1565b60008054819060ff166127a15760405162461bcd60e51b8152600401610ba9906155e2565b6000805460ff191681556127b36116fb565b905080156127e3576127d78160108111156127d0576127d0615606565b600f612530565b6000925092505061287d565b836001600160a01b031663a6afed956040518163ffffffff1660e01b81526004016020604051808303816000875af1158015612823573d6000803e3d6000fd5b505050506040513d601f19601f82011682018060405250810190612847919061564c565b9050801561286b576127d781601081111561286457612864615606565b6010612530565b61287787878787613f20565b92509250505b6000805460ff19166001179055909590945092505050565b600354600090819061010090046001600160a01b031633146128bd5761111c60016052612530565b42600954146128d25761111c600a6053612530565b50601180549083905560408051828152602081018590527ff5815f353a60e815cce7553e4f60c533a59d26b1b5504ea4b6db8d60da3e4da29101611111565b6000805460ff166129345760405162461bcd60e51b8152600401610ba9906155e2565b6000805460ff191681556129466116fb565b9050801561296a5761123881601081111561296357612963615606565b6027612530565b611249336000856143df565b6001600160a01b03811660009081526010602052604081208054829182918291829182036129ad5750600096879650945050505050565b6129bd8160000154600a546149c4565b909450925060008460038111156129d6576129d6615606565b146129e957509195600095509350505050565b6129f7838260010154614a11565b90945091506000846003811115612a1057612a10615606565b14612a2357509195600095509350505050565b506000969095509350505050565b600354600090819061010090046001600160a01b03163314612a595761111c60016042612530565b4260095414612a6e5761111c600a6041612530565b600660009054906101000a90046001600160a01b03169050826001600160a01b0316632191f92a6040518163ffffffff1660e01b8152600401602060405180830381865afa158015612ac4573d6000803e3d6000fd5b505050506040513d601f19601f82011682018060405250810190612ae8919061568b565b612b345760405162461bcd60e51b815260206004820152601c60248201527f6d61726b6572206d6574686f642072657475726e65642066616c7365000000006044820152606401610ba9565b600680546001600160a01b0319166001600160a01b0385811691821790925560408051928416835260208301919091527fedffc32e068c7c95dfd4bdfd5c4d939a084d6b11c4199eac8436ed234d72f9269101611111565b600080838311612bab576000612ba284866157ce565b915091506123af565b506003905060006123af565b6000612bcf6040518060200160405280600081525090565b600080612be08660000151866149c4565b90925090506000826003811115612bf957612bf9615606565b14612c18575060408051602081019091526000815290925090506123af565b60408051602081019091529081526000969095509350505050565b60007f45b96fe442630264581b197e84bbada861235052c5a1aadfff9ea4e40a969aa0846010811115612c6857612c68615606565b846053811115612c7a57612c7a615606565b604080519283526020830191909152810184905260600160405180910390a1836010811115610f7957610f79615606565b60008080612cb98486615802565b9050848110612ccd576000925090506123af565b6002600092509250506123af565b600080600080612ceb8787612bb7565b90925090506000826003811115612d0457612d04615606565b14612d155750915060009050612d2e565b612d27612d2182613454565b86612cab565b9350935050505b935093915050565b60008054819060ff16612d5b5760405162461bcd60e51b8152600401610ba9906155e2565b6000805460ff19168155612d6d6116fb565b90508015612d91576124fe816010811115612d8a57612d8a615606565b6036612530565b6125148586866139ca565b60055460405163d02f735160e01b81523060048201526001600160a01b0386811660248301528581166044830152848116606483015260848201849052600092839291169063d02f73519060a4016020604051808303816000875af1158015612e09573d6000803e3d6000fd5b505050506040513d601f19601f82011682018060405250810190612e2d919061564c565b90508015612e42576121656003601b83612c33565b846001600160a01b0316846001600160a01b031603612e67576121656006601c612530565b612eb7604080516101208101909152806000815260200160008152602001600081526020016000815260200160008152602001600081526020016000815260200160008152602001600081525090565b6001600160a01b0385166000908152600e6020526040902054612eda9085612b8c565b6020830181905282826003811115612ef457612ef4615606565b6003811115612f0557612f05615606565b9052506000905081516003811115612f1f57612f1f615606565b14612f4a57612f416009601a836000015160038111156118db576118db615606565b92505050610f79565b612f64846040518060200160405280601154815250614a3f565b60808201819052612f76908590614a62565b6060820152612f83612009565b60c0830181905282826003811115612f9d57612f9d615606565b6003811115612fae57612fae615606565b9052506000905081516003811115612fc857612fc8615606565b146130155760405162461bcd60e51b815260206004820152601860248201527f65786368616e67652072617465206d617468206572726f7200000000000000006044820152606401610ba9565b61303560405180602001604052808360c001518152508260800151614a9c565b60a08201819052600c5461304891614ab4565b60e0820152600d54608082015161305f9190614a62565b6101008201526001600160a01b0386166000908152600e6020526040902054606082015161308d9190612cab565b60408301819052828260038111156130a7576130a7615606565b60038111156130b8576130b8615606565b90525060009050815160038111156130d2576130d2615606565b146130f457612f4160096019836000015160038111156118db576118db615606565b60e0810151600c55610100810151600d556020808201516001600160a01b038781166000818152600e855260408082209490945583860151928b1680825290849020929092556060850151925192835290929091600080516020615897833981519152910160405180910390a3306001600160a01b0316856001600160a01b0316600080516020615897833981519152836080015160405161319891815260200190565b60405180910390a360a081015160e08201516040517fa91e67c5ea634cd43a12c5a482724b03de01e85ca68702a53d0c2f45cb7c1dc5926131da9230926157e1565b60405180910390a16000979650505050505050565b6000805460ff166132125760405162461bcd60e51b8152600401610ba9906155e2565b6000805460ff191681556132246116fb565b905080156132485761123881601081111561324157613241615606565b6008612530565b6112493384614aea565b6000805460ff166132755760405162461bcd60e51b8152600401610ba9906155e2565b6000805460ff191681556132876116fb565b905080156132a45761123881601081111561296357612963615606565b611249338460006143df565b60035460009061010090046001600160a01b031633146132d657610b3260016047612530565b42600954146132eb57610b32600a6048612530565b670de0b6b3a764000082111561330757610b3260026049612530565b600880549083905560408051828152602081018590527faaa68312e2ea9d50e16af5068410ab56e1a1fd06037b1a35664812c30f8214609101611111565b6000806000806133558787612cab565b9092509050600082600381111561336e5761336e615606565b1461337f5750915060009050612d2e565b612d278186612b8c565b60006133a16040518060200160405280600081525090565b6000806133b686670de0b6b3a76400006149c4565b909250905060008260038111156133cf576133cf615606565b146133ee575060408051602081019091526000815290925090506123af565b6000806133fb8388614a11565b9092509050600082600381111561341457613414615606565b1461343757816040518060200160405280600081525095509550505050506123af565b604080516020810190915290815260009890975095505050505050565b8051600090610b3290670de0b6b3a764000090615815565b6000808080426009541461349057613486600a604f612530565b9590945092505050565b61349a3386614dd4565b905080600c546134aa9190615802565b9150600c548210156134fe5760405162461bcd60e51b815260206004820181905260248201527f61646420726573657276657320756e6578706563746564206f766572666c6f776044820152606401610ba9565b600c8290556040517fa91e67c5ea634cd43a12c5a482724b03de01e85ca68702a53d0c2f45cb7c1dc590613537903390849086906157e1565b60405180910390a16000613486565b600554604051634ef4c3e160e01b8152600091829182916001600160a01b031690634ef4c3e19061357f90309089908990600401615837565b6020604051808303816000875af115801561359e573d6000803e3d6000fd5b505050506040513d601f19601f820116820180604052508101906135c2919061564c565b905080156135e3576135d76003601f83612c33565b600092509250506123af565b42600954146135f8576135d7600a6022612530565b6136396040805160e0810190915280600081526020016000815260200160008152602001600081526020016000815260200160008152602001600081525090565b613641612009565b604083018190526020830182600381111561365e5761365e615606565b600381111561366f5761366f615606565b905250600090508160200151600381111561368c5761368c615606565b146136bb576136ae60096021836020015160038111156118db576118db615606565b60009350935050506123af565b6136c58686614dd4565b60c08201819052604080516020810182529083015181526136e69190614ff9565b606083018190526020830182600381111561370357613703615606565b600381111561371457613714615606565b905250600090508160200151600381111561373157613731615606565b1461377e5760405162461bcd60e51b815260206004820181905260248201527f4d494e545f45584348414e47455f43414c43554c4154494f4e5f4641494c45446044820152606401610ba9565b61378e600d548260600151612cab565b60808301819052602083018260038111156137ab576137ab615606565b60038111156137bc576137bc615606565b90525060009050816020015160038111156137d9576137d9615606565b146138375760405162461bcd60e51b815260206004820152602860248201527f4d494e545f4e45575f544f54414c5f535550504c595f43414c43554c4154494f6044820152671397d1905253115160c21b6064820152608401610ba9565b6001600160a01b0386166000908152600e6020526040902054606082015161385f9190612cab565b60a083018190526020830182600381111561387c5761387c615606565b600381111561388d5761388d615606565b90525060009050816020015160038111156138aa576138aa615606565b1461390b5760405162461bcd60e51b815260206004820152602b60248201527f4d494e545f4e45575f4143434f554e545f42414c414e43455f43414c43554c4160448201526a151253d397d1905253115160aa1b6064820152608401610ba9565b6080810151600d5560a08101516001600160a01b0387166000908152600e6020526040908190209190915560c0820151606083015191517f4c209b5fc8ad50758f13e2e1088ba56a560dff690a1c6fef26394f4c03821c4f92613972928a929091906157e1565b60405180910390a1856001600160a01b0316306001600160a01b031660008051602061589783398151915283606001516040516139b191815260200190565b60405180910390a360c001516000969095509350505050565b600554604051631200453160e11b81523060048201526001600160a01b03858116602483015284811660448301526064820184905260009283928392909116906324008a62906084016020604051808303816000875af1158015613a32573d6000803e3d6000fd5b505050506040513d601f19601f82011682018060405250810190613a56919061564c565b90508015613a7757613a6b6003603883612c33565b60009250925050612d2e565b4260095414613a8c57613a6b600a6039612530565b613ad56040805161010081019091528060008152602001600081526020016000815260200160008152602001600081526020016000815260200160008152602001600081525090565b6001600160a01b0386166000908152601060205260409020600101546060820152613aff86612976565b6080830181905260208301826003811115613b1c57613b1c615606565b6003811115613b2d57613b2d615606565b9052506000905081602001516003811115613b4a57613b4a615606565b14613b7957613b6c60096037836020015160038111156118db576118db615606565b6000935093505050612d2e565b6000198503613b915760808101516040820152613b99565b604081018590525b613ba7878260400151614dd4565b60e082018190526080820151613bbc91612b8c565b60a0830181905260208301826003811115613bd957613bd9615606565b6003811115613bea57613bea615606565b9052506000905081602001516003811115613c0757613c07615606565b14613c7a5760405162461bcd60e51b815260206004820152603a60248201527f52455041595f424f52524f575f4e45575f4143434f554e545f424f52524f575f60448201527f42414c414e43455f43414c43554c4154494f4e5f4641494c45440000000000006064820152608401610ba9565b613c8a600b548260e00151612b8c565b60c0830181905260208301826003811115613ca757613ca7615606565b6003811115613cb857613cb8615606565b9052506000905081602001516003811115613cd557613cd5615606565b14613d3c5760405162461bcd60e51b815260206004820152603160248201527f52455041595f424f52524f575f4e45575f544f54414c5f42414c414e43455f43604482015270105310d55310551253d397d19052531151607a1b6064820152608401610ba9565b60a081810180516001600160a01b03898116600081815260106020908152604091829020948555600a5460019095019490945560c0870151600b81905560e088015195518251948f16855294840192909252820193909352606081019190915260808101919091527f1a2a22cb034d26d1854bdc6666a5b91fe25efbbb5dcad3b0355478d6f5c362a1910160405180910390a160e00151600097909650945050505050565b601254604051630852cd8d60e31b8152600481018390526001600160a01b039091169081906342966c6890602401600060405180830381600087803b158015613e2957600080fd5b505af1158015613e3d573d6000803e3d6000fd5b5050505060003d60008114613e595760208114613e6357600080fd5b6000199150613e6f565b60206000803e60005191505b5080613ebd5760405162461bcd60e51b815260206004820152601960248201527f544f4b454e5f5452414e534645525f4f55545f4641494c4544000000000000006044820152606401610ba9565b601354604051631a52ee3b60e31b81526001600160a01b039091169063d29771d8903490613ef390339089908990600401615837565b6000604051808303818588803b158015613f0c57600080fd5b505af1158015611e61573d6000803e3d6000fd5b600554604051632fe3f38f60e11b81523060048201526001600160a01b03838116602483015286811660448301528581166064830152608482018590526000928392839290911690635fc7e71e9060a401602060405180830381865afa158015613f8e573d6000803e3d6000fd5b505050506040513d601f19601f82011682018060405250810190613fb2919061564c565b90508015613fd357613fc76003601283612c33565b600092509250506143d6565b4260095414613fe857613fc7600a6016612530565b42846001600160a01b031663cfa992016040518163ffffffff1660e01b8152600401602060405180830381865afa158015614027573d6000803e3d6000fd5b505050506040513d601f19601f8201168201806040525081019061404b919061564c565b1461405c57613fc7600a6011612530565b866001600160a01b0316866001600160a01b03160361408157613fc760066017612530565b8460000361409557613fc760076015612530565b60001985036140aa57613fc760076014612530565b6000806140b88989896139ca565b909250905081156140ed576140df8260108111156140d8576140d8615606565b6018612530565b6000945094505050506143d6565b60055460405163c488847b60e01b815260009182916001600160a01b039091169063c488847b906141269030908c908890600401615837565b6040805180830381865afa158015614142573d6000803e3d6000fd5b505050506040513d601f19601f82011682018060405250810190614166919061585b565b909250905081156141d55760405162461bcd60e51b815260206004820152603360248201527f4c49515549444154455f434f4d5054524f4c4c45525f43414c43554c4154455f604482015272105353d5539517d4d152569157d19052531151606a1b6064820152608401610ba9565b6040516370a0823160e01b81526001600160a01b038b811660048301528291908a16906370a0823190602401602060405180830381865afa15801561421e573d6000803e3d6000fd5b505050506040513d601f19601f82011682018060405250810190614242919061564c565b10156142905760405162461bcd60e51b815260206004820152601860248201527f4c49515549444154455f5345495a455f544f4f5f4d55434800000000000000006044820152606401610ba9565b6000306001600160a01b038a16036142b5576142ae308d8d85612d9c565b905061432b565b60405163b2a02ff160e01b81526001600160a01b038a169063b2a02ff1906142e5908f908f908790600401615837565b6020604051808303816000875af1158015614304573d6000803e3d6000fd5b505050506040513d601f19601f82011682018060405250810190614328919061564c565b90505b80156143705760405162461bcd60e51b81526020600482015260146024820152731d1bdad95b881cd95a5e9d5c994819985a5b195960621b6044820152606401610ba9565b604080516001600160a01b038e811682528d811660208301528183018790528b1660608201526080810184905290517f298637f684da70674f26509b10f07ec2fbc77a335ab1e7d6215a4b2484d8bb529181900360a00190a16000975092955050505050505b94509492505050565b60008215806143ec575081155b6144555760405162461bcd60e51b815260206004820152603460248201527f6f6e65206f662072656465656d546f6b656e73496e206f722072656465656d416044820152736d6f756e74496e206d757374206265207a65726f60601b6064820152608401610ba9565b6144966040805160e0810190915280600081526020016000815260200160008152602001600081526020016000815260200160008152602001600081525090565b61449e612009565b60408301819052602083018260038111156144bb576144bb615606565b60038111156144cc576144cc615606565b90525060009050816020015160038111156144e9576144e9615606565b146145135761450b6009602b836020015160038111156118db576118db615606565b91505061111c565b83156145df576000198403614545576001600160a01b0385166000908152600e6020526040902054606082015261454d565b606081018490525b61456d604051806020016040528083604001518152508260600151612363565b608083018190526020830182600381111561458a5761458a615606565b600381111561459b5761459b615606565b90525060009050816020015160038111156145b8576145b8615606565b146145da5761450b60096029836020015160038111156118db576118db615606565b6146b4565b6000198303614625576001600160a01b0385166000908152600e6020908152604091829020546060840190815282519182018352918301518152905161456d9190612363565b6080810183905260408051602081018252908201518152614647908490614ff9565b606083018190526020830182600381111561466457614664615606565b600381111561467557614675615606565b905250600090508160200151600381111561469257614692615606565b146146b45761450b6009602a836020015160038111156118db576118db615606565b600554606082015160405163eabe7d9160e01b81526000926001600160a01b03169163eabe7d91916146ed9130918b9190600401615837565b6020604051808303816000875af115801561470c573d6000803e3d6000fd5b505050506040513d601f19601f82011682018060405250810190614730919061564c565b9050801561474e576147456003602883612c33565b9250505061111c565b426009541461476357614745600a602c612530565b614773600d548360600151612b8c565b60a084018190526020840182600381111561479057614790615606565b60038111156147a1576147a1615606565b90525060009050826020015160038111156147be576147be615606565b146147e0576147456009602e846020015160038111156118db576118db615606565b6001600160a01b0386166000908152600e602052604090205460608301516148089190612b8c565b60c084018190526020840182600381111561482557614825615606565b600381111561483657614836615606565b905250600090508260200151600381111561485357614853615606565b14614875576147456009602d846020015160038111156118db576118db615606565b81608001516148826123b6565b101561489457614745600e602f612530565b60a0820151600d5560c08201516001600160a01b0387166000818152600e60205260409081902092909255606084015191513092600080516020615897833981519152916148e491815260200190565b60405180910390a3608082015160608301516040517fe5b754fb1abb7f01b499791d0b820ae3b6af3424ac1c59768edb53f4ec31a92992614926928a926157e1565b60405180910390a1600554608083015160608401516040516351dff98960e01b81523060048201526001600160a01b038a81166024830152604482019390935260648101919091529116906351dff9899060840160006040518083038186803b15801561499257600080fd5b505afa1580156149a6573d6000803e3d6000fd5b505050506149b8868360800151613de1565b60009695505050505050565b600080836000036149da575060009050806123af565b60006149e6848661587f565b9050836149f38683615815565b14614a06576002600092509250506123af565b6000925090506123af565b60008082600003614a2857506001905060006123af565b6000614a348486615815565b915091509250929050565b6000670de0b6b3a7640000614a58848460000151615009565b61111c9190615815565b600061111c8383604051806040016040528060158152602001747375627472616374696f6e20756e646572666c6f7760581b81525061504b565b600080614aa9848461507a565b9050610f7981613454565b600061111c8383604051806040016040528060118152602001706164646974696f6e206f766572666c6f7760781b8152506150ab565b60055460405163368f515360e21b815260009182916001600160a01b039091169063da3d454c90614b2390309088908890600401615837565b6020604051808303816000875af1158015614b42573d6000803e3d6000fd5b505050506040513d601f19601f82011682018060405250810190614b66919061564c565b90508015614b8357614b7b6003600e83612c33565b915050610b32565b4260095414614b9757614b7b600a80612530565b82614ba06123b6565b1015614bb257614b7b600e6009612530565b614bde604080516080810190915280600081526020016000815260200160008152602001600081525090565b614be785612976565b6020830181905282826003811115614c0157614c01615606565b6003811115614c1257614c12615606565b9052506000905081516003811115614c2c57614c2c615606565b14614c5757614c4e60096007836000015160038111156118db576118db615606565b92505050610b32565b614c65816020015185612cab565b6040830181905282826003811115614c7f57614c7f615606565b6003811115614c9057614c90615606565b9052506000905081516003811115614caa57614caa615606565b14614ccc57614c4e6009600c836000015160038111156118db576118db615606565b614cd8600b5485612cab565b6060830181905282826003811115614cf257614cf2615606565b6003811115614d0357614d03615606565b9052506000905081516003811115614d1d57614d1d615606565b14614d3f57614c4e6009600b836000015160038111156118db576118db615606565b604081810180516001600160a01b03881660008181526010602090815290859020928355600a54600190930192909255606080860151600b8190559351855192835292820189905293810191909152918201527f13ed6866d4e1ee6da46f845c46d7e54120883d75c5ea9a2dacc1c4ca8984ab809060800160405180910390a1614dc98585613de1565b600095945050505050565b6012546040516370a0823160e01b81523060048201526000916001600160a01b0316908190839082906370a0823190602401602060405180830381865afa158015614e23573d6000803e3d6000fd5b505050506040513d601f19601f82011682018060405250810190614e47919061564c565b6040516340c10f1960e01b8152306004820152602481018790529091506001600160a01b038316906340c10f1990604401600060405180830381600087803b158015614e9257600080fd5b505af1158015614ea6573d6000803e3d6000fd5b5050505060003d60008114614ec25760208114614ecc57600080fd5b6000199150614ed8565b60206000803e60005191505b5080614f265760405162461bcd60e51b815260206004820152601860248201527f544f4b454e5f5452414e534645525f494e5f4641494c454400000000000000006044820152606401610ba9565b6040516370a0823160e01b81523060048201526000906001600160a01b038616906370a0823190602401602060405180830381865afa158015614f6d573d6000803e3d6000fd5b505050506040513d601f19601f82011682018060405250810190614f91919061564c565b905082811015614fe35760405162461bcd60e51b815260206004820152601a60248201527f544f4b454e5f5452414e534645525f494e5f4f564552464c4f570000000000006044820152606401610ba9565b614fed83826157ce565b98975050505050505050565b60008060008061237386866150dc565b600061111c83836040518060400160405280601781526020017f6d756c7469706c69636174696f6e206f766572666c6f7700000000000000000081525061514f565b6000818484111561506f5760405162461bcd60e51b8152600401610ba9919061519e565b50610f7983856157ce565b60408051602081019091526000815260405180602001604052806150a2856000015185615009565b90529392505050565b6000806150b88486615802565b90508285821015610fd45760405162461bcd60e51b8152600401610ba9919061519e565b60006150f46040518060200160405280600081525090565b600080615109670de0b6b3a7640000876149c4565b9092509050600082600381111561512257615122615606565b14615141575060408051602081019091526000815290925090506123af565b6123a8818660000151613389565b600083158061515c575082155b156151695750600061111c565b6000615175848661587f565b9050836151828683615815565b148390610fd45760405162461bcd60e51b8152600401610ba991905b600060208083528351808285015260005b818110156151cb578581018301518582016040015282016151af565b506000604082860101526040601f19601f8301168501019250505092915050565b6001600160a01b038116811461119857600080fd5b6000806040838503121561521457600080fd5b823561521f816151ec565b946020939093013593505050565b60006020828403121561523f57600080fd5b813561111c816151ec565b60008060006060848603121561525f57600080fd5b833561526a816151ec565b9250602084013561527a816151ec565b929592945050506040919091013590565b60006020828403121561529d57600080fd5b5035919050565b634e487b7160e01b600052604160045260246000fd5b600067ffffffffffffffff808411156152d5576152d56152a4565b604051601f8501601f19908116603f011681019082821181831017156152fd576152fd6152a4565b8160405280935085815286868601111561531657600080fd5b858560208301376000602087830101525050509392505050565b60006020828403121561534257600080fd5b813567ffffffffffffffff81111561535957600080fd5b8201601f8101841361536a57600080fd5b610f79848235602084016152ba565b6000806000806080858703121561538f57600080fd5b843561539a816151ec565b935060208501356153aa816151ec565b92506040850135915060608501356153c1816151ec565b939692955090935050565b600082601f8301126153dd57600080fd5b61111c838335602085016152ba565b803560ff811681146153fd57600080fd5b919050565b60008060008060008060c0878903121561541b57600080fd5b8635615426816151ec565b95506020870135615436816151ec565b945060408701359350606087013567ffffffffffffffff8082111561545a57600080fd5b6154668a838b016153cc565b9450608089013591508082111561547c57600080fd5b5061548989828a016153cc565b92505061549860a088016153ec565b90509295509295509295565b600080600080600080600080610100898b0312156154c157600080fd5b88356154cc816151ec565b975060208901356154dc816151ec565b965060408901356154ec816151ec565b955060608901359450608089013567ffffffffffffffff8082111561551057600080fd5b61551c8c838d016153cc565b955060a08b013591508082111561553257600080fd5b5061553f8b828c016153cc565b93505061554e60c08a016153ec565b915060e089013561555e816151ec565b809150509295985092959890939650565b6000806040838503121561558257600080fd5b823561558d816151ec565b9150602083013561559d816151ec565b809150509250929050565b600181811c908216806155bc57607f821691505b6020821081036155dc57634e487b7160e01b600052602260045260246000fd5b50919050565b6020808252600a90820152691c994b595b9d195c995960b21b604082015260600190565b634e487b7160e01b600052602160045260246000fd5b6020808252601690820152751858d8dc9d59481a5b9d195c995cdd0819985a5b195960521b604082015260600190565b60006020828403121561565e57600080fd5b5051919050565b6020808252600c908201526b155b985d5d1a1bdc9a5e995960a21b604082015260600190565b60006020828403121561569d57600080fd5b8151801515811461111c57600080fd5b601f8211156156f357600081815260208120601f850160051c810160208610156156d45750805b601f850160051c820191505b81811015610e79578281556001016156e0565b505050565b815167ffffffffffffffff811115615712576157126152a4565b6157268161572084546155a8565b846156ad565b602080601f83116001811461575b57600084156157435750858301515b600019600386901b1c1916600185901b178555610e79565b600085815260208120601f198616915b8281101561578a5788860151825594840194600190910190840161576b565b50858210156157a85787850151600019600388901b60f8161c191681555b5050505050600190811b01905550565b634e487b7160e01b600052601160045260246000fd5b81810381811115610b3257610b326157b8565b6001600160a01b039390931683526020830191909152604082015260600190565b80820180821115610b3257610b326157b8565b60008261583257634e487b7160e01b600052601260045260246000fd5b500490565b6001600160a01b039384168152919092166020820152604081019190915260600190565b6000806040838503121561586e57600080fd5b505080516020909101519092909150565b8082028115828204841417610b3257610b326157b856feddf252ad1be2c89b69c2b068fc378daa952ba7f163c4a11628f55a4df523b3efa2646970667358221220e8d43bd927253b04c83df0d3db7522c1015d7cae54eccd051a1758b1a57c616f64736f6c63430008140033",
  "devdoc": {
    "author": "Kawa",
    "events": {
      "Failure(uint256,uint256,uint256)": {
        "details": "`error` corresponds to enum Error; `info` corresponds to enum FailureInfo, and `detail` is an arbitrary contract-specific code that enables us to report opaque error codes from upgradeable contracts.*"
      }
    },
    "kind": "dev",
    "methods": {
      "_acceptAdmin()": {
        "details": "Admin function for pending admin to accept role and update admin",
        "returns": {
          "_0": "uint 0=success, otherwise a failure (see ErrorReporter.sol for details)"
        }
      },
      "_addReserves(uint256)": {
        "params": {
          "addAmount": "The amount fo underlying token to add as reserves"
        },
        "returns": {
          "_0": "uint 0=success, otherwise a failure (see ErrorReporter.sol for details)"
        }
      },
      "_becomeImplementation(bytes)": {
        "params": {
          "data": "The encoded bytes data for any initialization"
        }
      },
      "_reduceReserves(uint256)": {
        "params": {
          "reduceAmount": "Amount of reduction to reserves"
        },
        "returns": {
          "_0": "uint 0=success, otherwise a failure (see ErrorReporter.sol for details)"
        }
      },
      "_setComptroller(address)": {
        "details": "Admin function to set a new comptroller",
        "returns": {
          "_0": "uint 0=success, otherwise a failure (see ErrorReporter.sol for details)"
        }
      },
      "_setInterestRateModel(address)": {
        "details": "Admin function to accrue interest and update the interest rate model",
        "params": {
          "newInterestRateModel": "the new interest rate model to use"
        },
        "returns": {
          "_0": "uint 0=success, otherwise a failure (see ErrorReporter.sol for details)"
        }
      },
      "_setPendingAdmin(address)": {
        "details": "Admin function to begin change of admin. The newPendingAdmin must call `_acceptAdmin` to finalize the transfer.",
        "params": {
          "newPendingAdmin": "New pending admin."
        },
        "returns": {
          "_0": "uint 0=success, otherwise a failure (see ErrorReporter.sol for details)"
        }
      },
      "_setProtocolSeizeShare(uint256)": {
        "details": "Admin function to accrue interest and update the protocol seize share",
        "params": {
          "newProtocolSeizeShareMantissa": "the new protocol seize share to use"
        },
        "returns": {
          "_0": "uint 0=success, otherwise a failure (see ErrorReporter.sol for details)"
        }
      },
      "_setReserveFactor(uint256)": {
        "details": "Admin function to accrue interest and set a new reserve factor",
        "returns": {
          "_0": "uint 0=success, otherwise a failure (see ErrorReporter.sol for details)"
        }
      },
      "accrueInterest()": {
        "details": "This calculates interest accrued from the last checkpointed block   up to the current block and writes new checkpoint to storage."
      },
      "allowance(address,address)": {
        "params": {
          "owner": "The address of the account which owns the tokens to be spent",
          "spender": "The address of the account which may transfer tokens"
        },
        "returns": {
          "_0": "The number of tokens allowed to be spent (uint.max means infinite)"
        }
      },
      "approve(address,uint256)": {
        "details": "This will overwrite the approval amount for `spender`  and is subject to issues noted [here](https://eips.ethereum.org/EIPS/eip-20#approve)",
        "params": {
          "amount": "The number of tokens that are approved (uint.max means infinite)",
          "spender": "The address of the account which may transfer tokens"
        },
        "returns": {
          "_0": "Whether or not the approval succeeded"
        }
      },
      "balanceOf(address)": {
        "params": {
          "owner": "The address of the account to query"
        },
        "returns": {
          "_0": "The number of tokens owned by `owner`"
        }
      },
      "balanceOfUnderlying(address)": {
        "details": "This also accrues interest in a transaction",
        "params": {
          "owner": "The address of the account to query"
        },
        "returns": {
          "_0": "The amount of underlying owned by `owner`"
        }
      },
      "borrow(uint256)": {
        "params": {
          "borrowAmount": "The amount of the underlying asset to borrow"
        },
        "returns": {
          "_0": "uint 0=success, otherwise a failure (see ErrorReporter.sol for details)"
        }
      },
      "borrowBalanceCurrent(address)": {
        "params": {
          "account": "The address whose balance should be calculated after updating borrowIndex"
        },
        "returns": {
          "_0": "The calculated balance"
        }
      },
      "borrowBalanceStored(address)": {
        "params": {
          "account": "The address whose balance should be calculated"
        },
        "returns": {
          "_0": "The calculated balance"
        }
      },
      "borrowRatePerTimestamp()": {
        "returns": {
          "_0": "The borrow interest rate per timestamp, scaled by 1e18"
        }
      },
      "exchangeRateCurrent()": {
        "returns": {
          "_0": "Calculated exchange rate scaled by 1e18"
        }
      },
      "exchangeRateStored()": {
        "details": "This function does not accrue interest before calculating the exchange rate",
        "returns": {
          "_0": "Calculated exchange rate scaled by 1e18"
        }
      },
      "getAccountSnapshot(address)": {
        "details": "This is used by comptroller to more efficiently perform liquidity checks.",
        "params": {
          "account": "Address of the account to snapshot"
        },
        "returns": {
          "_0": "(possible error, token balance, borrow balance, exchange rate mantissa)"
        }
      },
      "getCash()": {
        "returns": {
          "_0": "The quantity of underlying asset owned by this contract"
        }
      },
      "initialize(address,address,address,uint256,string,string,uint8,address)": {
        "params": {
          "comptroller_": "The address of the Comptroller",
          "decimals_": "ERC-20 decimal precision of this token",
          "initialExchangeRateMantissa_": "The initial exchange rate, scaled by 1e18",
          "interestRateModel_": "The address of the interest rate model",
          "messageHub_": "The address of the MessageHub",
          "name_": "ERC-20 name of this token",
          "symbol_": "ERC-20 symbol of this token",
          "underlying_": "The address of the underlying asset"
        }
      },
      "initialize(address,address,uint256,string,string,uint8)": {
        "params": {
          "comptroller_": "The address of the Comptroller",
          "decimals_": "EIP-20 decimal precision of this token",
          "initialExchangeRateMantissa_": "The initial exchange rate, scaled by 1e18",
          "interestRateModel_": "The address of the interest rate model",
          "name_": "EIP-20 name of this token",
          "symbol_": "EIP-20 symbol of this token"
        }
      },
      "liquidateBorrow(address,address,uint256,address)": {
        "params": {
          "borrower": "The borrower of this kToken to be liquidated",
          "kTokenCollateral": "The market in which to seize collateral from the borrower",
          "liquidator": "The address repaying the borrow and seizing collateral",
          "repayAmount": "The amount of the underlying borrowed asset to repay"
        },
        "returns": {
          "_0": "uint 0=success, otherwise a failure (see ErrorReporter.sol for details)"
        }
      },
      "mint(address,uint256)": {
        "details": "Accrues interest whether or not the operation succeeds, unless reverted",
        "params": {
          "mintAmount": "The amount of the underlying asset to supply",
          "minter": "The address of the account which is supplying the assets"
        },
        "returns": {
          "_0": "uint 0=success, otherwise a failure (see ErrorReporter.sol for details)"
        }
      },
      "redeem(uint256)": {
        "details": "Accrues interest whether or not the operation succeeds, unless reverted",
        "params": {
          "redeemTokens": "The number of kTokens to redeem into underlying"
        },
        "returns": {
          "_0": "uint 0=success, otherwise a failure (see ErrorReporter.sol for details)"
        }
      },
      "redeemUnderlying(uint256)": {
        "details": "Accrues interest whether or not the operation succeeds, unless reverted",
        "params": {
          "redeemAmount": "The amount of underlying to redeem"
        },
        "returns": {
          "_0": "uint 0=success, otherwise a failure (see ErrorReporter.sol for details)"
        }
      },
      "repayBorrow(address,uint256)": {
        "params": {
          "payer": "the account paying off the borrow",
          "repayAmount": "The amount to repay, or uint.max for the full outstanding amount"
        },
        "returns": {
          "_0": "uint 0=success, otherwise a failure (see ErrorReporter.sol for details)"
        }
      },
      "repayBorrowBehalf(address,address,uint256)": {
        "params": {
          "borrower": "the account with the debt being payed off",
          "payer": "the account paying off the borrow",
          "repayAmount": "The amount to repay, or uint.max for the full outstanding amount"
        },
        "returns": {
          "_0": "uint 0=success, otherwise a failure (see ErrorReporter.sol for details)"
        }
      },
      "seize(address,address,uint256)": {
        "details": "Will fail unless called by another kToken during the process of liquidation.  Its absolutely critical to use msg.sender as the borrowed kToken and not a parameter.",
        "params": {
          "borrower": "The account having collateral seized",
          "liquidator": "The account receiving seized collateral",
          "seizeTokens": "The number of kTokens to seize"
        },
        "returns": {
          "_0": "uint 0=success, otherwise a failure (see ErrorReporter.sol for details)"
        }
      },
      "supplyRatePerTimestamp()": {
        "returns": {
          "_0": "The supply interest rate per timestamp, scaled by 1e18"
        }
      },
      "sweepToken(address)": {
        "params": {
          "token": "The address of the ERC-20 token to sweep"
        }
      },
      "totalBorrowsCurrent()": {
        "returns": {
          "_0": "The total borrows with interest"
        }
      },
      "transfer(address,uint256)": {
        "params": {
          "amount": "The number of tokens to transfer",
          "dst": "The address of the destination account"
        },
        "returns": {
          "_0": "Whether or not the transfer succeeded"
        }
      },
      "transferFrom(address,address,uint256)": {
        "params": {
          "amount": "The number of tokens to transfer",
          "dst": "The address of the destination account",
          "src": "The address of the source account"
        },
        "returns": {
          "_0": "Whether or not the transfer succeeded"
        }
      }
    },
    "title": "Kawa's KErc20DelegateBase Contract",
    "version": 1
  },
  "userdoc": {
    "events": {
      "AccrueInterest(uint256,uint256,uint256,uint256)": {
        "notice": "Event emitted when interest is accrued"
      },
      "Approval(address,address,uint256)": {
        "notice": "EIP20 Approval event"
      },
      "Borrow(address,uint256,uint256,uint256)": {
        "notice": "Event emitted when underlying is borrowed"
      },
      "LiquidateBorrow(address,address,uint256,address,uint256)": {
        "notice": "Event emitted when a borrow is liquidated"
      },
      "Mint(address,uint256,uint256)": {
        "notice": "Event emitted when tokens are minted"
      },
      "NewAdmin(address,address)": {
        "notice": "Event emitted when pendingAdmin is accepted, which means admin is updated"
      },
      "NewComptroller(address,address)": {
        "notice": "Event emitted when comptroller is changed"
      },
      "NewMarketInterestRateModel(address,address)": {
        "notice": "Event emitted when interestRateModel is changed"
      },
      "NewMessageHub(address,address)": {
        "notice": "Event emitted when the message hub is changed"
      },
      "NewPendingAdmin(address,address)": {
        "notice": "Event emitted when pendingAdmin is changed"
      },
      "NewProtocolSeizeShare(uint256,uint256)": {
        "notice": "Event emitted when the protocol seize share is changed"
      },
      "NewReserveFactor(uint256,uint256)": {
        "notice": "Event emitted when the reserve factor is changed"
      },
      "Redeem(address,uint256,uint256)": {
        "notice": "Event emitted when tokens are redeemed"
      },
      "RepayBorrow(address,address,uint256,uint256,uint256)": {
        "notice": "Event emitted when a borrow is repaid"
      },
      "ReservesAdded(address,uint256,uint256)": {
        "notice": "Event emitted when the reserves are added"
      },
      "ReservesReduced(address,uint256,uint256)": {
        "notice": "Event emitted when the reserves are reduced"
      },
      "Transfer(address,address,uint256)": {
        "notice": "EIP20 Transfer event"
      }
    },
    "kind": "user",
    "methods": {
      "_acceptAdmin()": {
        "notice": "Accepts transfer of admin rights. msg.sender must be pendingAdmin"
      },
      "_addReserves(uint256)": {
        "notice": "The sender adds to reserves."
      },
      "_becomeImplementation(bytes)": {
        "notice": "Called by the delegator on a delegate to initialize it for duty"
      },
      "_reduceReserves(uint256)": {
        "notice": "Accrues interest and reduces reserves by transferring to admin"
      },
      "_resignImplementation()": {
        "notice": "Called by the delegator on a delegate to forfeit its responsibility"
      },
      "_setComptroller(address)": {
        "notice": "Sets a new comptroller for the market"
      },
      "_setInterestRateModel(address)": {
        "notice": "accrues interest and updates the interest rate model using _setInterestRateModelFresh"
      },
      "_setPendingAdmin(address)": {
        "notice": "Begins transfer of admin rights. The newPendingAdmin must call `_acceptAdmin` to finalize the transfer."
      },
      "_setProtocolSeizeShare(uint256)": {
        "notice": "accrues interest and updates the protocol seize share using _setProtocolSeizeShareFresh"
      },
      "_setReserveFactor(uint256)": {
        "notice": "accrues interest and sets a new reserve factor for the protocol using _setReserveFactorFresh"
      },
      "accrualBlockTimestamp()": {
        "notice": "Block number that interest was last accrued at"
      },
      "accrueInterest()": {
        "notice": "Applies accrued interest to total borrows and reserves"
      },
      "admin()": {
        "notice": "Administrator for this contract"
      },
      "allowance(address,address)": {
        "notice": "Get the current allowance from `owner` for `spender`"
      },
      "approve(address,uint256)": {
        "notice": "Approve `spender` to transfer up to `amount` from `src`"
      },
      "balanceOf(address)": {
        "notice": "Get the token balance of the `owner`"
      },
      "balanceOfUnderlying(address)": {
        "notice": "Get the underlying balance of the `owner`"
      },
      "borrow(uint256)": {
        "notice": "Sender borrows assets from the protocol to their own address"
      },
      "borrowBalanceCurrent(address)": {
        "notice": "Accrue interest to updated borrowIndex and then calculate account's borrow balance using the updated borrowIndex"
      },
      "borrowBalanceStored(address)": {
        "notice": "Return the borrow balance of account based on stored data"
      },
      "borrowIndex()": {
        "notice": "Accumulator of the total earned interest rate since the opening of the market"
      },
      "borrowRatePerTimestamp()": {
        "notice": "Returns the current per-timestamp borrow interest rate for this kToken"
      },
      "comptroller()": {
        "notice": "Contract which oversees inter-kToken operations"
      },
      "constructor": {
        "notice": "Construct an empty delegate"
      },
      "decimals()": {
        "notice": "EIP-20 token decimals for this token"
      },
      "exchangeRateCurrent()": {
        "notice": "Accrue interest then return the up-to-date exchange rate"
      },
      "exchangeRateStored()": {
        "notice": "Calculates the exchange rate from the underlying to the KToken"
      },
      "getAccountSnapshot(address)": {
        "notice": "Get a snapshot of the account's balances, and the cached exchange rate"
      },
      "getCash()": {
        "notice": "Get cash balance of this kToken in the underlying asset"
      },
      "implementation()": {
        "notice": "Implementation address for this contract"
      },
      "initialize(address,address,address,uint256,string,string,uint8,address)": {
        "notice": "Initialize the new money market"
      },
      "initialize(address,address,uint256,string,string,uint8)": {
        "notice": "Initialize the money market"
      },
      "interestRateModel()": {
        "notice": "Model which tells what the current interest rate should be"
      },
      "isKToken()": {
        "notice": "Indicator that this is a KToken contract (for inspection)"
      },
      "liquidateBorrow(address,address,uint256,address)": {
        "notice": "The sender liquidates the borrowers collateral.  The collateral seized is transferred to the liquidator."
      },
      "messageHub()": {
        "notice": "messageHub for this KToken"
      },
      "mint(address,uint256)": {
        "notice": "Sender supplies assets into the market and receives kTokens in exchange"
      },
      "name()": {
        "notice": "EIP-20 token name for this token"
      },
      "pendingAdmin()": {
        "notice": "Pending administrator for this contract"
      },
      "protocolSeizeShareMantissa()": {
        "notice": "Share of seized collateral that is added to reserves"
      },
      "redeem(uint256)": {
        "notice": "Sender redeems kTokens in exchange for the underlying asset"
      },
      "redeemUnderlying(uint256)": {
        "notice": "Sender redeems kTokens in exchange for a specified amount of underlying asset"
      },
      "repayBorrow(address,uint256)": {
        "notice": "Sender repays their own borrow"
      },
      "repayBorrowBehalf(address,address,uint256)": {
        "notice": "Sender repays a borrow belonging to borrower"
      },
      "reserveFactorMantissa()": {
        "notice": "Fraction of interest currently set aside for reserves"
      },
      "seize(address,address,uint256)": {
        "notice": "Transfers collateral tokens (this market) to the liquidator."
      },
      "supplyRatePerTimestamp()": {
        "notice": "Returns the current per-timestamp supply interest rate for this kToken"
      },
      "sweepToken(address)": {
        "notice": "A public function to sweep accidental ERC-20 transfers to this contract. Tokens are sent to admin (timelock)"
      },
      "symbol()": {
        "notice": "EIP-20 token symbol for this token"
      },
      "totalBorrows()": {
        "notice": "Total amount of outstanding borrows of the underlying in this market"
      },
      "totalBorrowsCurrent()": {
        "notice": "Returns the current total borrows plus accrued interest"
      },
      "totalReserves()": {
        "notice": "Total amount of reserves of the underlying held in this market"
      },
      "totalSupply()": {
        "notice": "Total number of tokens in circulation"
      },
      "transfer(address,uint256)": {
        "notice": "Transfer `amount` tokens from `msg.sender` to `dst`"
      },
      "transferFrom(address,address,uint256)": {
        "notice": "Transfer `amount` tokens from `src` to `dst`"
      },
      "underlying()": {
        "notice": "Underlying asset for this KToken"
      }
    },
    "notice": "KTokens which wrap an EIP-20 underlying and are delegated to",
    "version": 1
  },
  "storageLayout": {
    "storage": [
      {
        "astId": 15319,
        "contract": "contracts/KErc20CrossChainDelegate.sol:KErc20CrossChainDelegate",
        "label": "_notEntered",
        "offset": 0,
        "slot": "0",
        "type": "t_bool"
      },
      {
        "astId": 15322,
        "contract": "contracts/KErc20CrossChainDelegate.sol:KErc20CrossChainDelegate",
        "label": "name",
        "offset": 0,
        "slot": "1",
        "type": "t_string_storage"
      },
      {
        "astId": 15325,
        "contract": "contracts/KErc20CrossChainDelegate.sol:KErc20CrossChainDelegate",
        "label": "symbol",
        "offset": 0,
        "slot": "2",
        "type": "t_string_storage"
      },
      {
        "astId": 15328,
        "contract": "contracts/KErc20CrossChainDelegate.sol:KErc20CrossChainDelegate",
        "label": "decimals",
        "offset": 0,
        "slot": "3",
        "type": "t_uint8"
      },
      {
        "astId": 15338,
        "contract": "contracts/KErc20CrossChainDelegate.sol:KErc20CrossChainDelegate",
        "label": "admin",
        "offset": 1,
        "slot": "3",
        "type": "t_address_payable"
      },
      {
        "astId": 15341,
        "contract": "contracts/KErc20CrossChainDelegate.sol:KErc20CrossChainDelegate",
        "label": "pendingAdmin",
        "offset": 0,
        "slot": "4",
        "type": "t_address_payable"
      },
      {
        "astId": 15345,
        "contract": "contracts/KErc20CrossChainDelegate.sol:KErc20CrossChainDelegate",
        "label": "comptroller",
        "offset": 0,
        "slot": "5",
        "type": "t_contract(ComptrollerInterface)6331"
      },
      {
        "astId": 15349,
        "contract": "contracts/KErc20CrossChainDelegate.sol:KErc20CrossChainDelegate",
        "label": "interestRateModel",
        "offset": 0,
        "slot": "6",
        "type": "t_contract(InterestRateModel)17571"
      },
      {
        "astId": 15351,
        "contract": "contracts/KErc20CrossChainDelegate.sol:KErc20CrossChainDelegate",
        "label": "initialExchangeRateMantissa",
        "offset": 0,
        "slot": "7",
        "type": "t_uint256"
      },
      {
        "astId": 15354,
        "contract": "contracts/KErc20CrossChainDelegate.sol:KErc20CrossChainDelegate",
        "label": "reserveFactorMantissa",
        "offset": 0,
        "slot": "8",
        "type": "t_uint256"
      },
      {
        "astId": 15357,
        "contract": "contracts/KErc20CrossChainDelegate.sol:KErc20CrossChainDelegate",
        "label": "accrualBlockTimestamp",
        "offset": 0,
        "slot": "9",
        "type": "t_uint256"
      },
      {
        "astId": 15360,
        "contract": "contracts/KErc20CrossChainDelegate.sol:KErc20CrossChainDelegate",
        "label": "borrowIndex",
        "offset": 0,
        "slot": "10",
        "type": "t_uint256"
      },
      {
        "astId": 15363,
        "contract": "contracts/KErc20CrossChainDelegate.sol:KErc20CrossChainDelegate",
        "label": "totalBorrows",
        "offset": 0,
        "slot": "11",
        "type": "t_uint256"
      },
      {
        "astId": 15366,
        "contract": "contracts/KErc20CrossChainDelegate.sol:KErc20CrossChainDelegate",
        "label": "totalReserves",
        "offset": 0,
        "slot": "12",
        "type": "t_uint256"
      },
      {
        "astId": 15369,
        "contract": "contracts/KErc20CrossChainDelegate.sol:KErc20CrossChainDelegate",
        "label": "totalSupply",
        "offset": 0,
        "slot": "13",
        "type": "t_uint256"
      },
      {
        "astId": 15374,
        "contract": "contracts/KErc20CrossChainDelegate.sol:KErc20CrossChainDelegate",
        "label": "accountTokens",
        "offset": 0,
        "slot": "14",
        "type": "t_mapping(t_address,t_uint256)"
      },
      {
        "astId": 15381,
        "contract": "contracts/KErc20CrossChainDelegate.sol:KErc20CrossChainDelegate",
        "label": "transferAllowances",
        "offset": 0,
        "slot": "15",
        "type": "t_mapping(t_address,t_mapping(t_address,t_uint256))"
      },
      {
        "astId": 15392,
        "contract": "contracts/KErc20CrossChainDelegate.sol:KErc20CrossChainDelegate",
        "label": "accountBorrows",
        "offset": 0,
        "slot": "16",
        "type": "t_mapping(t_address,t_struct(BorrowSnapshot)15387_storage)"
      },
      {
        "astId": 15395,
        "contract": "contracts/KErc20CrossChainDelegate.sol:KErc20CrossChainDelegate",
        "label": "protocolSeizeShareMantissa",
        "offset": 0,
        "slot": "17",
        "type": "t_uint256"
      },
      {
        "astId": 15728,
        "contract": "contracts/KErc20CrossChainDelegate.sol:KErc20CrossChainDelegate",
        "label": "underlying",
        "offset": 0,
        "slot": "18",
        "type": "t_address"
      },
      {
        "astId": 15731,
        "contract": "contracts/KErc20CrossChainDelegate.sol:KErc20CrossChainDelegate",
        "label": "messageHub",
        "offset": 0,
        "slot": "19",
        "type": "t_address"
      },
      {
        "astId": 15900,
        "contract": "contracts/KErc20CrossChainDelegate.sol:KErc20CrossChainDelegate",
        "label": "implementation",
        "offset": 0,
        "slot": "20",
        "type": "t_address"
      }
    ],
    "types": {
      "t_address": {
        "encoding": "inplace",
        "label": "address",
        "numberOfBytes": "20"
      },
      "t_address_payable": {
        "encoding": "inplace",
        "label": "address payable",
        "numberOfBytes": "20"
      },
      "t_bool": {
        "encoding": "inplace",
        "label": "bool",
        "numberOfBytes": "1"
      },
      "t_contract(ComptrollerInterface)6331": {
        "encoding": "inplace",
        "label": "contract ComptrollerInterface",
        "numberOfBytes": "20"
      },
      "t_contract(InterestRateModel)17571": {
        "encoding": "inplace",
        "label": "contract InterestRateModel",
        "numberOfBytes": "20"
      },
      "t_mapping(t_address,t_mapping(t_address,t_uint256))": {
        "encoding": "mapping",
        "key": "t_address",
        "label": "mapping(address => mapping(address => uint256))",
        "numberOfBytes": "32",
        "value": "t_mapping(t_address,t_uint256)"
      },
      "t_mapping(t_address,t_struct(BorrowSnapshot)15387_storage)": {
        "encoding": "mapping",
        "key": "t_address",
        "label": "mapping(address => struct KTokenStorage.BorrowSnapshot)",
        "numberOfBytes": "32",
        "value": "t_struct(BorrowSnapshot)15387_storage"
      },
      "t_mapping(t_address,t_uint256)": {
        "encoding": "mapping",
        "key": "t_address",
        "label": "mapping(address => uint256)",
        "numberOfBytes": "32",
        "value": "t_uint256"
      },
      "t_string_storage": {
        "encoding": "bytes",
        "label": "string",
        "numberOfBytes": "32"
      },
      "t_struct(BorrowSnapshot)15387_storage": {
        "encoding": "inplace",
        "label": "struct KTokenStorage.BorrowSnapshot",
        "members": [
          {
            "astId": 15384,
            "contract": "contracts/KErc20CrossChainDelegate.sol:KErc20CrossChainDelegate",
            "label": "principal",
            "offset": 0,
            "slot": "0",
            "type": "t_uint256"
          },
          {
            "astId": 15386,
            "contract": "contracts/KErc20CrossChainDelegate.sol:KErc20CrossChainDelegate",
            "label": "interestIndex",
            "offset": 0,
            "slot": "1",
            "type": "t_uint256"
          }
        ],
        "numberOfBytes": "64"
      },
      "t_uint256": {
        "encoding": "inplace",
        "label": "uint256",
        "numberOfBytes": "32"
      },
      "t_uint8": {
        "encoding": "inplace",
        "label": "uint8",
        "numberOfBytes": "1"
      }
    }
  }
}