{
  "address": "0x3b6D74a6260f8B77F94E07F5595635F57B2461C0",
  "abi": [
    {
      "inputs": [
        {
          "internalType": "address",
          "name": "_wethUnwrapper",
          "type": "address"
        }
      ],
      "stateMutability": "nonpayable",
      "type": "constructor"
    },
    {
      "anonymous": false,
      "inputs": [
        {
          "indexed": false,
          "internalType": "uint256",
          "name": "cashPrior",
          "type": "uint256"
        },
        {
          "indexed": false,
          "internalType": "uint256",
          "name": "interestAccumulated",
          "type": "uint256"
        },
        {
          "indexed": false,
          "internalType": "uint256",
          "name": "borrowIndex",
          "type": "uint256"
        },
        {
          "indexed": false,
          "internalType": "uint256",
          "name": "totalBorrows",
          "type": "uint256"
        }
      ],
      "name": "AccrueInterest",
      "type": "event"
    },
    {
      "anonymous": false,
      "inputs": [
        {
          "indexed": true,
          "internalType": "address",
          "name": "owner",
          "type": "address"
        },
        {
          "indexed": true,
          "internalType": "address",
          "name": "spender",
          "type": "address"
        },
        {
          "indexed": false,
          "internalType": "uint256",
          "name": "amount",
          "type": "uint256"
        }
      ],
      "name": "Approval",
      "type": "event"
    },
    {
      "anonymous": false,
      "inputs": [
        {
          "indexed": false,
          "internalType": "address",
          "name": "borrower",
          "type": "address"
        },
        {
          "indexed": false,
          "internalType": "uint256",
          "name": "borrowAmount",
          "type": "uint256"
        },
        {
          "indexed": false,
          "internalType": "uint256",
          "name": "accountBorrows",
          "type": "uint256"
        },
        {
          "indexed": false,
          "internalType": "uint256",
          "name": "totalBorrows",
          "type": "uint256"
        }
      ],
      "name": "Borrow",
      "type": "event"
    },
    {
      "anonymous": false,
      "inputs": [
        {
          "indexed": false,
          "internalType": "uint256",
          "name": "error",
          "type": "uint256"
        },
        {
          "indexed": false,
          "internalType": "uint256",
          "name": "info",
          "type": "uint256"
        },
        {
          "indexed": false,
          "internalType": "uint256",
          "name": "detail",
          "type": "uint256"
        }
      ],
      "name": "Failure",
      "type": "event"
    },
    {
      "anonymous": false,
      "inputs": [
        {
          "indexed": false,
          "internalType": "address",
          "name": "liquidator",
          "type": "address"
        },
        {
          "indexed": false,
          "internalType": "address",
          "name": "borrower",
          "type": "address"
        },
        {
          "indexed": false,
          "internalType": "uint256",
          "name": "repayAmount",
          "type": "uint256"
        },
        {
          "indexed": false,
          "internalType": "address",
          "name": "kTokenCollateral",
          "type": "address"
        },
        {
          "indexed": false,
          "internalType": "uint256",
          "name": "seizeTokens",
          "type": "uint256"
        }
      ],
      "name": "LiquidateBorrow",
      "type": "event"
    },
    {
      "anonymous": false,
      "inputs": [
        {
          "indexed": false,
          "internalType": "address",
          "name": "minter",
          "type": "address"
        },
        {
          "indexed": false,
          "internalType": "uint256",
          "name": "mintAmount",
          "type": "uint256"
        },
        {
          "indexed": false,
          "internalType": "uint256",
          "name": "mintTokens",
          "type": "uint256"
        }
      ],
      "name": "Mint",
      "type": "event"
    },
    {
      "anonymous": false,
      "inputs": [
        {
          "indexed": false,
          "internalType": "address",
          "name": "oldAdmin",
          "type": "address"
        },
        {
          "indexed": false,
          "internalType": "address",
          "name": "newAdmin",
          "type": "address"
        }
      ],
      "name": "NewAdmin",
      "type": "event"
    },
    {
      "anonymous": false,
      "inputs": [
        {
          "indexed": false,
          "internalType": "contract ComptrollerInterface",
          "name": "oldComptroller",
          "type": "address"
        },
        {
          "indexed": false,
          "internalType": "contract ComptrollerInterface",
          "name": "newComptroller",
          "type": "address"
        }
      ],
      "name": "NewComptroller",
      "type": "event"
    },
    {
      "anonymous": false,
      "inputs": [
        {
          "indexed": false,
          "internalType": "contract InterestRateModel",
          "name": "oldInterestRateModel",
          "type": "address"
        },
        {
          "indexed": false,
          "internalType": "contract InterestRateModel",
          "name": "newInterestRateModel",
          "type": "address"
        }
      ],
      "name": "NewMarketInterestRateModel",
      "type": "event"
    },
    {
      "anonymous": false,
      "inputs": [
        {
          "indexed": false,
          "internalType": "address",
          "name": "oldPendingAdmin",
          "type": "address"
        },
        {
          "indexed": false,
          "internalType": "address",
          "name": "newPendingAdmin",
          "type": "address"
        }
      ],
      "name": "NewPendingAdmin",
      "type": "event"
    },
    {
      "anonymous": false,
      "inputs": [
        {
          "indexed": false,
          "internalType": "uint256",
          "name": "oldProtocolSeizeShareMantissa",
          "type": "uint256"
        },
        {
          "indexed": false,
          "internalType": "uint256",
          "name": "newProtocolSeizeShareMantissa",
          "type": "uint256"
        }
      ],
      "name": "NewProtocolSeizeShare",
      "type": "event"
    },
    {
      "anonymous": false,
      "inputs": [
        {
          "indexed": false,
          "internalType": "uint256",
          "name": "oldReserveFactorMantissa",
          "type": "uint256"
        },
        {
          "indexed": false,
          "internalType": "uint256",
          "name": "newReserveFactorMantissa",
          "type": "uint256"
        }
      ],
      "name": "NewReserveFactor",
      "type": "event"
    },
    {
      "anonymous": false,
      "inputs": [
        {
          "indexed": false,
          "internalType": "address",
          "name": "redeemer",
          "type": "address"
        },
        {
          "indexed": false,
          "internalType": "uint256",
          "name": "redeemAmount",
          "type": "uint256"
        },
        {
          "indexed": false,
          "internalType": "uint256",
          "name": "redeemTokens",
          "type": "uint256"
        }
      ],
      "name": "Redeem",
      "type": "event"
    },
    {
      "anonymous": false,
      "inputs": [
        {
          "indexed": false,
          "internalType": "address",
          "name": "payer",
          "type": "address"
        },
        {
          "indexed": false,
          "internalType": "address",
          "name": "borrower",
          "type": "address"
        },
        {
          "indexed": false,
          "internalType": "uint256",
          "name": "repayAmount",
          "type": "uint256"
        },
        {
          "indexed": false,
          "internalType": "uint256",
          "name": "accountBorrows",
          "type": "uint256"
        },
        {
          "indexed": false,
          "internalType": "uint256",
          "name": "totalBorrows",
          "type": "uint256"
        }
      ],
      "name": "RepayBorrow",
      "type": "event"
    },
    {
      "anonymous": false,
      "inputs": [
        {
          "indexed": false,
          "internalType": "address",
          "name": "benefactor",
          "type": "address"
        },
        {
          "indexed": false,
          "internalType": "uint256",
          "name": "addAmount",
          "type": "uint256"
        },
        {
          "indexed": false,
          "internalType": "uint256",
          "name": "newTotalReserves",
          "type": "uint256"
        }
      ],
      "name": "ReservesAdded",
      "type": "event"
    },
    {
      "anonymous": false,
      "inputs": [
        {
          "indexed": false,
          "internalType": "address",
          "name": "admin",
          "type": "address"
        },
        {
          "indexed": false,
          "internalType": "uint256",
          "name": "reduceAmount",
          "type": "uint256"
        },
        {
          "indexed": false,
          "internalType": "uint256",
          "name": "newTotalReserves",
          "type": "uint256"
        }
      ],
      "name": "ReservesReduced",
      "type": "event"
    },
    {
      "anonymous": false,
      "inputs": [
        {
          "indexed": true,
          "internalType": "address",
          "name": "from",
          "type": "address"
        },
        {
          "indexed": true,
          "internalType": "address",
          "name": "to",
          "type": "address"
        },
        {
          "indexed": false,
          "internalType": "uint256",
          "name": "amount",
          "type": "uint256"
        }
      ],
      "name": "Transfer",
      "type": "event"
    },
    {
      "inputs": [],
      "name": "_acceptAdmin",
      "outputs": [
        {
          "internalType": "uint256",
          "name": "",
          "type": "uint256"
        }
      ],
      "stateMutability": "nonpayable",
      "type": "function"
    },
    {
      "inputs": [
        {
          "internalType": "uint256",
          "name": "addAmount",
          "type": "uint256"
        }
      ],
      "name": "_addReserves",
      "outputs": [
        {
          "internalType": "uint256",
          "name": "",
          "type": "uint256"
        }
      ],
      "stateMutability": "nonpayable",
      "type": "function"
    },
    {
      "inputs": [
        {
          "internalType": "bytes",
          "name": "data",
          "type": "bytes"
        }
      ],
      "name": "_becomeImplementation",
      "outputs": [],
      "stateMutability": "nonpayable",
      "type": "function"
    },
    {
      "inputs": [
        {
          "internalType": "uint256",
          "name": "reduceAmount",
          "type": "uint256"
        }
      ],
      "name": "_reduceReserves",
      "outputs": [
        {
          "internalType": "uint256",
          "name": "",
          "type": "uint256"
        }
      ],
      "stateMutability": "nonpayable",
      "type": "function"
    },
    {
      "inputs": [],
      "name": "_resignImplementation",
      "outputs": [],
      "stateMutability": "nonpayable",
      "type": "function"
    },
    {
      "inputs": [
        {
          "internalType": "contract ComptrollerInterface",
          "name": "newComptroller",
          "type": "address"
        }
      ],
      "name": "_setComptroller",
      "outputs": [
        {
          "internalType": "uint256",
          "name": "",
          "type": "uint256"
        }
      ],
      "stateMutability": "nonpayable",
      "type": "function"
    },
    {
      "inputs": [
        {
          "internalType": "contract InterestRateModel",
          "name": "newInterestRateModel",
          "type": "address"
        }
      ],
      "name": "_setInterestRateModel",
      "outputs": [
        {
          "internalType": "uint256",
          "name": "",
          "type": "uint256"
        }
      ],
      "stateMutability": "nonpayable",
      "type": "function"
    },
    {
      "inputs": [
        {
          "internalType": "address payable",
          "name": "newPendingAdmin",
          "type": "address"
        }
      ],
      "name": "_setPendingAdmin",
      "outputs": [
        {
          "internalType": "uint256",
          "name": "",
          "type": "uint256"
        }
      ],
      "stateMutability": "nonpayable",
      "type": "function"
    },
    {
      "inputs": [
        {
          "internalType": "uint256",
          "name": "newProtocolSeizeShareMantissa",
          "type": "uint256"
        }
      ],
      "name": "_setProtocolSeizeShare",
      "outputs": [
        {
          "internalType": "uint256",
          "name": "",
          "type": "uint256"
        }
      ],
      "stateMutability": "nonpayable",
      "type": "function"
    },
    {
      "inputs": [
        {
          "internalType": "uint256",
          "name": "newReserveFactorMantissa",
          "type": "uint256"
        }
      ],
      "name": "_setReserveFactor",
      "outputs": [
        {
          "internalType": "uint256",
          "name": "",
          "type": "uint256"
        }
      ],
      "stateMutability": "nonpayable",
      "type": "function"
    },
    {
      "inputs": [],
      "name": "accrualBlockTimestamp",
      "outputs": [
        {
          "internalType": "uint256",
          "name": "",
          "type": "uint256"
        }
      ],
      "stateMutability": "view",
      "type": "function"
    },
    {
      "inputs": [],
      "name": "accrueInterest",
      "outputs": [
        {
          "internalType": "uint256",
          "name": "",
          "type": "uint256"
        }
      ],
      "stateMutability": "nonpayable",
      "type": "function"
    },
    {
      "inputs": [],
      "name": "admin",
      "outputs": [
        {
          "internalType": "address payable",
          "name": "",
          "type": "address"
        }
      ],
      "stateMutability": "view",
      "type": "function"
    },
    {
      "inputs": [
        {
          "internalType": "address",
          "name": "owner",
          "type": "address"
        },
        {
          "internalType": "address",
          "name": "spender",
          "type": "address"
        }
      ],
      "name": "allowance",
      "outputs": [
        {
          "internalType": "uint256",
          "name": "",
          "type": "uint256"
        }
      ],
      "stateMutability": "view",
      "type": "function"
    },
    {
      "inputs": [
        {
          "internalType": "address",
          "name": "spender",
          "type": "address"
        },
        {
          "internalType": "uint256",
          "name": "amount",
          "type": "uint256"
        }
      ],
      "name": "approve",
      "outputs": [
        {
          "internalType": "bool",
          "name": "",
          "type": "bool"
        }
      ],
      "stateMutability": "nonpayable",
      "type": "function"
    },
    {
      "inputs": [
        {
          "internalType": "address",
          "name": "owner",
          "type": "address"
        }
      ],
      "name": "balanceOf",
      "outputs": [
        {
          "internalType": "uint256",
          "name": "",
          "type": "uint256"
        }
      ],
      "stateMutability": "view",
      "type": "function"
    },
    {
      "inputs": [
        {
          "internalType": "address",
          "name": "owner",
          "type": "address"
        }
      ],
      "name": "balanceOfUnderlying",
      "outputs": [
        {
          "internalType": "uint256",
          "name": "",
          "type": "uint256"
        }
      ],
      "stateMutability": "nonpayable",
      "type": "function"
    },
    {
      "inputs": [
        {
          "internalType": "uint256",
          "name": "borrowAmount",
          "type": "uint256"
        }
      ],
      "name": "borrow",
      "outputs": [
        {
          "internalType": "uint256",
          "name": "",
          "type": "uint256"
        }
      ],
      "stateMutability": "nonpayable",
      "type": "function"
    },
    {
      "inputs": [
        {
          "internalType": "address",
          "name": "account",
          "type": "address"
        }
      ],
      "name": "borrowBalanceCurrent",
      "outputs": [
        {
          "internalType": "uint256",
          "name": "",
          "type": "uint256"
        }
      ],
      "stateMutability": "nonpayable",
      "type": "function"
    },
    {
      "inputs": [
        {
          "internalType": "address",
          "name": "account",
          "type": "address"
        }
      ],
      "name": "borrowBalanceStored",
      "outputs": [
        {
          "internalType": "uint256",
          "name": "",
          "type": "uint256"
        }
      ],
      "stateMutability": "view",
      "type": "function"
    },
    {
      "inputs": [],
      "name": "borrowIndex",
      "outputs": [
        {
          "internalType": "uint256",
          "name": "",
          "type": "uint256"
        }
      ],
      "stateMutability": "view",
      "type": "function"
    },
    {
      "inputs": [],
      "name": "borrowRatePerTimestamp",
      "outputs": [
        {
          "internalType": "uint256",
          "name": "",
          "type": "uint256"
        }
      ],
      "stateMutability": "view",
      "type": "function"
    },
    {
      "inputs": [],
      "name": "comptroller",
      "outputs": [
        {
          "internalType": "contract ComptrollerInterface",
          "name": "",
          "type": "address"
        }
      ],
      "stateMutability": "view",
      "type": "function"
    },
    {
      "inputs": [],
      "name": "decimals",
      "outputs": [
        {
          "internalType": "uint8",
          "name": "",
          "type": "uint8"
        }
      ],
      "stateMutability": "view",
      "type": "function"
    },
    {
      "inputs": [],
      "name": "exchangeRateCurrent",
      "outputs": [
        {
          "internalType": "uint256",
          "name": "",
          "type": "uint256"
        }
      ],
      "stateMutability": "nonpayable",
      "type": "function"
    },
    {
      "inputs": [],
      "name": "exchangeRateStored",
      "outputs": [
        {
          "internalType": "uint256",
          "name": "",
          "type": "uint256"
        }
      ],
      "stateMutability": "view",
      "type": "function"
    },
    {
      "inputs": [
        {
          "internalType": "address",
          "name": "account",
          "type": "address"
        }
      ],
      "name": "getAccountSnapshot",
      "outputs": [
        {
          "internalType": "uint256",
          "name": "",
          "type": "uint256"
        },
        {
          "internalType": "uint256",
          "name": "",
          "type": "uint256"
        },
        {
          "internalType": "uint256",
          "name": "",
          "type": "uint256"
        },
        {
          "internalType": "uint256",
          "name": "",
          "type": "uint256"
        }
      ],
      "stateMutability": "view",
      "type": "function"
    },
    {
      "inputs": [],
      "name": "getCash",
      "outputs": [
        {
          "internalType": "uint256",
          "name": "",
          "type": "uint256"
        }
      ],
      "stateMutability": "view",
      "type": "function"
    },
    {
      "inputs": [],
      "name": "implementation",
      "outputs": [
        {
          "internalType": "address",
          "name": "",
          "type": "address"
        }
      ],
      "stateMutability": "view",
      "type": "function"
    },
    {
      "inputs": [
        {
          "internalType": "address",
          "name": "underlying_",
          "type": "address"
        },
        {
          "internalType": "contract ComptrollerInterface",
          "name": "comptroller_",
          "type": "address"
        },
        {
          "internalType": "contract InterestRateModel",
          "name": "interestRateModel_",
          "type": "address"
        },
        {
          "internalType": "uint256",
          "name": "initialExchangeRateMantissa_",
          "type": "uint256"
        },
        {
          "internalType": "string",
          "name": "name_",
          "type": "string"
        },
        {
          "internalType": "string",
          "name": "symbol_",
          "type": "string"
        },
        {
          "internalType": "uint8",
          "name": "decimals_",
          "type": "uint8"
        }
      ],
      "name": "initialize",
      "outputs": [],
      "stateMutability": "nonpayable",
      "type": "function"
    },
    {
      "inputs": [
        {
          "internalType": "contract ComptrollerInterface",
          "name": "comptroller_",
          "type": "address"
        },
        {
          "internalType": "contract InterestRateModel",
          "name": "interestRateModel_",
          "type": "address"
        },
        {
          "internalType": "uint256",
          "name": "initialExchangeRateMantissa_",
          "type": "uint256"
        },
        {
          "internalType": "string",
          "name": "name_",
          "type": "string"
        },
        {
          "internalType": "string",
          "name": "symbol_",
          "type": "string"
        },
        {
          "internalType": "uint8",
          "name": "decimals_",
          "type": "uint8"
        }
      ],
      "name": "initialize",
      "outputs": [],
      "stateMutability": "nonpayable",
      "type": "function"
    },
    {
      "inputs": [],
      "name": "interestRateModel",
      "outputs": [
        {
          "internalType": "contract InterestRateModel",
          "name": "",
          "type": "address"
        }
      ],
      "stateMutability": "view",
      "type": "function"
    },
    {
      "inputs": [],
      "name": "isKToken",
      "outputs": [
        {
          "internalType": "bool",
          "name": "",
          "type": "bool"
        }
      ],
      "stateMutability": "view",
      "type": "function"
    },
    {
      "inputs": [
        {
          "internalType": "address",
          "name": "borrower",
          "type": "address"
        },
        {
          "internalType": "uint256",
          "name": "repayAmount",
          "type": "uint256"
        },
        {
          "internalType": "contract KTokenInterface",
          "name": "kTokenCollateral",
          "type": "address"
        }
      ],
      "name": "liquidateBorrow",
      "outputs": [
        {
          "internalType": "uint256",
          "name": "",
          "type": "uint256"
        }
      ],
      "stateMutability": "nonpayable",
      "type": "function"
    },
    {
      "inputs": [],
      "name": "messageHub",
      "outputs": [
        {
          "internalType": "address",
          "name": "",
          "type": "address"
        }
      ],
      "stateMutability": "view",
      "type": "function"
    },
    {
      "inputs": [
        {
          "internalType": "uint256",
          "name": "mintAmount",
          "type": "uint256"
        }
      ],
      "name": "mint",
      "outputs": [
        {
          "internalType": "uint256",
          "name": "",
          "type": "uint256"
        }
      ],
      "stateMutability": "nonpayable",
      "type": "function"
    },
    {
      "inputs": [
        {
          "internalType": "uint256",
          "name": "mintAmount",
          "type": "uint256"
        },
        {
          "internalType": "uint256",
          "name": "deadline",
          "type": "uint256"
        },
        {
          "internalType": "uint8",
          "name": "v",
          "type": "uint8"
        },
        {
          "internalType": "bytes32",
          "name": "r",
          "type": "bytes32"
        },
        {
          "internalType": "bytes32",
          "name": "s",
          "type": "bytes32"
        }
      ],
      "name": "mintWithPermit",
      "outputs": [
        {
          "internalType": "uint256",
          "name": "",
          "type": "uint256"
        }
      ],
      "stateMutability": "nonpayable",
      "type": "function"
    },
    {
      "inputs": [],
      "name": "name",
      "outputs": [
        {
          "internalType": "string",
          "name": "",
          "type": "string"
        }
      ],
      "stateMutability": "view",
      "type": "function"
    },
    {
      "inputs": [],
      "name": "pendingAdmin",
      "outputs": [
        {
          "internalType": "address payable",
          "name": "",
          "type": "address"
        }
      ],
      "stateMutability": "view",
      "type": "function"
    },
    {
      "inputs": [],
      "name": "protocolSeizeShareMantissa",
      "outputs": [
        {
          "internalType": "uint256",
          "name": "",
          "type": "uint256"
        }
      ],
      "stateMutability": "view",
      "type": "function"
    },
    {
      "inputs": [
        {
          "internalType": "uint256",
          "name": "redeemTokens",
          "type": "uint256"
        }
      ],
      "name": "redeem",
      "outputs": [
        {
          "internalType": "uint256",
          "name": "",
          "type": "uint256"
        }
      ],
      "stateMutability": "nonpayable",
      "type": "function"
    },
    {
      "inputs": [
        {
          "internalType": "uint256",
          "name": "redeemAmount",
          "type": "uint256"
        }
      ],
      "name": "redeemUnderlying",
      "outputs": [
        {
          "internalType": "uint256",
          "name": "",
          "type": "uint256"
        }
      ],
      "stateMutability": "nonpayable",
      "type": "function"
    },
    {
      "inputs": [
        {
          "internalType": "uint256",
          "name": "repayAmount",
          "type": "uint256"
        }
      ],
      "name": "repayBorrow",
      "outputs": [
        {
          "internalType": "uint256",
          "name": "",
          "type": "uint256"
        }
      ],
      "stateMutability": "nonpayable",
      "type": "function"
    },
    {
      "inputs": [
        {
          "internalType": "address",
          "name": "borrower",
          "type": "address"
        },
        {
          "internalType": "uint256",
          "name": "repayAmount",
          "type": "uint256"
        }
      ],
      "name": "repayBorrowBehalf",
      "outputs": [
        {
          "internalType": "uint256",
          "name": "",
          "type": "uint256"
        }
      ],
      "stateMutability": "nonpayable",
      "type": "function"
    },
    {
      "inputs": [],
      "name": "reserveFactorMantissa",
      "outputs": [
        {
          "internalType": "uint256",
          "name": "",
          "type": "uint256"
        }
      ],
      "stateMutability": "view",
      "type": "function"
    },
    {
      "inputs": [
        {
          "internalType": "address",
          "name": "liquidator",
          "type": "address"
        },
        {
          "internalType": "address",
          "name": "borrower",
          "type": "address"
        },
        {
          "internalType": "uint256",
          "name": "seizeTokens",
          "type": "uint256"
        }
      ],
      "name": "seize",
      "outputs": [
        {
          "internalType": "uint256",
          "name": "",
          "type": "uint256"
        }
      ],
      "stateMutability": "nonpayable",
      "type": "function"
    },
    {
      "inputs": [],
      "name": "supplyRatePerTimestamp",
      "outputs": [
        {
          "internalType": "uint256",
          "name": "",
          "type": "uint256"
        }
      ],
      "stateMutability": "view",
      "type": "function"
    },
    {
      "inputs": [
        {
          "internalType": "contract EIP20NonStandardInterface",
          "name": "token",
          "type": "address"
        }
      ],
      "name": "sweepToken",
      "outputs": [],
      "stateMutability": "nonpayable",
      "type": "function"
    },
    {
      "inputs": [],
      "name": "symbol",
      "outputs": [
        {
          "internalType": "string",
          "name": "",
          "type": "string"
        }
      ],
      "stateMutability": "view",
      "type": "function"
    },
    {
      "inputs": [],
      "name": "totalBorrows",
      "outputs": [
        {
          "internalType": "uint256",
          "name": "",
          "type": "uint256"
        }
      ],
      "stateMutability": "view",
      "type": "function"
    },
    {
      "inputs": [],
      "name": "totalBorrowsCurrent",
      "outputs": [
        {
          "internalType": "uint256",
          "name": "",
          "type": "uint256"
        }
      ],
      "stateMutability": "nonpayable",
      "type": "function"
    },
    {
      "inputs": [],
      "name": "totalReserves",
      "outputs": [
        {
          "internalType": "uint256",
          "name": "",
          "type": "uint256"
        }
      ],
      "stateMutability": "view",
      "type": "function"
    },
    {
      "inputs": [],
      "name": "totalSupply",
      "outputs": [
        {
          "internalType": "uint256",
          "name": "",
          "type": "uint256"
        }
      ],
      "stateMutability": "view",
      "type": "function"
    },
    {
      "inputs": [
        {
          "internalType": "address",
          "name": "dst",
          "type": "address"
        },
        {
          "internalType": "uint256",
          "name": "amount",
          "type": "uint256"
        }
      ],
      "name": "transfer",
      "outputs": [
        {
          "internalType": "bool",
          "name": "",
          "type": "bool"
        }
      ],
      "stateMutability": "nonpayable",
      "type": "function"
    },
    {
      "inputs": [
        {
          "internalType": "address",
          "name": "src",
          "type": "address"
        },
        {
          "internalType": "address",
          "name": "dst",
          "type": "address"
        },
        {
          "internalType": "uint256",
          "name": "amount",
          "type": "uint256"
        }
      ],
      "name": "transferFrom",
      "outputs": [
        {
          "internalType": "bool",
          "name": "",
          "type": "bool"
        }
      ],
      "stateMutability": "nonpayable",
      "type": "function"
    },
    {
      "inputs": [],
      "name": "underlying",
      "outputs": [
        {
          "internalType": "address",
          "name": "",
          "type": "address"
        }
      ],
      "stateMutability": "view",
      "type": "function"
    },
    {
      "inputs": [],
      "name": "wethUnwrapper",
      "outputs": [
        {
          "internalType": "address",
          "name": "",
          "type": "address"
        }
      ],
      "stateMutability": "view",
      "type": "function"
    }
  ],
  "transactionHash": "0xbdc167e041e744424c12db6039ecbd2c28d3ce101bf888209c3bddef21b8a363",
  "args": [
    "0xabC5CC1DeEcF760d4feC98163123D1e90F3A318f"
  ],
  "numDeployments": 1,
  "solcInputHash": "793c830b20ac64feae3c614cbe433c41",
  "bytecode": "0x60a06040523480156200001157600080fd5b50604051620059ad380380620059ad833981016040819052620000349162000046565b6001600160a01b031660805262000078565b6000602082840312156200005957600080fd5b81516001600160a01b03811681146200007157600080fd5b9392505050565b60805161590b620000a260003960008181610521015281816137af01526137fa015261590b6000f3fe608060405234801561001057600080fd5b50600436106103835760003560e01c806370a08231116101de578063bd6d894d1161010f578063db006a75116100ad578063f3fdb15a1161007c578063f3fdb15a14610777578063f5e3c4621461078a578063f851a4401461079d578063fca7820b146107b557600080fd5b8063db006a7514610710578063dd62ed3e14610723578063e9c714f21461075c578063f2b3abbd1461076457600080fd5b8063cd91801c116100e9578063cd91801c146106e4578063cfa99201146106ec578063d0248fb4146106f5578063d3bd2c721461070857600080fd5b8063bd6d894d14610696578063c37f68e21461069e578063c5ebeaec146106d157600080fd5b806399d8c1b41161017c578063a9059cbb11610156578063a9059cbb14610654578063aa5af0fd14610667578063b2a02ff114610670578063b71d1a0c1461068357600080fd5b806399d8c1b414610626578063a0712d6814610639578063a6afed951461064c57600080fd5b8063852a12e3116101b8578063852a12e3146105ef5780638f840ddd1461060257806395d89b411461060b57806395dd91931461061357600080fd5b806370a08231146105ab57806373acee98146105d457806383030846146105dc57600080fd5b8063313ce567116102b85780634f4247a1116102565780635fe3b567116102305780635fe3b56714610569578063601a0bf11461057c5780636752e7021461058f5780636f307dc31461059857600080fd5b80634f4247a11461051c57806356e67728146105435780635c60da1b1461055657600080fd5b80633e941010116102925780633e941010146104da5780634576b5db146104ed57806347bd3718146105005780634847655d1461050957600080fd5b8063313ce567146104a05780633af9e669146104bf5780633b1d21a2146104d257600080fd5b8063182df0f51161032557806323b872dd116102ff57806323b872dd146104475780632608f8181461045a578063267822471461046d57806329d9109c1461049857600080fd5b8063182df0f5146104195780631a31d465146104215780631be195601461043457600080fd5b8063153ab50511610361578063153ab505146103ea578063173b9904146103f457806317bfdfbc146103fd57806318160ddd1461041057600080fd5b806306fdde0314610388578063095ea7b3146103a65780630e752702146103c9575b600080fd5b6103906107c8565b60405161039d91906151c6565b60405180910390f35b6103b96103b436600461520e565b610856565b604051901515815260200161039d565b6103dc6103d736600461523a565b6108c6565b60405190815260200161039d565b6103f26108da565b005b6103dc60085481565b6103dc61040b366004615253565b610956565b6103dc600d5481565b6103dc6109c6565b6103f261042f366004615332565b610a57565b6103f2610442366004615253565b610aec565b6103b96104553660046153e8565b610cb8565b6103dc61046836600461520e565b610d08565b600454610480906001600160a01b031681565b6040516001600160a01b03909116815260200161039d565b6103b9600181565b6003546104ad9060ff1681565b60405160ff909116815260200161039d565b6103dc6104cd366004615253565b610d1e565b6103dc610dce565b6103dc6104e836600461523a565b610ddd565b6103dc6104fb366004615253565b610de8565b6103dc600b5481565b601354610480906001600160a01b031681565b6104807f000000000000000000000000000000000000000000000000000000000000000081565b6103f2610551366004615429565b610f2e565b601454610480906001600160a01b031681565b600554610480906001600160a01b031681565b6103dc61058a36600461523a565b610fa6565b6103dc60115481565b601254610480906001600160a01b031681565b6103dc6105b9366004615253565b6001600160a01b03166000908152600e602052604090205490565b6103dc611025565b6103dc6105ea36600461523a565b61108b565b6103dc6105fd36600461523a565b6110ed565b6103dc600c5481565b6103906110f8565b6103dc610621366004615253565b611105565b6103f2610634366004615472565b61119f565b6103dc61064736600461523a565b6113ec565b6103dc6113f8565b6103b961066236600461520e565b611769565b6103dc600a5481565b6103dc61067e3660046153e8565b6117b8565b6103dc610691366004615253565b611807565b6103dc611887565b6106b16106ac366004615253565b6118f3565b60408051948552602085019390935291830152606082015260800161039d565b6103dc6106df36600461523a565b611994565b6103dc61199f565b6103dc60095481565b6103dc610703366004615514565b611a2f565b6103dc611a66565b6103dc61071e36600461523a565b611ac1565b6103dc61073136600461555b565b6001600160a01b039182166000908152600f6020908152604080832093909416825291909152205490565b6103dc611acc565b6103dc610772366004615253565b611bc4565b600654610480906001600160a01b031681565b6103dc610798366004615594565b611bfc565b6003546104809061010090046001600160a01b031681565b6103dc6107c336600461523a565b611c14565b600180546107d5906155d6565b80601f0160208091040260200160405190810160405280929190818152602001828054610801906155d6565b801561084e5780601f106108235761010080835404028352916020019161084e565b820191906000526020600020905b81548152906001019060200180831161083157829003601f168201915b505050505081565b336000818152600f602090815260408083206001600160a01b03871680855292528083208590555191929182907f8c5be1e5ebec7d5bd14f71427d1e84f3dd0314c0f7b2291e5b200ac8c7c3b925906108b29087815260200190565b60405180910390a360019150505b92915050565b6000806108d283611c76565b509392505050565b60035461010090046001600160a01b031633146109545760405162461bcd60e51b815260206004820152602d60248201527f6f6e6c79207468652061646d696e206d61792063616c6c205f72657369676e4960448201526c36b83632b6b2b73a30ba34b7b760991b60648201526084015b60405180910390fd5b565b6000805460ff166109795760405162461bcd60e51b815260040161094b90615610565b6000805460ff1916815561098b6113f8565b146109a85760405162461bcd60e51b815260040161094b9061564a565b6109b182611105565b90505b6000805460ff19166001179055919050565b60008060006109d3611d02565b909250905060008260038111156109ec576109ec615634565b146108c05760405162461bcd60e51b815260206004820152603560248201527f65786368616e67655261746553746f7265643a2065786368616e67655261746560448201527414dd1bdc9959125b9d195c9b985b0819985a5b1959605a1b606482015260840161094b565b610a6586868686868661119f565b601280546001600160a01b0319166001600160a01b038916908117909155604080516318160ddd60e01b815290516318160ddd916004808201926020929091908290030181865afa158015610abe573d6000803e3d6000fd5b505050506040513d601f19601f82011682018060405250810190610ae2919061567a565b5050505050505050565b60035461010090046001600160a01b03163314610b635760405162461bcd60e51b815260206004820152602f60248201527f4b45726332303a3a7377656570546f6b656e3a206f6e6c792061646d696e206360448201526e616e20737765657020746f6b656e7360881b606482015260840161094b565b6012546001600160a01b0390811690821603610bdc5760405162461bcd60e51b815260206004820152603260248201527f4b45726332303a3a7377656570546f6b656e3a2063616e206e6f74207377656560448201527138103ab73232b9363cb4b733903a37b5b2b760711b606482015260840161094b565b6040516370a0823160e01b81523060048201526000906001600160a01b038316906370a0823190602401602060405180830381865afa158015610c23573d6000803e3d6000fd5b505050506040513d601f19601f82011682018060405250810190610c47919061567a565b60035460405163a9059cbb60e01b81526001600160a01b03610100909204821660048201526024810183905291925083169063a9059cbb90604401600060405180830381600087803b158015610c9c57600080fd5b505af1158015610cb0573d6000803e3d6000fd5b505050505050565b6000805460ff16610cdb5760405162461bcd60e51b815260040161094b90615610565b6000805460ff19168155610cf133868686611dc0565b1490506000805460ff191660011790559392505050565b600080610d15848461205c565b50949350505050565b6000806040518060200160405280610d34611887565b90526001600160a01b0384166000908152600e6020526040812054919250908190610d609084906120ea565b90925090506000826003811115610d7957610d79615634565b14610dc65760405162461bcd60e51b815260206004820152601f60248201527f62616c616e636520636f756c64206e6f742062652063616c63756c6174656400604482015260640161094b565b949350505050565b6000610dd861213d565b905090565b60006108c0826121b2565b60035460009061010090046001600160a01b03163314610e0e576108c06001603f61222a565b60055460408051623f1ee960e11b815290516001600160a01b0392831692851691627e3dd29160048083019260209291908290030181865afa158015610e58573d6000803e3d6000fd5b505050506040513d601f19601f82011682018060405250810190610e7c9190615693565b610ec85760405162461bcd60e51b815260206004820152601c60248201527f6d61726b6572206d6574686f642072657475726e65642066616c736500000000604482015260640161094b565b600580546001600160a01b0319166001600160a01b0385811691821790925560408051928416835260208301919091527f7ac369dbd14fa5ea3f473ed67cc9d598964a77501540ba6751eb0b3decf5870d91015b60405180910390a160005b9392505050565b60035461010090046001600160a01b03163314610fa35760405162461bcd60e51b815260206004820152602d60248201527f6f6e6c79207468652061646d696e206d61792063616c6c205f6265636f6d654960448201526c36b83632b6b2b73a30ba34b7b760991b606482015260840161094b565b50565b6000805460ff16610fc95760405162461bcd60e51b815260040161094b90615610565b6000805460ff19168155610fdb6113f8565b9050801561100757610fff816010811115610ff857610ff8615634565b603061222a565b9150506109b4565b611010836122a3565b9150506000805460ff19166001179055919050565b6000805460ff166110485760405162461bcd60e51b815260040161094b90615610565b6000805460ff1916815561105a6113f8565b146110775760405162461bcd60e51b815260040161094b9061564a565b50600b546000805460ff1916600117905590565b6000805460ff166110ae5760405162461bcd60e51b815260040161094b90615610565b6000805460ff191681556110c06113f8565b905080156110e457610fff8160108111156110dd576110dd615634565b605161222a565b611010836123e7565b60006108c082612463565b600280546107d5906155d6565b6000806000611113846124c8565b9092509050600082600381111561112c5761112c615634565b14610f275760405162461bcd60e51b815260206004820152603760248201527f626f72726f7742616c616e636553746f7265643a20626f72726f7742616c616e60448201527f636553746f726564496e7465726e616c206661696c6564000000000000000000606482015260840161094b565b60035461010090046001600160a01b0316331461120a5760405162461bcd60e51b8152602060048201526024808201527f6f6e6c792061646d696e206d617920696e697469616c697a6520746865206d616044820152631c9ad95d60e21b606482015260840161094b565b60095415801561121a5750600a54155b6112725760405162461bcd60e51b815260206004820152602360248201527f6d61726b6574206d6179206f6e6c7920626520696e697469616c697a6564206f6044820152626e636560e81b606482015260840161094b565b6007849055836112dd5760405162461bcd60e51b815260206004820152603060248201527f696e697469616c2065786368616e67652072617465206d75737420626520677260448201526f32b0ba32b9103a3430b7103d32b9379760811b606482015260840161094b565b60006112e887610de8565b905080156113385760405162461bcd60e51b815260206004820152601a60248201527f73657474696e6720636f6d7074726f6c6c6572206661696c6564000000000000604482015260640161094b565b42600955670de0b6b3a7640000600a5561135186612583565b905080156113ac5760405162461bcd60e51b815260206004820152602260248201527f73657474696e6720696e7465726573742072617465206d6f64656c206661696c604482015261195960f21b606482015260840161094b565b60016113b885826156fb565b5060026113c584826156fb565b50506003805460ff90921660ff199283161790556000805490911660011790555050505050565b6000806108d2836126de565b60095460009042908181036114115760005b9250505090565b600061141b61213d565b600b54600c54600a546006546040516315f2405360e01b81526004810186905260248101859052604481018490529495509293919290916000916001600160a01b0316906315f2405390606401602060405180830381865afa158015611485573d6000803e3d6000fd5b505050506040513d601f19601f820116820180604052508101906114a9919061567a565b905065048c273950008111156115015760405162461bcd60e51b815260206004820152601c60248201527f626f72726f772072617465206973206162737572646c79206869676800000000604482015260640161094b565b60008061150e8989612743565b9092509050600082600381111561152757611527615634565b146115745760405162461bcd60e51b815260206004820152601f60248201527f636f756c64206e6f742063616c63756c61746520626c6f636b2064656c746100604482015260640161094b565b6040805160208101909152600081526000806000806115a160405180602001604052808a8152508761276e565b909750945060008760038111156115ba576115ba615634565b146115f0576115dd600960068960038111156115d8576115d8615634565b6127ea565b9e50505050505050505050505050505090565b6115fa858c6120ea565b9097509350600087600381111561161357611613615634565b14611631576115dd600960018960038111156115d8576115d8615634565b61163b848c612862565b9097509250600087600381111561165457611654615634565b14611672576115dd600960048960038111156115d8576115d8615634565b61168d6040518060200160405280600854815250858c612892565b909750915060008760038111156116a6576116a6615634565b146116c4576115dd600960058960038111156115d8576115d8615634565b6116cf858a8b612892565b909750905060008760038111156116e8576116e8615634565b14611706576115dd600960038960038111156115d8576115d8615634565b60098e9055600a819055600b839055600c829055604080518d815260208101869052908101829052606081018490527f4dec04e750ca11537cabcd8a9eab06494de08da3735bc8871cd41250e190bc049060800160405180910390a160006115dd565b6000805460ff1661178c5760405162461bcd60e51b815260040161094b90615610565b6000805460ff191681556117a233338686611dc0565b1490506000805460ff1916600117905592915050565b6000805460ff166117db5760405162461bcd60e51b815260040161094b90615610565b6000805460ff191690556117f1338585856128ed565b90506000805460ff191660011790559392505050565b60035460009061010090046001600160a01b0316331461182d576108c06001604561222a565b600480546001600160a01b038481166001600160a01b031983168117909355604080519190921680825260208201939093527fca4f2f25d0898edd99413412fb94012f9e54ec8142f9b093e7720646a95b16a99101610f1c565b6000805460ff166118aa5760405162461bcd60e51b815260040161094b90615610565b6000805460ff191681556118bc6113f8565b146118d95760405162461bcd60e51b815260040161094b9061564a565b6118e16109c6565b90506000805460ff1916600117905590565b6001600160a01b0381166000908152600e602052604081205481908190819081808061191e896124c8565b93509050600081600381111561193657611936615634565b146119545760095b600080600097509750975097505050505061198d565b61195c611d02565b92509050600081600381111561197457611974615634565b1461198057600961193e565b5060009650919450925090505b9193509193565b60006108c082612d41565b6006546000906001600160a01b03166315f240536119bb61213d565b600b54600c546040516001600160e01b031960e086901b1681526004810193909352602483019190915260448201526064015b602060405180830381865afa158015611a0b573d6000803e3d6000fd5b505050506040513d601f19601f82011682018060405250810190610dd8919061567a565b6012546000906001600160a01b0316611a4e8133308a8a8a8a8a612da4565b6000611a59886126de565b5098975050505050505050565b6006546000906001600160a01b031663b8168816611a8261213d565b600b54600c546008546040516001600160e01b031960e087901b16815260048101949094526024840192909252604483015260648201526084016119ee565b60006108c082612f7a565b6004546000906001600160a01b031633141580611ae7575033155b15611af857610dd86001600061222a565b60038054600480546001600160a01b03808216610100818102610100600160a81b0319871617968790556001600160a01b031990931690935560408051948390048216808652929095041660208401529290917ff9ffabca9c8276e99321725bcb43fb076a6c66a54b7f21c4e8146d8519b417dc910160405180910390a1600454604080516001600160a01b03808516825290921660208301527fca4f2f25d0898edd99413412fb94012f9e54ec8142f9b093e7720646a95b16a9910160405180910390a1600061140a565b600080611bcf6113f8565b90508015611bf357610f27816010811115611bec57611bec615634565b604061222a565b610f2783612583565b600080611c0a858585612fd8565b5095945050505050565b6000805460ff16611c375760405162461bcd60e51b815260040161094b90615610565b6000805460ff19168155611c496113f8565b90508015611c6d57610fff816010811115611c6657611c66615634565b604661222a565b611010836130f0565b60008054819060ff16611c9b5760405162461bcd60e51b815260040161094b90615610565b6000805460ff19168155611cad6113f8565b90508015611cdd57611cd1816010811115611cca57611cca615634565b603661222a565b60009250925050611cee565b611ce8333386613185565b92509250505b6000805460ff191660011790559092909150565b600d546000908190808203611d1e575050600754600092909150565b6000611d2861213d565b90506000611d426040518060200160405280600081525090565b6000611d5384600b54600c5461359c565b935090506000816003811115611d6b57611d6b615634565b14611d7d579660009650945050505050565b611d8783866135e0565b925090506000816003811115611d9f57611d9f615634565b14611db1579660009650945050505050565b50516000969095509350505050565b6005546040516317b9b84b60e31b81523060048201526001600160a01b038581166024830152848116604483015260648201849052600092839291169063bdcdc258906084016020604051808303816000875af1158015611e25573d6000803e3d6000fd5b505050506040513d601f19601f82011682018060405250810190611e49919061567a565b90508015611e6657611e5e6003604a836127ea565b915050610dc6565b836001600160a01b0316856001600160a01b031603611e8b57611e5e6002604b61222a565b6000856001600160a01b0316876001600160a01b031603611eaf5750600019611ed7565b506001600160a01b038086166000908152600f60209081526040808320938a16835292905220545b600080600080611ee78589612743565b90945092506000846003811115611f0057611f00615634565b14611f1e57611f116009604b61222a565b9650505050505050610dc6565b6001600160a01b038a166000908152600e6020526040902054611f419089612743565b90945091506000846003811115611f5a57611f5a615634565b14611f6b57611f116009604c61222a565b6001600160a01b0389166000908152600e6020526040902054611f8e9089612862565b90945090506000846003811115611fa757611fa7615634565b14611fb857611f116009604d61222a565b6001600160a01b03808b166000908152600e6020526040808220859055918b168152208190556000198514612010576001600160a01b03808b166000908152600f60209081526040808320938f168352929052208390555b886001600160a01b03168a6001600160a01b03166000805160206158b68339815191528a60405161204391815260200190565b60405180910390a35060009a9950505050505050505050565b60008054819060ff166120815760405162461bcd60e51b815260040161094b90615610565b6000805460ff191681556120936113f8565b905080156120c3576120b78160108111156120b0576120b0615634565b603561222a565b600092509250506120d4565b6120ce338686613185565b92509250505b6000805460ff1916600117905590939092509050565b6000806000806120fa868661276e565b9092509050600082600381111561211357612113615634565b146121245750915060009050612136565b600061212f826136ab565b9350935050505b9250929050565b6012546040516370a0823160e01b81523060048201526000916001600160a01b03169081906370a0823190602401602060405180830381865afa158015612188573d6000803e3d6000fd5b505050506040513d601f19601f820116820180604052508101906121ac919061567a565b91505090565b6000805460ff166121d55760405162461bcd60e51b815260040161094b90615610565b6000805460ff191681556121e76113f8565b9050801561220b57610fff81601081111561220457612204615634565b604e61222a565b612214836136c3565b509150506000805460ff19166001179055919050565b60007f45b96fe442630264581b197e84bbada861235052c5a1aadfff9ea4e40a969aa083601081111561225f5761225f615634565b83605381111561227157612271615634565b60408051928352602083019190915260009082015260600160405180910390a1826010811115610f2757610f27615634565b600354600090819061010090046001600160a01b031633146122cb57610f276001603161222a565b42600954146122e057610f27600a603361222a565b826122e961213d565b10156122fb57610f27600e603261222a565b600c5483111561231157610f276002603461222a565b82600c5461231f91906157d1565b9050600c5481111561237f5760405162461bcd60e51b8152602060048201526024808201527f72656475636520726573657276657320756e657870656374656420756e646572604482015263666c6f7760e01b606482015260840161094b565b600c81905560035461239f9061010090046001600160a01b03168461379d565b7f3bad0c59cf2f06e7314077049f48a93578cd16f5ef92329f1dab1420a99c177e600360019054906101000a90046001600160a01b03168483604051610f1c939291906157e4565b600354600090819061010090046001600160a01b0316331461240f57610f276001605261222a565b426009541461242457610f27600a605361222a565b50601180549083905560408051828152602081018590527ff5815f353a60e815cce7553e4f60c533a59d26b1b5504ea4b6db8d60da3e4da29101610f1c565b6000805460ff166124865760405162461bcd60e51b815260040161094b90615610565b6000805460ff191681556124986113f8565b905080156124bc57610fff8160108111156124b5576124b5615634565b602761222a565b6110103360008561385b565b6001600160a01b03811660009081526010602052604081208054829182918291829182036124ff5750600096879650945050505050565b61250f8160000154600a54613e40565b9094509250600084600381111561252857612528615634565b1461253b57509195600095509350505050565b612549838260010154613e8d565b9094509150600084600381111561256257612562615634565b1461257557509195600095509350505050565b506000969095509350505050565b600354600090819061010090046001600160a01b031633146125ab57610f276001604261222a565b42600954146125c057610f27600a604161222a565b600660009054906101000a90046001600160a01b03169050826001600160a01b0316632191f92a6040518163ffffffff1660e01b8152600401602060405180830381865afa158015612616573d6000803e3d6000fd5b505050506040513d601f19601f8201168201806040525081019061263a9190615693565b6126865760405162461bcd60e51b815260206004820152601c60248201527f6d61726b6572206d6574686f642072657475726e65642066616c736500000000604482015260640161094b565b600680546001600160a01b0319166001600160a01b0385811691821790925560408051928416835260208301919091527fedffc32e068c7c95dfd4bdfd5c4d939a084d6b11c4199eac8436ed234d72f9269101610f1c565b60008054819060ff166127035760405162461bcd60e51b815260040161094b90615610565b6000805460ff191681556127156113f8565b9050801561273957611cd181601081111561273257612732615634565b601e61222a565b611ce83385613ebb565b60008083831161276257600061275984866157d1565b91509150612136565b50600390506000612136565b60006127866040518060200160405280600081525090565b600080612797866000015186613e40565b909250905060008260038111156127b0576127b0615634565b146127cf57506040805160208101909152600081529092509050612136565b60408051602081019091529081526000969095509350505050565b60007f45b96fe442630264581b197e84bbada861235052c5a1aadfff9ea4e40a969aa084601081111561281f5761281f615634565b84605381111561283157612831615634565b604080519283526020830191909152810184905260600160405180910390a1836010811115610dc657610dc6615634565b600080806128708486615805565b905084811061288457600092509050612136565b600260009250925050612136565b6000806000806128a2878761276e565b909250905060008260038111156128bb576128bb615634565b146128cc57509150600090506128e5565b6128de6128d8826136ab565b86612862565b9350935050505b935093915050565b60055460405163d02f735160e01b81523060048201526001600160a01b0386811660248301528581166044830152848116606483015260848201849052600092839291169063d02f73519060a4016020604051808303816000875af115801561295a573d6000803e3d6000fd5b505050506040513d601f19601f8201168201806040525081019061297e919061567a565b9050801561299357611e5e6003601b836127ea565b846001600160a01b0316846001600160a01b0316036129b857611e5e6006601c61222a565b612a08604080516101208101909152806000815260200160008152602001600081526020016000815260200160008152602001600081526020016000815260200160008152602001600081525090565b6001600160a01b0385166000908152600e6020526040902054612a2b9085612743565b6020830181905282826003811115612a4557612a45615634565b6003811115612a5657612a56615634565b9052506000905081516003811115612a7057612a70615634565b14612a9b57612a926009601a836000015160038111156115d8576115d8615634565b92505050610dc6565b612ab584604051806020016040528060115481525061433f565b60808201819052612ac7908590614362565b6060820152612ad4611d02565b60c0830181905282826003811115612aee57612aee615634565b6003811115612aff57612aff615634565b9052506000905081516003811115612b1957612b19615634565b14612b665760405162461bcd60e51b815260206004820152601860248201527f65786368616e67652072617465206d617468206572726f720000000000000000604482015260640161094b565b612b8660405180602001604052808360c00151815250826080015161439c565b60a08201819052600c54612b99916143b4565b60e0820152600d546080820151612bb09190614362565b6101008201526001600160a01b0386166000908152600e60205260409020546060820151612bde9190612862565b6040830181905282826003811115612bf857612bf8615634565b6003811115612c0957612c09615634565b9052506000905081516003811115612c2357612c23615634565b14612c4557612a9260096019836000015160038111156115d8576115d8615634565b60e0810151600c55610100810151600d556020808201516001600160a01b038781166000818152600e855260408082209490945583860151928b16808252908490209290925560608501519251928352909290916000805160206158b6833981519152910160405180910390a3306001600160a01b0316856001600160a01b03166000805160206158b68339815191528360800151604051612ce991815260200190565b60405180910390a360a081015160e08201516040517fa91e67c5ea634cd43a12c5a482724b03de01e85ca68702a53d0c2f45cb7c1dc592612d2b9230926157e4565b60405180910390a160005b979650505050505050565b6000805460ff16612d645760405162461bcd60e51b815260040161094b90615610565b6000805460ff19168155612d766113f8565b90508015612d9a57610fff816010811115612d9357612d93615634565b600861222a565b61101033846143ea565b604051623f675f60e91b81526001600160a01b038881166004830152600091908a1690637ecebe0090602401602060405180830381865afa158015612ded573d6000803e3d6000fd5b505050506040513d601f19601f82011682018060405250810190612e11919061567a565b60405163d505accf60e01b81526001600160a01b038a811660048301528981166024830152604482018990526064820188905260ff8716608483015260a4820186905260c48201859052919250908a169063d505accf9060e401600060405180830381600087803b158015612e8557600080fd5b505af1158015612e99573d6000803e3d6000fd5b5050604051623f675f60e91b81526001600160a01b038b81166004830152600093508c169150637ecebe0090602401602060405180830381865afa158015612ee5573d6000803e3d6000fd5b505050506040513d601f19601f82011682018060405250810190612f09919061567a565b9050612f16826001615805565b8114612f6e5760405162461bcd60e51b815260206004820152602160248201527f5361666545524332303a207065726d697420646964206e6f74207375636365656044820152601960fa1b606482015260840161094b565b50505050505050505050565b6000805460ff16612f9d5760405162461bcd60e51b815260040161094b90615610565b6000805460ff19168155612faf6113f8565b90508015612fcc57610fff8160108111156124b5576124b5615634565b6110103384600061385b565b60008054819060ff16612ffd5760405162461bcd60e51b815260040161094b90615610565b6000805460ff1916815561300f6113f8565b9050801561303f5761303381601081111561302c5761302c615634565b600f61222a565b600092509250506130d9565b836001600160a01b031663a6afed956040518163ffffffff1660e01b81526004016020604051808303816000875af115801561307f573d6000803e3d6000fd5b505050506040513d601f19601f820116820180604052508101906130a3919061567a565b905080156130c7576130338160108111156130c0576130c0615634565b601061222a565b6130d3338787876146d4565b92509250505b6000805460ff191660011790559094909350915050565b60035460009061010090046001600160a01b03163314613116576108c06001604761222a565b426009541461312b576108c0600a604861222a565b670de0b6b3a7640000821115613147576108c06002604961222a565b600880549083905560408051828152602081018590527faaa68312e2ea9d50e16af5068410ab56e1a1fd06037b1a35664812c30f8214609101610f1c565b600554604051631200453160e11b81523060048201526001600160a01b03858116602483015284811660448301526064820184905260009283928392909116906324008a62906084016020604051808303816000875af11580156131ed573d6000803e3d6000fd5b505050506040513d601f19601f82011682018060405250810190613211919061567a565b905080156132325761322660036038836127ea565b600092509250506128e5565b426009541461324757613226600a603961222a565b6132906040805161010081019091528060008152602001600081526020016000815260200160008152602001600081526020016000815260200160008152602001600081525090565b6001600160a01b03861660009081526010602052604090206001015460608201526132ba866124c8565b60808301819052602083018260038111156132d7576132d7615634565b60038111156132e8576132e8615634565b905250600090508160200151600381111561330557613305615634565b146133345761332760096037836020015160038111156115d8576115d8615634565b60009350935050506128e5565b600019850361334c5760808101516040820152613354565b604081018590525b613362878260400151614b93565b60e08201819052608082015161337791612743565b60a083018190526020830182600381111561339457613394615634565b60038111156133a5576133a5615634565b90525060009050816020015160038111156133c2576133c2615634565b146134355760405162461bcd60e51b815260206004820152603a60248201527f52455041595f424f52524f575f4e45575f4143434f554e545f424f52524f575f60448201527f42414c414e43455f43414c43554c4154494f4e5f4641494c4544000000000000606482015260840161094b565b613445600b548260e00151612743565b60c083018190526020830182600381111561346257613462615634565b600381111561347357613473615634565b905250600090508160200151600381111561349057613490615634565b146134f75760405162461bcd60e51b815260206004820152603160248201527f52455041595f424f52524f575f4e45575f544f54414c5f42414c414e43455f43604482015270105310d55310551253d397d19052531151607a1b606482015260840161094b565b60a081810180516001600160a01b03898116600081815260106020908152604091829020948555600a5460019095019490945560c0870151600b81905560e088015195518251948f16855294840192909252820193909352606081019190915260808101919091527f1a2a22cb034d26d1854bdc6666a5b91fe25efbbb5dcad3b0355478d6f5c362a1910160405180910390a160e00151600097909650945050505050565b6000806000806135ac8787612862565b909250905060008260038111156135c5576135c5615634565b146135d657509150600090506128e5565b6128de8186612743565b60006135f86040518060200160405280600081525090565b60008061360d86670de0b6b3a7640000613e40565b9092509050600082600381111561362657613626615634565b1461364557506040805160208101909152600081529092509050612136565b6000806136528388613e8d565b9092509050600082600381111561366b5761366b615634565b1461368e5781604051806020016040528060008152509550955050505050612136565b604080516020810190915290815260009890975095505050505050565b80516000906108c090670de0b6b3a764000090615818565b600080808042600954146136e7576136dd600a604f61222a565b9590945092505050565b6136f13386614b93565b905080600c546137019190615805565b9150600c548210156137555760405162461bcd60e51b815260206004820181905260248201527f61646420726573657276657320756e6578706563746564206f766572666c6f77604482015260640161094b565b600c8290556040517fa91e67c5ea634cd43a12c5a482724b03de01e85ca68702a53d0c2f45cb7c1dc59061378e903390849086906157e4565b60405180910390a160006136dd565b6012546001600160a01b03166137d4817f000000000000000000000000000000000000000000000000000000000000000084614dba565b604051633419e74d60e21b81526001600160a01b038481166004830152602482018490527f0000000000000000000000000000000000000000000000000000000000000000169063d0679d3490604401600060405180830381600087803b15801561383e57600080fd5b505af1158015613852573d6000803e3d6000fd5b50505050505050565b6000821580613868575081155b6138d15760405162461bcd60e51b815260206004820152603460248201527f6f6e65206f662072656465656d546f6b656e73496e206f722072656465656d416044820152736d6f756e74496e206d757374206265207a65726f60601b606482015260840161094b565b6139126040805160e0810190915280600081526020016000815260200160008152602001600081526020016000815260200160008152602001600081525090565b61391a611d02565b604083018190526020830182600381111561393757613937615634565b600381111561394857613948615634565b905250600090508160200151600381111561396557613965615634565b1461398f576139876009602b836020015160038111156115d8576115d8615634565b915050610f27565b8315613a5b5760001984036139c1576001600160a01b0385166000908152600e602052604090205460608201526139c9565b606081018490525b6139e96040518060200160405280836040015181525082606001516120ea565b6080830181905260208301826003811115613a0657613a06615634565b6003811115613a1757613a17615634565b9052506000905081602001516003811115613a3457613a34615634565b14613a565761398760096029836020015160038111156115d8576115d8615634565b613b30565b6000198303613aa1576001600160a01b0385166000908152600e602090815260409182902054606084019081528251918201835291830151815290516139e991906120ea565b6080810183905260408051602081018252908201518152613ac3908490614e11565b6060830181905260208301826003811115613ae057613ae0615634565b6003811115613af157613af1615634565b9052506000905081602001516003811115613b0e57613b0e615634565b14613b30576139876009602a836020015160038111156115d8576115d8615634565b600554606082015160405163eabe7d9160e01b81526000926001600160a01b03169163eabe7d9191613b699130918b919060040161583a565b6020604051808303816000875af1158015613b88573d6000803e3d6000fd5b505050506040513d601f19601f82011682018060405250810190613bac919061567a565b90508015613bca57613bc160036028836127ea565b92505050610f27565b4260095414613bdf57613bc1600a602c61222a565b613bef600d548360600151612743565b60a0840181905260208401826003811115613c0c57613c0c615634565b6003811115613c1d57613c1d615634565b9052506000905082602001516003811115613c3a57613c3a615634565b14613c5c57613bc16009602e846020015160038111156115d8576115d8615634565b6001600160a01b0386166000908152600e60205260409020546060830151613c849190612743565b60c0840181905260208401826003811115613ca157613ca1615634565b6003811115613cb257613cb2615634565b9052506000905082602001516003811115613ccf57613ccf615634565b14613cf157613bc16009602d846020015160038111156115d8576115d8615634565b8160800151613cfe61213d565b1015613d1057613bc1600e602f61222a565b60a0820151600d5560c08201516001600160a01b0387166000818152600e602052604090819020929092556060840151915130926000805160206158b683398151915291613d6091815260200190565b60405180910390a3608082015160608301516040517fe5b754fb1abb7f01b499791d0b820ae3b6af3424ac1c59768edb53f4ec31a92992613da2928a926157e4565b60405180910390a1600554608083015160608401516040516351dff98960e01b81523060048201526001600160a01b038a81166024830152604482019390935260648101919091529116906351dff9899060840160006040518083038186803b158015613e0e57600080fd5b505afa158015613e22573d6000803e3d6000fd5b50505050613e3486836080015161379d565b60009695505050505050565b60008083600003613e5657506000905080612136565b6000613e62848661585e565b905083613e6f8683615818565b14613e8257600260009250925050612136565b600092509050612136565b60008082600003613ea45750600190506000612136565b6000613eb08486615818565b915091509250929050565b600554604051634ef4c3e160e01b8152600091829182916001600160a01b031690634ef4c3e190613ef49030908990899060040161583a565b6020604051808303816000875af1158015613f13573d6000803e3d6000fd5b505050506040513d601f19601f82011682018060405250810190613f37919061567a565b90508015613f5857613f4c6003601f836127ea565b60009250925050612136565b4260095414613f6d57613f4c600a602261222a565b613fae6040805160e0810190915280600081526020016000815260200160008152602001600081526020016000815260200160008152602001600081525090565b613fb6611d02565b6040830181905260208301826003811115613fd357613fd3615634565b6003811115613fe457613fe4615634565b905250600090508160200151600381111561400157614001615634565b146140305761402360096021836020015160038111156115d8576115d8615634565b6000935093505050612136565b61403a8686614b93565b60c082018190526040805160208101825290830151815261405b9190614e11565b606083018190526020830182600381111561407857614078615634565b600381111561408957614089615634565b90525060009050816020015160038111156140a6576140a6615634565b146140f35760405162461bcd60e51b815260206004820181905260248201527f4d494e545f45584348414e47455f43414c43554c4154494f4e5f4641494c4544604482015260640161094b565b614103600d548260600151612862565b608083018190526020830182600381111561412057614120615634565b600381111561413157614131615634565b905250600090508160200151600381111561414e5761414e615634565b146141ac5760405162461bcd60e51b815260206004820152602860248201527f4d494e545f4e45575f544f54414c5f535550504c595f43414c43554c4154494f6044820152671397d1905253115160c21b606482015260840161094b565b6001600160a01b0386166000908152600e602052604090205460608201516141d49190612862565b60a08301819052602083018260038111156141f1576141f1615634565b600381111561420257614202615634565b905250600090508160200151600381111561421f5761421f615634565b146142805760405162461bcd60e51b815260206004820152602b60248201527f4d494e545f4e45575f4143434f554e545f42414c414e43455f43414c43554c4160448201526a151253d397d1905253115160aa1b606482015260840161094b565b6080810151600d5560a08101516001600160a01b0387166000908152600e6020526040908190209190915560c0820151606083015191517f4c209b5fc8ad50758f13e2e1088ba56a560dff690a1c6fef26394f4c03821c4f926142e7928a929091906157e4565b60405180910390a1856001600160a01b0316306001600160a01b03166000805160206158b6833981519152836060015160405161432691815260200190565b60405180910390a360c001516000969095509350505050565b6000670de0b6b3a7640000614358848460000151614e21565b610f279190615818565b6000610f278383604051806040016040528060158152602001747375627472616374696f6e20756e646572666c6f7760581b815250614e63565b6000806143a98484614e92565b9050610dc6816136ab565b6000610f278383604051806040016040528060118152602001706164646974696f6e206f766572666c6f7760781b815250614ec3565b60055460405163368f515360e21b815260009182916001600160a01b039091169063da3d454c906144239030908890889060040161583a565b6020604051808303816000875af1158015614442573d6000803e3d6000fd5b505050506040513d601f19601f82011682018060405250810190614466919061567a565b905080156144835761447b6003600e836127ea565b9150506108c0565b42600954146144975761447b600a8061222a565b826144a061213d565b10156144b25761447b600e600961222a565b6144de604080516080810190915280600081526020016000815260200160008152602001600081525090565b6144e7856124c8565b602083018190528282600381111561450157614501615634565b600381111561451257614512615634565b905250600090508151600381111561452c5761452c615634565b146145575761454e60096007836000015160038111156115d8576115d8615634565b925050506108c0565b614565816020015185612862565b604083018190528282600381111561457f5761457f615634565b600381111561459057614590615634565b90525060009050815160038111156145aa576145aa615634565b146145cc5761454e6009600c836000015160038111156115d8576115d8615634565b6145d8600b5485612862565b60608301819052828260038111156145f2576145f2615634565b600381111561460357614603615634565b905250600090508151600381111561461d5761461d615634565b1461463f5761454e6009600b836000015160038111156115d8576115d8615634565b604081810180516001600160a01b03881660008181526010602090815290859020928355600a54600190930192909255606080860151600b8190559351855192835292820189905293810191909152918201527f13ed6866d4e1ee6da46f845c46d7e54120883d75c5ea9a2dacc1c4ca8984ab809060800160405180910390a16146c9858561379d565b600095945050505050565b600554604051632fe3f38f60e11b81523060048201526001600160a01b03838116602483015286811660448301528581166064830152608482018590526000928392839290911690635fc7e71e9060a401602060405180830381865afa158015614742573d6000803e3d6000fd5b505050506040513d601f19601f82011682018060405250810190614766919061567a565b905080156147875761477b60036012836127ea565b60009250925050614b8a565b426009541461479c5761477b600a601661222a565b42846001600160a01b031663cfa992016040518163ffffffff1660e01b8152600401602060405180830381865afa1580156147db573d6000803e3d6000fd5b505050506040513d601f19601f820116820180604052508101906147ff919061567a565b146148105761477b600a601161222a565b866001600160a01b0316866001600160a01b0316036148355761477b6006601761222a565b846000036148495761477b6007601561222a565b600019850361485e5761477b6007601461222a565b60008061486c898989613185565b909250905081156148a15761489382601081111561488c5761488c615634565b601861222a565b600094509450505050614b8a565b60055460405163c488847b60e01b815260009182916001600160a01b039091169063c488847b906148da9030908c90889060040161583a565b6040805180830381865afa1580156148f6573d6000803e3d6000fd5b505050506040513d601f19601f8201168201806040525081019061491a9190615875565b909250905081156149895760405162461bcd60e51b815260206004820152603360248201527f4c49515549444154455f434f4d5054524f4c4c45525f43414c43554c4154455f604482015272105353d5539517d4d152569157d19052531151606a1b606482015260840161094b565b6040516370a0823160e01b81526001600160a01b038b811660048301528291908a16906370a0823190602401602060405180830381865afa1580156149d2573d6000803e3d6000fd5b505050506040513d601f19601f820116820180604052508101906149f6919061567a565b1015614a445760405162461bcd60e51b815260206004820152601860248201527f4c49515549444154455f5345495a455f544f4f5f4d5543480000000000000000604482015260640161094b565b6000306001600160a01b038a1603614a6957614a62308d8d856128ed565b9050614adf565b60405163b2a02ff160e01b81526001600160a01b038a169063b2a02ff190614a99908f908f90879060040161583a565b6020604051808303816000875af1158015614ab8573d6000803e3d6000fd5b505050506040513d601f19601f82011682018060405250810190614adc919061567a565b90505b8015614b245760405162461bcd60e51b81526020600482015260146024820152731d1bdad95b881cd95a5e9d5c994819985a5b195960621b604482015260640161094b565b604080516001600160a01b038e811682528d811660208301528183018790528b1660608201526080810184905290517f298637f684da70674f26509b10f07ec2fbc77a335ab1e7d6215a4b2484d8bb529181900360a00190a16000975092955050505050505b94509492505050565b6012546040516370a0823160e01b81523060048201526000916001600160a01b0316908190839082906370a0823190602401602060405180830381865afa158015614be2573d6000803e3d6000fd5b505050506040513d601f19601f82011682018060405250810190614c06919061567a565b6040516323b872dd60e01b81529091506001600160a01b038316906323b872dd90614c3990899030908a9060040161583a565b600060405180830381600087803b158015614c5357600080fd5b505af1158015614c67573d6000803e3d6000fd5b5050505060003d60008114614c835760208114614c8d57600080fd5b6000199150614c99565b60206000803e60005191505b5080614ce75760405162461bcd60e51b815260206004820152601860248201527f544f4b454e5f5452414e534645525f494e5f4641494c45440000000000000000604482015260640161094b565b6040516370a0823160e01b81523060048201526000906001600160a01b038616906370a0823190602401602060405180830381865afa158015614d2e573d6000803e3d6000fd5b505050506040513d601f19601f82011682018060405250810190614d52919061567a565b905082811015614da45760405162461bcd60e51b815260206004820152601a60248201527f544f4b454e5f5452414e534645525f494e5f4f564552464c4f57000000000000604482015260640161094b565b614dae83826157d1565b98975050505050505050565b604080516001600160a01b038416602482015260448082018490528251808303909101815260649091019091526020810180516001600160e01b031663a9059cbb60e01b179052614e0c908490614ef4565b505050565b6000806000806120fa8686614fc9565b6000610f2783836040518060400160405280601781526020017f6d756c7469706c69636174696f6e206f766572666c6f7700000000000000000081525061503c565b60008184841115614e875760405162461bcd60e51b815260040161094b91906151c6565b50610dc683856157d1565b6040805160208101909152600081526040518060200160405280614eba856000015185614e21565b90529392505050565b600080614ed08486615805565b90508285821015610d155760405162461bcd60e51b815260040161094b91906151c6565b6000614f49826040518060400160405280602081526020017f5361666545524332303a206c6f772d6c6576656c2063616c6c206661696c6564815250856001600160a01b031661508f9092919063ffffffff16565b9050805160001480614f6a575080806020019051810190614f6a9190615693565b614e0c5760405162461bcd60e51b815260206004820152602a60248201527f5361666545524332303a204552433230206f7065726174696f6e20646964206e6044820152691bdd081cdd58d8d9595960b21b606482015260840161094b565b6000614fe16040518060200160405280600081525090565b600080614ff6670de0b6b3a764000087613e40565b9092509050600082600381111561500f5761500f615634565b1461502e57506040805160208101909152600081529092509050612136565b61212f8186600001516135e0565b6000831580615049575082155b1561505657506000610f27565b6000615062848661585e565b90508361506f8683615818565b148390610d155760405162461bcd60e51b815260040161094b91906151c6565b6060610dc6848460008585600080866001600160a01b031685876040516150b69190615899565b60006040518083038185875af1925050503d80600081146150f3576040519150601f19603f3d011682016040523d82523d6000602084013e6150f8565b606091505b5091509150612d36878383876060831561517357825160000361516c576001600160a01b0385163b61516c5760405162461bcd60e51b815260206004820152601d60248201527f416464726573733a2063616c6c20746f206e6f6e2d636f6e7472616374000000604482015260640161094b565b5081610dc6565b610dc683838151156151885781518083602001fd5b8060405162461bcd60e51b815260040161094b91906151c6565b60005b838110156151bd5781810151838201526020016151a5565b50506000910152565b60208152600082518060208401526151e58160408501602087016151a2565b601f01601f19169190910160400192915050565b6001600160a01b0381168114610fa357600080fd5b6000806040838503121561522157600080fd5b823561522c816151f9565b946020939093013593505050565b60006020828403121561524c57600080fd5b5035919050565b60006020828403121561526557600080fd5b8135610f27816151f9565b634e487b7160e01b600052604160045260246000fd5b600067ffffffffffffffff808411156152a1576152a1615270565b604051601f8501601f19908116603f011681019082821181831017156152c9576152c9615270565b816040528093508581528686860111156152e257600080fd5b858560208301376000602087830101525050509392505050565b600082601f83011261530d57600080fd5b610f2783833560208501615286565b803560ff8116811461532d57600080fd5b919050565b600080600080600080600060e0888a03121561534d57600080fd5b8735615358816151f9565b96506020880135615368816151f9565b95506040880135615378816151f9565b945060608801359350608088013567ffffffffffffffff8082111561539c57600080fd5b6153a88b838c016152fc565b945060a08a01359150808211156153be57600080fd5b506153cb8a828b016152fc565b9250506153da60c0890161531c565b905092959891949750929550565b6000806000606084860312156153fd57600080fd5b8335615408816151f9565b92506020840135615418816151f9565b929592945050506040919091013590565b60006020828403121561543b57600080fd5b813567ffffffffffffffff81111561545257600080fd5b8201601f8101841361546357600080fd5b610dc684823560208401615286565b60008060008060008060c0878903121561548b57600080fd5b8635615496816151f9565b955060208701356154a6816151f9565b945060408701359350606087013567ffffffffffffffff808211156154ca57600080fd5b6154d68a838b016152fc565b945060808901359150808211156154ec57600080fd5b506154f989828a016152fc565b92505061550860a0880161531c565b90509295509295509295565b600080600080600060a0868803121561552c57600080fd5b85359450602086013593506155436040870161531c565b94979396509394606081013594506080013592915050565b6000806040838503121561556e57600080fd5b8235615579816151f9565b91506020830135615589816151f9565b809150509250929050565b6000806000606084860312156155a957600080fd5b83356155b4816151f9565b92506020840135915060408401356155cb816151f9565b809150509250925092565b600181811c908216806155ea57607f821691505b60208210810361560a57634e487b7160e01b600052602260045260246000fd5b50919050565b6020808252600a90820152691c994b595b9d195c995960b21b604082015260600190565b634e487b7160e01b600052602160045260246000fd5b6020808252601690820152751858d8dc9d59481a5b9d195c995cdd0819985a5b195960521b604082015260600190565b60006020828403121561568c57600080fd5b5051919050565b6000602082840312156156a557600080fd5b81518015158114610f2757600080fd5b601f821115614e0c57600081815260208120601f850160051c810160208610156156dc5750805b601f850160051c820191505b81811015610cb0578281556001016156e8565b815167ffffffffffffffff81111561571557615715615270565b6157298161572384546155d6565b846156b5565b602080601f83116001811461575e57600084156157465750858301515b600019600386901b1c1916600185901b178555610cb0565b600085815260208120601f198616915b8281101561578d5788860151825594840194600190910190840161576e565b50858210156157ab5787850151600019600388901b60f8161c191681555b5050505050600190811b01905550565b634e487b7160e01b600052601160045260246000fd5b818103818111156108c0576108c06157bb565b6001600160a01b039390931683526020830191909152604082015260600190565b808201808211156108c0576108c06157bb565b60008261583557634e487b7160e01b600052601260045260246000fd5b500490565b6001600160a01b039384168152919092166020820152604081019190915260600190565b80820281158282048414176108c0576108c06157bb565b6000806040838503121561588857600080fd5b505080516020909101519092909150565b600082516158ab8184602087016151a2565b919091019291505056feddf252ad1be2c89b69c2b068fc378daa952ba7f163c4a11628f55a4df523b3efa26469706673582212207eeafd1d7ea43094fb0095cf5a165a069a2a3d0f07282c81ce994e6ed83e073064736f6c63430008140033",
  "devdoc": {
    "author": "Kawa",
    "events": {
      "Failure(uint256,uint256,uint256)": {
        "details": "`error` corresponds to enum Error; `info` corresponds to enum FailureInfo, and `detail` is an arbitrary contract-specific code that enables us to report opaque error codes from upgradeable contracts.*"
      }
    },
    "kind": "dev",
    "methods": {
      "_acceptAdmin()": {
        "details": "Admin function for pending admin to accept role and update admin",
        "returns": {
          "_0": "uint 0=success, otherwise a failure (see ErrorReporter.sol for details)"
        }
      },
      "_addReserves(uint256)": {
        "params": {
          "addAmount": "The amount fo underlying token to add as reserves"
        },
        "returns": {
          "_0": "uint 0=success, otherwise a failure (see ErrorReporter.sol for details)"
        }
      },
      "_becomeImplementation(bytes)": {
        "params": {
          "data": "The encoded bytes data for any initialization"
        }
      },
      "_reduceReserves(uint256)": {
        "params": {
          "reduceAmount": "Amount of reduction to reserves"
        },
        "returns": {
          "_0": "uint 0=success, otherwise a failure (see ErrorReporter.sol for details)"
        }
      },
      "_setComptroller(address)": {
        "details": "Admin function to set a new comptroller",
        "returns": {
          "_0": "uint 0=success, otherwise a failure (see ErrorReporter.sol for details)"
        }
      },
      "_setInterestRateModel(address)": {
        "details": "Admin function to accrue interest and update the interest rate model",
        "params": {
          "newInterestRateModel": "the new interest rate model to use"
        },
        "returns": {
          "_0": "uint 0=success, otherwise a failure (see ErrorReporter.sol for details)"
        }
      },
      "_setPendingAdmin(address)": {
        "details": "Admin function to begin change of admin. The newPendingAdmin must call `_acceptAdmin` to finalize the transfer.",
        "params": {
          "newPendingAdmin": "New pending admin."
        },
        "returns": {
          "_0": "uint 0=success, otherwise a failure (see ErrorReporter.sol for details)"
        }
      },
      "_setProtocolSeizeShare(uint256)": {
        "details": "Admin function to accrue interest and update the protocol seize share",
        "params": {
          "newProtocolSeizeShareMantissa": "the new protocol seize share to use"
        },
        "returns": {
          "_0": "uint 0=success, otherwise a failure (see ErrorReporter.sol for details)"
        }
      },
      "_setReserveFactor(uint256)": {
        "details": "Admin function to accrue interest and set a new reserve factor",
        "returns": {
          "_0": "uint 0=success, otherwise a failure (see ErrorReporter.sol for details)"
        }
      },
      "accrueInterest()": {
        "details": "This calculates interest accrued from the last checkpointed block   up to the current block and writes new checkpoint to storage."
      },
      "allowance(address,address)": {
        "params": {
          "owner": "The address of the account which owns the tokens to be spent",
          "spender": "The address of the account which may transfer tokens"
        },
        "returns": {
          "_0": "The number of tokens allowed to be spent (uint.max means infinite)"
        }
      },
      "approve(address,uint256)": {
        "details": "This will overwrite the approval amount for `spender`  and is subject to issues noted [here](https://eips.ethereum.org/EIPS/eip-20#approve)",
        "params": {
          "amount": "The number of tokens that are approved (uint.max means infinite)",
          "spender": "The address of the account which may transfer tokens"
        },
        "returns": {
          "_0": "Whether or not the approval succeeded"
        }
      },
      "balanceOf(address)": {
        "params": {
          "owner": "The address of the account to query"
        },
        "returns": {
          "_0": "The number of tokens owned by `owner`"
        }
      },
      "balanceOfUnderlying(address)": {
        "details": "This also accrues interest in a transaction",
        "params": {
          "owner": "The address of the account to query"
        },
        "returns": {
          "_0": "The amount of underlying owned by `owner`"
        }
      },
      "borrow(uint256)": {
        "params": {
          "borrowAmount": "The amount of the underlying asset to borrow"
        },
        "returns": {
          "_0": "uint 0=success, otherwise a failure (see ErrorReporter.sol for details)"
        }
      },
      "borrowBalanceCurrent(address)": {
        "params": {
          "account": "The address whose balance should be calculated after updating borrowIndex"
        },
        "returns": {
          "_0": "The calculated balance"
        }
      },
      "borrowBalanceStored(address)": {
        "params": {
          "account": "The address whose balance should be calculated"
        },
        "returns": {
          "_0": "The calculated balance"
        }
      },
      "borrowRatePerTimestamp()": {
        "returns": {
          "_0": "The borrow interest rate per timestamp, scaled by 1e18"
        }
      },
      "constructor": {
        "params": {
          "_wethUnwrapper": "the WETH Unwrapper address"
        }
      },
      "exchangeRateCurrent()": {
        "returns": {
          "_0": "Calculated exchange rate scaled by 1e18"
        }
      },
      "exchangeRateStored()": {
        "details": "This function does not accrue interest before calculating the exchange rate",
        "returns": {
          "_0": "Calculated exchange rate scaled by 1e18"
        }
      },
      "getAccountSnapshot(address)": {
        "details": "This is used by comptroller to more efficiently perform liquidity checks.",
        "params": {
          "account": "Address of the account to snapshot"
        },
        "returns": {
          "_0": "(possible error, token balance, borrow balance, exchange rate mantissa)"
        }
      },
      "getCash()": {
        "returns": {
          "_0": "The quantity of underlying asset owned by this contract"
        }
      },
      "initialize(address,address,address,uint256,string,string,uint8)": {
        "params": {
          "comptroller_": "The address of the Comptroller",
          "decimals_": "ERC-20 decimal precision of this token",
          "initialExchangeRateMantissa_": "The initial exchange rate, scaled by 1e18",
          "interestRateModel_": "The address of the interest rate model",
          "name_": "ERC-20 name of this token",
          "symbol_": "ERC-20 symbol of this token",
          "underlying_": "The address of the underlying asset"
        }
      },
      "initialize(address,address,uint256,string,string,uint8)": {
        "params": {
          "comptroller_": "The address of the Comptroller",
          "decimals_": "EIP-20 decimal precision of this token",
          "initialExchangeRateMantissa_": "The initial exchange rate, scaled by 1e18",
          "interestRateModel_": "The address of the interest rate model",
          "name_": "EIP-20 name of this token",
          "symbol_": "EIP-20 symbol of this token"
        }
      },
      "liquidateBorrow(address,uint256,address)": {
        "params": {
          "borrower": "The borrower of this kToken to be liquidated",
          "kTokenCollateral": "The market in which to seize collateral from the borrower",
          "repayAmount": "The amount of the underlying borrowed asset to repay"
        },
        "returns": {
          "_0": "uint 0=success, otherwise a failure (see ErrorReporter.sol for details)"
        }
      },
      "mint(uint256)": {
        "details": "Accrues interest whether or not the operation succeeds, unless reverted",
        "params": {
          "mintAmount": "The amount of the underlying asset to supply"
        },
        "returns": {
          "_0": "uint 0=success, otherwise a failure (see ErrorReporter.sol for details)"
        }
      },
      "mintWithPermit(uint256,uint256,uint8,bytes32,bytes32)": {
        "details": "Simply calls the underlying token's `permit()` function and then assumes things worked",
        "params": {
          "deadline": "The amount of the underlying asset to supply",
          "mintAmount": "The amount of the underlying asset to supply",
          "r": "ECDSA r parameter for the signature",
          "s": "ECDSA s parameter for the signature",
          "v": "ECDSA recovery id for the signature"
        },
        "returns": {
          "_0": "uint 0=success, otherwise a failure (see ErrorReporter.sol for details)"
        }
      },
      "redeem(uint256)": {
        "details": "Accrues interest whether or not the operation succeeds, unless reverted",
        "params": {
          "redeemTokens": "The number of kTokens to redeem into underlying"
        },
        "returns": {
          "_0": "uint 0=success, otherwise a failure (see ErrorReporter.sol for details)"
        }
      },
      "redeemUnderlying(uint256)": {
        "details": "Accrues interest whether or not the operation succeeds, unless reverted",
        "params": {
          "redeemAmount": "The amount of underlying to redeem"
        },
        "returns": {
          "_0": "uint 0=success, otherwise a failure (see ErrorReporter.sol for details)"
        }
      },
      "repayBorrow(uint256)": {
        "params": {
          "repayAmount": "The amount to repay, or uint.max for the full outstanding amount"
        },
        "returns": {
          "_0": "uint 0=success, otherwise a failure (see ErrorReporter.sol for details)"
        }
      },
      "repayBorrowBehalf(address,uint256)": {
        "params": {
          "borrower": "the account with the debt being payed off",
          "repayAmount": "The amount to repay, or uint.max for the full outstanding amount"
        },
        "returns": {
          "_0": "uint 0=success, otherwise a failure (see ErrorReporter.sol for details)"
        }
      },
      "seize(address,address,uint256)": {
        "details": "Will fail unless called by another kToken during the process of liquidation.  Its absolutely critical to use msg.sender as the borrowed kToken and not a parameter.",
        "params": {
          "borrower": "The account having collateral seized",
          "liquidator": "The account receiving seized collateral",
          "seizeTokens": "The number of kTokens to seize"
        },
        "returns": {
          "_0": "uint 0=success, otherwise a failure (see ErrorReporter.sol for details)"
        }
      },
      "supplyRatePerTimestamp()": {
        "returns": {
          "_0": "The supply interest rate per timestamp, scaled by 1e18"
        }
      },
      "sweepToken(address)": {
        "params": {
          "token": "The address of the ERC-20 token to sweep"
        }
      },
      "totalBorrowsCurrent()": {
        "returns": {
          "_0": "The total borrows with interest"
        }
      },
      "transfer(address,uint256)": {
        "params": {
          "amount": "The number of tokens to transfer",
          "dst": "The address of the destination account"
        },
        "returns": {
          "_0": "Whether or not the transfer succeeded"
        }
      },
      "transferFrom(address,address,uint256)": {
        "params": {
          "amount": "The number of tokens to transfer",
          "dst": "The address of the destination account",
          "src": "The address of the source account"
        },
        "returns": {
          "_0": "Whether or not the transfer succeeded"
        }
      }
    },
    "title": "Kawa's KWethDelegate.sol Contract",
    "version": 1
  },
  "userdoc": {
    "events": {
      "AccrueInterest(uint256,uint256,uint256,uint256)": {
        "notice": "Event emitted when interest is accrued"
      },
      "Approval(address,address,uint256)": {
        "notice": "EIP20 Approval event"
      },
      "Borrow(address,uint256,uint256,uint256)": {
        "notice": "Event emitted when underlying is borrowed"
      },
      "LiquidateBorrow(address,address,uint256,address,uint256)": {
        "notice": "Event emitted when a borrow is liquidated"
      },
      "Mint(address,uint256,uint256)": {
        "notice": "Event emitted when tokens are minted"
      },
      "NewAdmin(address,address)": {
        "notice": "Event emitted when pendingAdmin is accepted, which means admin is updated"
      },
      "NewComptroller(address,address)": {
        "notice": "Event emitted when comptroller is changed"
      },
      "NewMarketInterestRateModel(address,address)": {
        "notice": "Event emitted when interestRateModel is changed"
      },
      "NewPendingAdmin(address,address)": {
        "notice": "Event emitted when pendingAdmin is changed"
      },
      "NewProtocolSeizeShare(uint256,uint256)": {
        "notice": "Event emitted when the protocol seize share is changed"
      },
      "NewReserveFactor(uint256,uint256)": {
        "notice": "Event emitted when the reserve factor is changed"
      },
      "Redeem(address,uint256,uint256)": {
        "notice": "Event emitted when tokens are redeemed"
      },
      "RepayBorrow(address,address,uint256,uint256,uint256)": {
        "notice": "Event emitted when a borrow is repaid"
      },
      "ReservesAdded(address,uint256,uint256)": {
        "notice": "Event emitted when the reserves are added"
      },
      "ReservesReduced(address,uint256,uint256)": {
        "notice": "Event emitted when the reserves are reduced"
      },
      "Transfer(address,address,uint256)": {
        "notice": "EIP20 Transfer event"
      }
    },
    "kind": "user",
    "methods": {
      "_acceptAdmin()": {
        "notice": "Accepts transfer of admin rights. msg.sender must be pendingAdmin"
      },
      "_addReserves(uint256)": {
        "notice": "The sender adds to reserves."
      },
      "_becomeImplementation(bytes)": {
        "notice": "Called by the delegator on a delegate to initialize it for duty"
      },
      "_reduceReserves(uint256)": {
        "notice": "Accrues interest and reduces reserves by transferring to admin"
      },
      "_resignImplementation()": {
        "notice": "Called by the delegator on a delegate to forfeit its responsibility"
      },
      "_setComptroller(address)": {
        "notice": "Sets a new comptroller for the market"
      },
      "_setInterestRateModel(address)": {
        "notice": "accrues interest and updates the interest rate model using _setInterestRateModelFresh"
      },
      "_setPendingAdmin(address)": {
        "notice": "Begins transfer of admin rights. The newPendingAdmin must call `_acceptAdmin` to finalize the transfer."
      },
      "_setProtocolSeizeShare(uint256)": {
        "notice": "accrues interest and updates the protocol seize share using _setProtocolSeizeShareFresh"
      },
      "_setReserveFactor(uint256)": {
        "notice": "accrues interest and sets a new reserve factor for the protocol using _setReserveFactorFresh"
      },
      "accrualBlockTimestamp()": {
        "notice": "Block number that interest was last accrued at"
      },
      "accrueInterest()": {
        "notice": "Applies accrued interest to total borrows and reserves"
      },
      "admin()": {
        "notice": "Administrator for this contract"
      },
      "allowance(address,address)": {
        "notice": "Get the current allowance from `owner` for `spender`"
      },
      "approve(address,uint256)": {
        "notice": "Approve `spender` to transfer up to `amount` from `src`"
      },
      "balanceOf(address)": {
        "notice": "Get the token balance of the `owner`"
      },
      "balanceOfUnderlying(address)": {
        "notice": "Get the underlying balance of the `owner`"
      },
      "borrow(uint256)": {
        "notice": "Sender borrows assets from the protocol to their own address"
      },
      "borrowBalanceCurrent(address)": {
        "notice": "Accrue interest to updated borrowIndex and then calculate account's borrow balance using the updated borrowIndex"
      },
      "borrowBalanceStored(address)": {
        "notice": "Return the borrow balance of account based on stored data"
      },
      "borrowIndex()": {
        "notice": "Accumulator of the total earned interest rate since the opening of the market"
      },
      "borrowRatePerTimestamp()": {
        "notice": "Returns the current per-timestamp borrow interest rate for this kToken"
      },
      "comptroller()": {
        "notice": "Contract which oversees inter-kToken operations"
      },
      "constructor": {
        "notice": "construct a new KWethDelegate.sol"
      },
      "decimals()": {
        "notice": "EIP-20 token decimals for this token"
      },
      "exchangeRateCurrent()": {
        "notice": "Accrue interest then return the up-to-date exchange rate"
      },
      "exchangeRateStored()": {
        "notice": "Calculates the exchange rate from the underlying to the KToken"
      },
      "getAccountSnapshot(address)": {
        "notice": "Get a snapshot of the account's balances, and the cached exchange rate"
      },
      "getCash()": {
        "notice": "Get cash balance of this kToken in the underlying asset"
      },
      "implementation()": {
        "notice": "Implementation address for this contract"
      },
      "initialize(address,address,address,uint256,string,string,uint8)": {
        "notice": "Initialize the new money market"
      },
      "initialize(address,address,uint256,string,string,uint8)": {
        "notice": "Initialize the money market"
      },
      "interestRateModel()": {
        "notice": "Model which tells what the current interest rate should be"
      },
      "isKToken()": {
        "notice": "Indicator that this is a KToken contract (for inspection)"
      },
      "liquidateBorrow(address,uint256,address)": {
        "notice": "The sender liquidates the borrowers collateral.  The collateral seized is transferred to the liquidator."
      },
      "messageHub()": {
        "notice": "messageHub for this KToken"
      },
      "mint(uint256)": {
        "notice": "Sender supplies assets into the market and receives kTokens in exchange"
      },
      "mintWithPermit(uint256,uint256,uint8,bytes32,bytes32)": {
        "notice": "Supply assets but without a 2-step approval process, EIP-2612"
      },
      "name()": {
        "notice": "EIP-20 token name for this token"
      },
      "pendingAdmin()": {
        "notice": "Pending administrator for this contract"
      },
      "protocolSeizeShareMantissa()": {
        "notice": "Share of seized collateral that is added to reserves"
      },
      "redeem(uint256)": {
        "notice": "Sender redeems kTokens in exchange for the underlying asset"
      },
      "redeemUnderlying(uint256)": {
        "notice": "Sender redeems kTokens in exchange for a specified amount of underlying asset"
      },
      "repayBorrow(uint256)": {
        "notice": "Sender repays their own borrow"
      },
      "repayBorrowBehalf(address,uint256)": {
        "notice": "Sender repays a borrow belonging to borrower"
      },
      "reserveFactorMantissa()": {
        "notice": "Fraction of interest currently set aside for reserves"
      },
      "seize(address,address,uint256)": {
        "notice": "Transfers collateral tokens (this market) to the liquidator."
      },
      "supplyRatePerTimestamp()": {
        "notice": "Returns the current per-timestamp supply interest rate for this kToken"
      },
      "sweepToken(address)": {
        "notice": "A public function to sweep accidental ERC-20 transfers to this contract. Tokens are sent to admin (timelock)"
      },
      "symbol()": {
        "notice": "EIP-20 token symbol for this token"
      },
      "totalBorrows()": {
        "notice": "Total amount of outstanding borrows of the underlying in this market"
      },
      "totalBorrowsCurrent()": {
        "notice": "Returns the current total borrows plus accrued interest"
      },
      "totalReserves()": {
        "notice": "Total amount of reserves of the underlying held in this market"
      },
      "totalSupply()": {
        "notice": "Total number of tokens in circulation"
      },
      "transfer(address,uint256)": {
        "notice": "Transfer `amount` tokens from `msg.sender` to `dst`"
      },
      "transferFrom(address,address,uint256)": {
        "notice": "Transfer `amount` tokens from `src` to `dst`"
      },
      "underlying()": {
        "notice": "Underlying asset for this KToken"
      },
      "wethUnwrapper()": {
        "notice": "the WETH unwrapper address"
      }
    },
    "notice": "KToken which wraps underlying ETH",
    "version": 1
  },
  "storageLayout": {
    "storage": [
      {
        "astId": 15319,
        "contract": "contracts/KWethDelegate.sol:KWethDelegate",
        "label": "_notEntered",
        "offset": 0,
        "slot": "0",
        "type": "t_bool"
      },
      {
        "astId": 15322,
        "contract": "contracts/KWethDelegate.sol:KWethDelegate",
        "label": "name",
        "offset": 0,
        "slot": "1",
        "type": "t_string_storage"
      },
      {
        "astId": 15325,
        "contract": "contracts/KWethDelegate.sol:KWethDelegate",
        "label": "symbol",
        "offset": 0,
        "slot": "2",
        "type": "t_string_storage"
      },
      {
        "astId": 15328,
        "contract": "contracts/KWethDelegate.sol:KWethDelegate",
        "label": "decimals",
        "offset": 0,
        "slot": "3",
        "type": "t_uint8"
      },
      {
        "astId": 15338,
        "contract": "contracts/KWethDelegate.sol:KWethDelegate",
        "label": "admin",
        "offset": 1,
        "slot": "3",
        "type": "t_address_payable"
      },
      {
        "astId": 15341,
        "contract": "contracts/KWethDelegate.sol:KWethDelegate",
        "label": "pendingAdmin",
        "offset": 0,
        "slot": "4",
        "type": "t_address_payable"
      },
      {
        "astId": 15345,
        "contract": "contracts/KWethDelegate.sol:KWethDelegate",
        "label": "comptroller",
        "offset": 0,
        "slot": "5",
        "type": "t_contract(ComptrollerInterface)6331"
      },
      {
        "astId": 15349,
        "contract": "contracts/KWethDelegate.sol:KWethDelegate",
        "label": "interestRateModel",
        "offset": 0,
        "slot": "6",
        "type": "t_contract(InterestRateModel)17571"
      },
      {
        "astId": 15351,
        "contract": "contracts/KWethDelegate.sol:KWethDelegate",
        "label": "initialExchangeRateMantissa",
        "offset": 0,
        "slot": "7",
        "type": "t_uint256"
      },
      {
        "astId": 15354,
        "contract": "contracts/KWethDelegate.sol:KWethDelegate",
        "label": "reserveFactorMantissa",
        "offset": 0,
        "slot": "8",
        "type": "t_uint256"
      },
      {
        "astId": 15357,
        "contract": "contracts/KWethDelegate.sol:KWethDelegate",
        "label": "accrualBlockTimestamp",
        "offset": 0,
        "slot": "9",
        "type": "t_uint256"
      },
      {
        "astId": 15360,
        "contract": "contracts/KWethDelegate.sol:KWethDelegate",
        "label": "borrowIndex",
        "offset": 0,
        "slot": "10",
        "type": "t_uint256"
      },
      {
        "astId": 15363,
        "contract": "contracts/KWethDelegate.sol:KWethDelegate",
        "label": "totalBorrows",
        "offset": 0,
        "slot": "11",
        "type": "t_uint256"
      },
      {
        "astId": 15366,
        "contract": "contracts/KWethDelegate.sol:KWethDelegate",
        "label": "totalReserves",
        "offset": 0,
        "slot": "12",
        "type": "t_uint256"
      },
      {
        "astId": 15369,
        "contract": "contracts/KWethDelegate.sol:KWethDelegate",
        "label": "totalSupply",
        "offset": 0,
        "slot": "13",
        "type": "t_uint256"
      },
      {
        "astId": 15374,
        "contract": "contracts/KWethDelegate.sol:KWethDelegate",
        "label": "accountTokens",
        "offset": 0,
        "slot": "14",
        "type": "t_mapping(t_address,t_uint256)"
      },
      {
        "astId": 15381,
        "contract": "contracts/KWethDelegate.sol:KWethDelegate",
        "label": "transferAllowances",
        "offset": 0,
        "slot": "15",
        "type": "t_mapping(t_address,t_mapping(t_address,t_uint256))"
      },
      {
        "astId": 15392,
        "contract": "contracts/KWethDelegate.sol:KWethDelegate",
        "label": "accountBorrows",
        "offset": 0,
        "slot": "16",
        "type": "t_mapping(t_address,t_struct(BorrowSnapshot)15387_storage)"
      },
      {
        "astId": 15395,
        "contract": "contracts/KWethDelegate.sol:KWethDelegate",
        "label": "protocolSeizeShareMantissa",
        "offset": 0,
        "slot": "17",
        "type": "t_uint256"
      },
      {
        "astId": 15728,
        "contract": "contracts/KWethDelegate.sol:KWethDelegate",
        "label": "underlying",
        "offset": 0,
        "slot": "18",
        "type": "t_address"
      },
      {
        "astId": 15731,
        "contract": "contracts/KWethDelegate.sol:KWethDelegate",
        "label": "messageHub",
        "offset": 0,
        "slot": "19",
        "type": "t_address"
      },
      {
        "astId": 15900,
        "contract": "contracts/KWethDelegate.sol:KWethDelegate",
        "label": "implementation",
        "offset": 0,
        "slot": "20",
        "type": "t_address"
      }
    ],
    "types": {
      "t_address": {
        "encoding": "inplace",
        "label": "address",
        "numberOfBytes": "20"
      },
      "t_address_payable": {
        "encoding": "inplace",
        "label": "address payable",
        "numberOfBytes": "20"
      },
      "t_bool": {
        "encoding": "inplace",
        "label": "bool",
        "numberOfBytes": "1"
      },
      "t_contract(ComptrollerInterface)6331": {
        "encoding": "inplace",
        "label": "contract ComptrollerInterface",
        "numberOfBytes": "20"
      },
      "t_contract(InterestRateModel)17571": {
        "encoding": "inplace",
        "label": "contract InterestRateModel",
        "numberOfBytes": "20"
      },
      "t_mapping(t_address,t_mapping(t_address,t_uint256))": {
        "encoding": "mapping",
        "key": "t_address",
        "label": "mapping(address => mapping(address => uint256))",
        "numberOfBytes": "32",
        "value": "t_mapping(t_address,t_uint256)"
      },
      "t_mapping(t_address,t_struct(BorrowSnapshot)15387_storage)": {
        "encoding": "mapping",
        "key": "t_address",
        "label": "mapping(address => struct KTokenStorage.BorrowSnapshot)",
        "numberOfBytes": "32",
        "value": "t_struct(BorrowSnapshot)15387_storage"
      },
      "t_mapping(t_address,t_uint256)": {
        "encoding": "mapping",
        "key": "t_address",
        "label": "mapping(address => uint256)",
        "numberOfBytes": "32",
        "value": "t_uint256"
      },
      "t_string_storage": {
        "encoding": "bytes",
        "label": "string",
        "numberOfBytes": "32"
      },
      "t_struct(BorrowSnapshot)15387_storage": {
        "encoding": "inplace",
        "label": "struct KTokenStorage.BorrowSnapshot",
        "members": [
          {
            "astId": 15384,
            "contract": "contracts/KWethDelegate.sol:KWethDelegate",
            "label": "principal",
            "offset": 0,
            "slot": "0",
            "type": "t_uint256"
          },
          {
            "astId": 15386,
            "contract": "contracts/KWethDelegate.sol:KWethDelegate",
            "label": "interestIndex",
            "offset": 0,
            "slot": "1",
            "type": "t_uint256"
          }
        ],
        "numberOfBytes": "64"
      },
      "t_uint256": {
        "encoding": "inplace",
        "label": "uint256",
        "numberOfBytes": "32"
      },
      "t_uint8": {
        "encoding": "inplace",
        "label": "uint8",
        "numberOfBytes": "1"
      }
    }
  }
}