{
  "address": "0x6f6318b3840C875106fDf1569776856022B4b28F",
  "abi": [
    {
      "inputs": [
        {
          "internalType": "address",
          "name": "kToken_",
          "type": "address"
        },
        {
          "internalType": "address",
          "name": "gateway_",
          "type": "address"
        },
        {
          "internalType": "address",
          "name": "gasReceiver_",
          "type": "address"
        },
        {
          "internalType": "address",
          "name": "clientContract_",
          "type": "address"
        },
        {
          "internalType": "string",
          "name": "clientChain_",
          "type": "string"
        }
      ],
      "stateMutability": "nonpayable",
      "type": "constructor"
    },
    {
      "inputs": [],
      "name": "InvalidAddress",
      "type": "error"
    },
    {
      "inputs": [],
      "name": "NotApprovedByGateway",
      "type": "error"
    },
    {
      "anonymous": false,
      "inputs": [
        {
          "indexed": true,
          "internalType": "address",
          "name": "previousOwner",
          "type": "address"
        },
        {
          "indexed": true,
          "internalType": "address",
          "name": "newOwner",
          "type": "address"
        }
      ],
      "name": "OwnershipTransferred",
      "type": "event"
    },
    {
      "inputs": [
        {
          "internalType": "address",
          "name": "gasReceiver_",
          "type": "address"
        }
      ],
      "name": "_setAxelarGasReceiver",
      "outputs": [],
      "stateMutability": "nonpayable",
      "type": "function"
    },
    {
      "inputs": [
        {
          "internalType": "string",
          "name": "clientChain_",
          "type": "string"
        }
      ],
      "name": "_setClientChain",
      "outputs": [],
      "stateMutability": "nonpayable",
      "type": "function"
    },
    {
      "inputs": [
        {
          "internalType": "address",
          "name": "clientContract_",
          "type": "address"
        }
      ],
      "name": "_setClientContract",
      "outputs": [],
      "stateMutability": "nonpayable",
      "type": "function"
    },
    {
      "inputs": [
        {
          "internalType": "address",
          "name": "kToken_",
          "type": "address"
        }
      ],
      "name": "_setKToken",
      "outputs": [],
      "stateMutability": "nonpayable",
      "type": "function"
    },
    {
      "inputs": [],
      "name": "clientChain",
      "outputs": [
        {
          "internalType": "string",
          "name": "",
          "type": "string"
        }
      ],
      "stateMutability": "view",
      "type": "function"
    },
    {
      "inputs": [],
      "name": "clientContract",
      "outputs": [
        {
          "internalType": "string",
          "name": "",
          "type": "string"
        }
      ],
      "stateMutability": "view",
      "type": "function"
    },
    {
      "inputs": [
        {
          "internalType": "bytes32",
          "name": "commandId",
          "type": "bytes32"
        },
        {
          "internalType": "string",
          "name": "sourceChain",
          "type": "string"
        },
        {
          "internalType": "string",
          "name": "sourceAddress",
          "type": "string"
        },
        {
          "internalType": "bytes",
          "name": "payload",
          "type": "bytes"
        }
      ],
      "name": "execute",
      "outputs": [],
      "stateMutability": "nonpayable",
      "type": "function"
    },
    {
      "inputs": [
        {
          "internalType": "bytes",
          "name": "payload",
          "type": "bytes"
        },
        {
          "internalType": "uint256",
          "name": "gasLimit",
          "type": "uint256"
        }
      ],
      "name": "gasEstimate",
      "outputs": [
        {
          "internalType": "uint256",
          "name": "gas",
          "type": "uint256"
        }
      ],
      "stateMutability": "view",
      "type": "function"
    },
    {
      "inputs": [],
      "name": "gasReceiver",
      "outputs": [
        {
          "internalType": "contract IAxelarGasService",
          "name": "",
          "type": "address"
        }
      ],
      "stateMutability": "view",
      "type": "function"
    },
    {
      "inputs": [],
      "name": "gateway",
      "outputs": [
        {
          "internalType": "contract IAxelarGateway",
          "name": "",
          "type": "address"
        }
      ],
      "stateMutability": "view",
      "type": "function"
    },
    {
      "inputs": [],
      "name": "kToken",
      "outputs": [
        {
          "internalType": "address",
          "name": "",
          "type": "address"
        }
      ],
      "stateMutability": "view",
      "type": "function"
    },
    {
      "inputs": [],
      "name": "owner",
      "outputs": [
        {
          "internalType": "address",
          "name": "",
          "type": "address"
        }
      ],
      "stateMutability": "view",
      "type": "function"
    },
    {
      "inputs": [],
      "name": "renounceOwnership",
      "outputs": [],
      "stateMutability": "nonpayable",
      "type": "function"
    },
    {
      "inputs": [
        {
          "internalType": "address",
          "name": "sender",
          "type": "address"
        },
        {
          "internalType": "bytes",
          "name": "payload",
          "type": "bytes"
        }
      ],
      "name": "sendMessage",
      "outputs": [],
      "stateMutability": "payable",
      "type": "function"
    },
    {
      "inputs": [
        {
          "internalType": "address",
          "name": "newOwner",
          "type": "address"
        }
      ],
      "name": "transferOwnership",
      "outputs": [],
      "stateMutability": "nonpayable",
      "type": "function"
    }
  ],
  "transactionHash": "0xff7c441054e65fc63479a3894c2b741501d420a585b6f60c403beddd16d1b980",
  "args": [
    "0x0000000000000000000000000000000000000000",
    "0x4D147dCb984e6affEEC47e44293DA442580A3Ec0",
    "0xbE406F0189A0B4cf3A05C286473D23791Dd44Cc6",
    "0x0000000000000000000000000000000000000000",
    "ethereum-sepolia"
  ],
  "numDeployments": 1,
  "solcInputHash": "b64876b1e957758841b9047c285c3bf7",
  "bytecode": "0x60a06040523480156200001157600080fd5b5060405162001a4138038062001a41833981016040819052620000349162000389565b8484848484836001600160a01b038116620000625760405163e6c4247b60e01b815260040160405180910390fd5b6001600160a01b03166080526200007933620000e3565b600080546001600160a01b038088166001600160a01b031992831617909255600180548684169216919091179055620000b490831662000135565b600290620000c3908262000538565b506003620000d2828262000538565b505050505050505050505062000682565b600480546001600160a01b038381166001600160a01b0319831681179093556040519116919082907f8be0079c531659141344cd1fd0a4f28419497f9722a3daafe3b4186f6b6457e090600090a35050565b604051606082811b6001600160601b03191660208301529060009060340160408051808303601f190181528282018252601083526f181899199a1a9b1b9c1cb0b131b232b360811b60208401528151602a80825260608201909352909350600091602082018180368337019050509050600360fc1b81600081518110620001c057620001c062000604565b60200101906001600160f81b031916908160001a905350600f60fb1b81600181518110620001f257620001f262000604565b60200101906001600160f81b031916908160001a90535060005b60148110156200034d578260048583815181106200022e576200022e62000604565b016020015182516001600160f81b031990911690911c60f81c90811062000259576200025962000604565b01602001516001600160f81b031916826200027683600262000630565b6200028390600262000650565b8151811062000296576200029662000604565b60200101906001600160f81b031916908160001a90535082848281518110620002c357620002c362000604565b602091010151815160f89190911c600f16908110620002e657620002e662000604565b01602001516001600160f81b031916826200030383600262000630565b6200031090600362000650565b8151811062000323576200032362000604565b60200101906001600160f81b031916908160001a905350620003458162000666565b90506200020c565b50949350505050565b80516001600160a01b03811681146200036e57600080fd5b919050565b634e487b7160e01b600052604160045260246000fd5b600080600080600060a08688031215620003a257600080fd5b620003ad8662000356565b94506020620003be81880162000356565b9450620003ce6040880162000356565b9350620003de6060880162000356565b60808801519093506001600160401b0380821115620003fc57600080fd5b818901915089601f8301126200041157600080fd5b81518181111562000426576200042662000373565b604051601f8201601f19908116603f0116810190838211818310171562000451576200045162000373565b816040528281528c868487010111156200046a57600080fd5b600093505b828410156200048e57848401860151818501870152928501926200046f565b60008684830101528096505050505050509295509295909350565b600181811c90821680620004be57607f821691505b602082108103620004df57634e487b7160e01b600052602260045260246000fd5b50919050565b601f8211156200053357600081815260208120601f850160051c810160208610156200050e5750805b601f850160051c820191505b818110156200052f578281556001016200051a565b5050505b505050565b81516001600160401b0381111562000554576200055462000373565b6200056c81620005658454620004a9565b84620004e5565b602080601f831160018114620005a457600084156200058b5750858301515b600019600386901b1c1916600185901b1785556200052f565b600085815260208120601f198616915b82811015620005d557888601518255948401946001909101908401620005b4565b5085821015620005f45787850151600019600388901b60f8161c191681555b5050505050600190811b01905550565b634e487b7160e01b600052603260045260246000fd5b634e487b7160e01b600052601160045260246000fd5b80820281158282048414176200064a576200064a6200061a565b92915050565b808201808211156200064a576200064a6200061a565b6000600182016200067b576200067b6200061a565b5060010190565b608051611396620006ab6000396000818160fc015281816103700152610ae801526113966000f3fe6080604052600436106100e85760003560e01c8063715018a61161008a578063aaf66fc911610059578063aaf66fc914610270578063bb5ddb0f14610285578063bc9fd9e714610298578063f2fde38b146102c657600080fd5b8063715018a6146101fb57806380d14b4a146102105780638da5cb5b14610230578063a398c19c1461024e57600080fd5b80631e1c85b3116100c65780631e1c85b31461017b578063223c19f91461019b57806349160658146101bb5780636ed53792146101db57600080fd5b8063116191b6146100ed57806319329ade146101395780631c1850cd1461015b575b600080fd5b3480156100f957600080fd5b507f00000000000000000000000000000000000000000000000000000000000000005b6040516001600160a01b0390911681526020015b60405180910390f35b34801561014557600080fd5b50610159610154366004610c42565b6102e6565b005b34801561016757600080fd5b50610159610176366004610c42565b610310565b34801561018757600080fd5b50610159610196366004610ceb565b61033b565b3480156101a757600080fd5b5060005461011c906001600160a01b031681565b3480156101c757600080fd5b506101596101d6366004610d85565b61034f565b3480156101e757600080fd5b506101596101f6366004610c42565b610440565b34801561020757600080fd5b5061015961046a565b34801561021c57600080fd5b5060015461011c906001600160a01b031681565b34801561023c57600080fd5b506004546001600160a01b031661011c565b34801561025a57600080fd5b5061026361047e565b6040516101309190610e6f565b34801561027c57600080fd5b5061026361050c565b610159610293366004610ea2565b610519565b3480156102a457600080fd5b506102b86102b3366004610ef2565b610523565b604051908152602001610130565b3480156102d257600080fd5b506101596102e1366004610c42565b6105a4565b6102ee610622565b600180546001600160a01b0319166001600160a01b0392909216919091179055565b610318610622565b61032a816001600160a01b031661067c565b6002906103379082610fbf565b5050565b610343610622565b60036103378282610fbf565b6000828260405161036192919061107f565b604051809103902090506103927f000000000000000000000000000000000000000000000000000000000000000090565b6001600160a01b0316635f6970c38989898989876040518763ffffffff1660e01b81526004016103c7969594939291906110b8565b6020604051808303816000875af11580156103e6573d6000803e3d6000fd5b505050506040513d601f19601f8201168201806040525081019061040a91906110f9565b61042757604051631403112d60e21b815260040160405180910390fd5b6104368888888888888861087e565b5050505050505050565b610448610622565b600080546001600160a01b0319166001600160a01b0392909216919091179055565b610472610622565b61047c6000610917565b565b6002805461048b90610f37565b80601f01602080910402602001604051908101604052809291908181526020018280546104b790610f37565b80156105045780601f106104d957610100808354040283529160200191610504565b820191906000526020600020905b8154815290600101906020018083116104e757829003601f168201915b505050505081565b6003805461048b90610f37565b6103378282610969565b600154604051630135eaa760e41b81526000916001600160a01b03169063135eaa709061055c9060039060029088908890600401611198565b602060405180830381865afa158015610579573d6000803e3d6000fd5b505050506040513d601f19601f8201168201806040525081019061059d91906111f2565b9392505050565b6105ac610622565b6001600160a01b0381166106165760405162461bcd60e51b815260206004820152602660248201527f4f776e61626c653a206e6577206f776e657220697320746865207a65726f206160448201526564647265737360d01b60648201526084015b60405180910390fd5b61061f81610917565b50565b6004546001600160a01b0316331461047c5760405162461bcd60e51b815260206004820181905260248201527f4f776e61626c653a2063616c6c6572206973206e6f7420746865206f776e6572604482015260640161060d565b604051606082811b6bffffffffffffffffffffffff191660208301529060009060340160408051808303601f190181528282018252601083526f181899199a1a9b1b9c1cb0b131b232b360811b60208401528151602a80825260608201909352909350600091602082018180368337019050509050600360fc1b816000815181106107095761070961120b565b60200101906001600160f81b031916908160001a905350600f60fb1b816001815181106107385761073861120b565b60200101906001600160f81b031916908160001a90535060005b6014811015610875578260048583815181106107705761077061120b565b016020015182516001600160f81b031990911690911c60f81c9081106107985761079861120b565b01602001516001600160f81b031916826107b3836002611237565b6107be906002611254565b815181106107ce576107ce61120b565b60200101906001600160f81b031916908160001a905350828482815181106107f8576107f861120b565b602091010151815160f89190911c600f169081106108185761081861120b565b01602001516001600160f81b03191682610833836002611237565b61083e906003611254565b8151811061084e5761084e61120b565b60200101906001600160f81b031916908160001a90535061086e81611267565b9050610752565b50949350505050565b60008061088d83850185611280565b600054604051633a39c7c360e21b81526001600160a01b03808516600483015260248201849052939550919350919091169063e8e71f0c906044016020604051808303816000875af11580156108e7573d6000803e3d6000fd5b505050506040513d601f19601f8201168201806040525081019061090b91906110f9565b50505050505050505050565b600480546001600160a01b038381166001600160a01b0319831681179093556040519116919082907f8be0079c531659141344cd1fd0a4f28419497f9722a3daafe3b4186f6b6457e090600090a35050565b6000546001600160a01b031633146109b25760405162461bcd60e51b815260206004820152600c60248201526b155b985d5d1a1bdc9a5e995960a21b604482015260640161060d565b600154604051630135eaa760e41b81526000916001600160a01b03169063135eaa70906109ed9060039060029087906107d090600401611198565b602060405180830381865afa158015610a0a573d6000803e3d6000fd5b505050506040513d601f19601f82011682018060405250810190610a2e91906111f2565b905080341015610a755760405162461bcd60e51b8152602060048201526012602482015271496e73756666696369656e742066756e647360701b604482015260640161060d565b600154604051630c93e3bb60e01b81526001600160a01b0390911690630c93e3bb908390610ab190309060039060029089908b906004016112ac565b6000604051808303818588803b158015610aca57600080fd5b505af1158015610ade573d6000803e3d6000fd5b5050505050610b0a7f000000000000000000000000000000000000000000000000000000000000000090565b6001600160a01b0316631c92115f60036002856040518463ffffffff1660e01b8152600401610b3b9392919061130a565b600060405180830381600087803b158015610b5557600080fd5b505af1158015610b69573d6000803e3d6000fd5b5050505060008134610b7b919061134d565b1115610b9457610b9483610b8f833461134d565b610b99565b505050565b6000826001600160a01b03168260405160006040518083038185875af1925050503d8060008114610be6576040519150601f19603f3d011682016040523d82523d6000602084013e610beb565b606091505b5050905080610b945760405162461bcd60e51b815260206004820152600e60248201526d1499599d5b99080819985a5b195960921b604482015260640161060d565b6001600160a01b038116811461061f57600080fd5b600060208284031215610c5457600080fd5b813561059d81610c2d565b634e487b7160e01b600052604160045260246000fd5b600067ffffffffffffffff80841115610c9057610c90610c5f565b604051601f8501601f19908116603f01168101908282118183101715610cb857610cb8610c5f565b81604052809350858152868686011115610cd157600080fd5b858560208301376000602087830101525050509392505050565b600060208284031215610cfd57600080fd5b813567ffffffffffffffff811115610d1457600080fd5b8201601f81018413610d2557600080fd5b610d3484823560208401610c75565b949350505050565b60008083601f840112610d4e57600080fd5b50813567ffffffffffffffff811115610d6657600080fd5b602083019150836020828501011115610d7e57600080fd5b9250929050565b60008060008060008060006080888a031215610da057600080fd5b87359650602088013567ffffffffffffffff80821115610dbf57600080fd5b610dcb8b838c01610d3c565b909850965060408a0135915080821115610de457600080fd5b610df08b838c01610d3c565b909650945060608a0135915080821115610e0957600080fd5b50610e168a828b01610d3c565b989b979a50959850939692959293505050565b6000815180845260005b81811015610e4f57602081850181015186830182015201610e33565b506000602082860101526020601f19601f83011685010191505092915050565b60208152600061059d6020830184610e29565b600082601f830112610e9357600080fd5b61059d83833560208501610c75565b60008060408385031215610eb557600080fd5b8235610ec081610c2d565b9150602083013567ffffffffffffffff811115610edc57600080fd5b610ee885828601610e82565b9150509250929050565b60008060408385031215610f0557600080fd5b823567ffffffffffffffff811115610f1c57600080fd5b610f2885828601610e82565b95602094909401359450505050565b600181811c90821680610f4b57607f821691505b602082108103610f6b57634e487b7160e01b600052602260045260246000fd5b50919050565b601f821115610b9457600081815260208120601f850160051c81016020861015610f985750805b601f850160051c820191505b81811015610fb757828155600101610fa4565b505050505050565b815167ffffffffffffffff811115610fd957610fd9610c5f565b610fed81610fe78454610f37565b84610f71565b602080601f831160018114611022576000841561100a5750858301515b600019600386901b1c1916600185901b178555610fb7565b600085815260208120601f198616915b8281101561105157888601518255948401946001909101908401611032565b508582101561106f5787850151600019600388901b60f8161c191681555b5050505050600190811b01905550565b8183823760009101908152919050565b81835281816020850137506000828201602090810191909152601f909101601f19169091010190565b8681526080602082015260006110d260808301878961108f565b82810360408401526110e581868861108f565b915050826060830152979650505050505050565b60006020828403121561110b57600080fd5b8151801515811461059d57600080fd5b6000815461112881610f37565b808552602060018381168015611145576001811461115f5761118d565b60ff1985168884015283151560051b88018301955061118d565b866000528260002060005b858110156111855781548a820186015290830190840161116a565b890184019650505b505050505092915050565b60a0815260006111ab60a083018761111b565b82810360208401526111bd818761111b565b905082810360408401526111d18186610e29565b60608401949094525050808203608090910152600081526020019392505050565b60006020828403121561120457600080fd5b5051919050565b634e487b7160e01b600052603260045260246000fd5b634e487b7160e01b600052601160045260246000fd5b808202811582820484141761124e5761124e611221565b92915050565b8082018082111561124e5761124e611221565b60006001820161127957611279611221565b5060010190565b6000806040838503121561129357600080fd5b823561129e81610c2d565b946020939093013593505050565b600060018060a01b03808816835260a060208401526112ce60a084018861111b565b83810360408501526112e0818861111b565b905083810360608501526112f48187610e29565b9250508084166080840152509695505050505050565b60608152600061131d606083018661111b565b828103602084015261132f818661111b565b905082810360408401526113438185610e29565b9695505050505050565b8181038181111561124e5761124e61122156fea2646970667358221220b5a1d0a71e80b8918315bc807a971df6b4732f751ccc6aa6aafe155f6374b3b864736f6c63430008140033",
  "devdoc": {
    "errors": {
      "InvalidAddress()": [
        {
          "details": "Thrown when a function is called with an invalid address."
        }
      ],
      "NotApprovedByGateway()": [
        {
          "details": "Thrown when the call is not approved by the Axelar Gateway."
        }
      ]
    },
    "kind": "dev",
    "methods": {
      "execute(bytes32,string,string,bytes)": {
        "details": "This function ensures the call is approved by Axelar Gateway before execution. It uses a hash of the payload for validation and internally calls _execute for the actual command execution. Reverts if the validation fails.",
        "params": {
          "commandId": "The unique identifier of the cross-chain message being executed.",
          "payload": "The payload of the message payload.",
          "sourceAddress": "The address on the source chain that sent the message.",
          "sourceChain": "The name of the source chain from which the message originated."
        }
      },
      "gateway()": {
        "returns": {
          "_0": "The Axelar Gateway instance."
        }
      },
      "owner()": {
        "details": "Returns the address of the current owner."
      },
      "renounceOwnership()": {
        "details": "Leaves the contract without owner. It will not be possible to call `onlyOwner` functions. Can only be called by the current owner. NOTE: Renouncing ownership will leave the contract without an owner, thereby disabling any functionality that is only available to the owner."
      },
      "transferOwnership(address)": {
        "details": "Transfers ownership of the contract to a new account (`newOwner`). Can only be called by the current owner."
      }
    },
    "version": 1
  },
  "userdoc": {
    "kind": "user",
    "methods": {
      "execute(bytes32,string,string,bytes)": {
        "notice": "Executes the cross-chain command after validating it with the Axelar Gateway."
      },
      "gateway()": {
        "notice": "Returns the address of the AxelarGateway contract."
      }
    },
    "version": 1
  },
  "storageLayout": {
    "storage": [
      {
        "astId": 10573,
        "contract": "contracts/MessageHub/MessageHubClient.sol:MessageHubClient",
        "label": "kToken",
        "offset": 0,
        "slot": "0",
        "type": "t_address"
      },
      {
        "astId": 10576,
        "contract": "contracts/MessageHub/MessageHubClient.sol:MessageHubClient",
        "label": "gasReceiver",
        "offset": 0,
        "slot": "1",
        "type": "t_contract(IAxelarGasService)604"
      },
      {
        "astId": 10578,
        "contract": "contracts/MessageHub/MessageHubClient.sol:MessageHubClient",
        "label": "clientContract",
        "offset": 0,
        "slot": "2",
        "type": "t_string_storage"
      },
      {
        "astId": 10580,
        "contract": "contracts/MessageHub/MessageHubClient.sol:MessageHubClient",
        "label": "clientChain",
        "offset": 0,
        "slot": "3",
        "type": "t_string_storage"
      },
      {
        "astId": 1084,
        "contract": "contracts/MessageHub/MessageHubClient.sol:MessageHubClient",
        "label": "_owner",
        "offset": 0,
        "slot": "4",
        "type": "t_address"
      }
    ],
    "types": {
      "t_address": {
        "encoding": "inplace",
        "label": "address",
        "numberOfBytes": "20"
      },
      "t_contract(IAxelarGasService)604": {
        "encoding": "inplace",
        "label": "contract IAxelarGasService",
        "numberOfBytes": "20"
      },
      "t_string_storage": {
        "encoding": "bytes",
        "label": "string",
        "numberOfBytes": "32"
      }
    }
  }
}