{
  "address": "0x37eF1d6862bD25f9046EC564c11a4D5ae0E598Ff",
  "abi": [
    {
      "inputs": [
        {
          "internalType": "address",
          "name": "messageHub_",
          "type": "address"
        },
        {
          "internalType": "address payable",
          "name": "admin_",
          "type": "address"
        },
        {
          "internalType": "address",
          "name": "implementation_",
          "type": "address"
        },
        {
          "internalType": "bytes",
          "name": "becomeImplementationData",
          "type": "bytes"
        }
      ],
      "stateMutability": "nonpayable",
      "type": "constructor"
    },
    {
      "anonymous": false,
      "inputs": [
        {
          "indexed": false,
          "internalType": "address",
          "name": "liquidator",
          "type": "address"
        },
        {
          "indexed": false,
          "internalType": "address",
          "name": "borrower",
          "type": "address"
        },
        {
          "indexed": false,
          "internalType": "uint256",
          "name": "repayAmount",
          "type": "uint256"
        },
        {
          "indexed": false,
          "internalType": "address",
          "name": "kTokenCollateral",
          "type": "address"
        },
        {
          "indexed": false,
          "internalType": "uint256",
          "name": "seizeTokens",
          "type": "uint256"
        }
      ],
      "name": "LiquidateBorrow",
      "type": "event"
    },
    {
      "anonymous": false,
      "inputs": [
        {
          "indexed": false,
          "internalType": "address",
          "name": "minter",
          "type": "address"
        },
        {
          "indexed": false,
          "internalType": "uint256",
          "name": "mintAmount",
          "type": "uint256"
        },
        {
          "indexed": false,
          "internalType": "uint256",
          "name": "mintTokens",
          "type": "uint256"
        }
      ],
      "name": "Mint",
      "type": "event"
    },
    {
      "anonymous": false,
      "inputs": [
        {
          "indexed": false,
          "internalType": "address",
          "name": "oldImplementation",
          "type": "address"
        },
        {
          "indexed": false,
          "internalType": "address",
          "name": "newImplementation",
          "type": "address"
        }
      ],
      "name": "NewImplementation",
      "type": "event"
    },
    {
      "anonymous": false,
      "inputs": [
        {
          "indexed": false,
          "internalType": "address",
          "name": "oldMessageHub",
          "type": "address"
        },
        {
          "indexed": false,
          "internalType": "address",
          "name": "messageHub",
          "type": "address"
        }
      ],
      "name": "NewMessageHub",
      "type": "event"
    },
    {
      "anonymous": false,
      "inputs": [
        {
          "indexed": false,
          "internalType": "address",
          "name": "payer",
          "type": "address"
        },
        {
          "indexed": false,
          "internalType": "address",
          "name": "borrower",
          "type": "address"
        },
        {
          "indexed": false,
          "internalType": "uint256",
          "name": "repayAmount",
          "type": "uint256"
        },
        {
          "indexed": false,
          "internalType": "uint256",
          "name": "accountBorrows",
          "type": "uint256"
        },
        {
          "indexed": false,
          "internalType": "uint256",
          "name": "totalBorrows",
          "type": "uint256"
        }
      ],
      "name": "RepayBorrow",
      "type": "event"
    },
    {
      "stateMutability": "payable",
      "type": "fallback"
    },
    {
      "inputs": [],
      "name": "_acceptAdmin",
      "outputs": [
        {
          "internalType": "uint256",
          "name": "",
          "type": "uint256"
        }
      ],
      "stateMutability": "nonpayable",
      "type": "function"
    },
    {
      "inputs": [
        {
          "internalType": "address",
          "name": "implementation_",
          "type": "address"
        },
        {
          "internalType": "bool",
          "name": "allowResign",
          "type": "bool"
        },
        {
          "internalType": "bytes",
          "name": "becomeImplementationData",
          "type": "bytes"
        }
      ],
      "name": "_setImplementation",
      "outputs": [],
      "stateMutability": "nonpayable",
      "type": "function"
    },
    {
      "inputs": [
        {
          "internalType": "address",
          "name": "newMessageHub",
          "type": "address"
        }
      ],
      "name": "_setMessageHub",
      "outputs": [
        {
          "internalType": "uint256",
          "name": "",
          "type": "uint256"
        }
      ],
      "stateMutability": "nonpayable",
      "type": "function"
    },
    {
      "inputs": [
        {
          "internalType": "address payable",
          "name": "newPendingAdmin",
          "type": "address"
        }
      ],
      "name": "_setPendingAdmin",
      "outputs": [
        {
          "internalType": "uint256",
          "name": "",
          "type": "uint256"
        }
      ],
      "stateMutability": "nonpayable",
      "type": "function"
    },
    {
      "inputs": [],
      "name": "admin",
      "outputs": [
        {
          "internalType": "address payable",
          "name": "",
          "type": "address"
        }
      ],
      "stateMutability": "view",
      "type": "function"
    },
    {
      "inputs": [
        {
          "internalType": "bytes",
          "name": "data",
          "type": "bytes"
        }
      ],
      "name": "delegateToImplementation",
      "outputs": [
        {
          "internalType": "bytes",
          "name": "",
          "type": "bytes"
        }
      ],
      "stateMutability": "nonpayable",
      "type": "function"
    },
    {
      "inputs": [
        {
          "internalType": "bytes",
          "name": "data",
          "type": "bytes"
        }
      ],
      "name": "delegateToViewImplementation",
      "outputs": [
        {
          "internalType": "bytes",
          "name": "",
          "type": "bytes"
        }
      ],
      "stateMutability": "view",
      "type": "function"
    },
    {
      "inputs": [],
      "name": "implementation",
      "outputs": [
        {
          "internalType": "address",
          "name": "",
          "type": "address"
        }
      ],
      "stateMutability": "view",
      "type": "function"
    },
    {
      "inputs": [
        {
          "internalType": "address",
          "name": "borrower",
          "type": "address"
        },
        {
          "internalType": "uint256",
          "name": "repayAmount",
          "type": "uint256"
        },
        {
          "internalType": "contract KTokenInterface",
          "name": "kTokenCollateral",
          "type": "address"
        }
      ],
      "name": "liquidateBorrow",
      "outputs": [],
      "stateMutability": "payable",
      "type": "function"
    },
    {
      "inputs": [],
      "name": "messageHub",
      "outputs": [
        {
          "internalType": "address",
          "name": "",
          "type": "address"
        }
      ],
      "stateMutability": "view",
      "type": "function"
    },
    {
      "inputs": [
        {
          "internalType": "uint256",
          "name": "mintAmount",
          "type": "uint256"
        }
      ],
      "name": "mint",
      "outputs": [],
      "stateMutability": "payable",
      "type": "function"
    },
    {
      "inputs": [
        {
          "internalType": "address payable",
          "name": "recipient",
          "type": "address"
        },
        {
          "internalType": "uint256",
          "name": "amount",
          "type": "uint256"
        }
      ],
      "name": "releaseETH",
      "outputs": [
        {
          "internalType": "bool",
          "name": "",
          "type": "bool"
        }
      ],
      "stateMutability": "nonpayable",
      "type": "function"
    },
    {
      "inputs": [
        {
          "internalType": "uint256",
          "name": "repayAmount",
          "type": "uint256"
        }
      ],
      "name": "repayBorrow",
      "outputs": [],
      "stateMutability": "payable",
      "type": "function"
    },
    {
      "inputs": [
        {
          "internalType": "address",
          "name": "borrower",
          "type": "address"
        },
        {
          "internalType": "uint256",
          "name": "repayAmount",
          "type": "uint256"
        }
      ],
      "name": "repayBorrowBehalf",
      "outputs": [],
      "stateMutability": "payable",
      "type": "function"
    }
  ],
  "transactionHash": "0x243878352b72c846259a1c2f5ab7f3a6aca226da3a4c0bb15aa156f1f396ccd0",
  "args": [
    "0x6f6318b3840C875106fDf1569776856022B4b28F",
    "0x6027862A465EF7d842e32A8a16a39D4D83c25D3A",
    "0xD6937829C841E8b4EAB3DFD44E195299eCEFb43e",
    "0x00"
  ],
  "numDeployments": 1,
  "solcInputHash": "b8d11e055e8beac1215140b23273efd8",
  "bytecode": "0x60806040523480156200001157600080fd5b506040516200113b3803806200113b833981016040819052620000349162000342565b600180546001600160a01b031916331790556040516001600160a01b03851660248201526200009690839060440160408051601f198184030181529190526020810180516001600160e01b0390811663454bce6b60e11b17909152620000ce16565b50620000a5826000836200014a565b5050600180546001600160a01b0319166001600160a01b0392909216919091179055506200048e565b6060600080846001600160a01b031684604051620000ed91906200043b565b600060405180830381855af49150503d80600081146200012a576040519150601f19603f3d011682016040523d82523d6000602084013e6200012f565b606091505b5090925090508162000142573d60208201fd5b949350505050565b6001546001600160a01b03163314620001cf5760405162461bcd60e51b815260206004820152603a60248201527f4b436c69656e7444656c656761746f723a3a5f736574496d706c656d656e746160448201527f74696f6e3a2043616c6c6572206d7573742062652061646d696e000000000000606482015260840160405180910390fd5b811562000211576040805160048152602481019091526020810180516001600160e01b0390811663153ab50560e01b179091526200020f9190620002cc16565b505b600280546001600160a01b038581166001600160a01b03198316179092556040519116906200027e906200024a90849060240162000459565b60408051601f198184030181529190526020810180516001600160e01b03908116630adccee560e31b17909152620002cc16565b50600254604080516001600160a01b03808516825290921660208301527fd604de94d45953f9138079ec1b82d533cb2160c906d1076d1f7ed54befbca97a910160405180910390a150505050565b600254606090620002e7906001600160a01b031683620000ce565b92915050565b6001600160a01b03811681146200030357600080fd5b50565b634e487b7160e01b600052604160045260246000fd5b60005b83811015620003395781810151838201526020016200031f565b50506000910152565b600080600080608085870312156200035957600080fd5b84516200036681620002ed565b60208601519094506200037981620002ed565b60408601519093506200038c81620002ed565b60608601519092506001600160401b0380821115620003aa57600080fd5b818701915087601f830112620003bf57600080fd5b815181811115620003d457620003d462000306565b604051601f8201601f19908116603f01168101908382118183101715620003ff57620003ff62000306565b816040528281528a60208487010111156200041957600080fd5b6200042c8360208301602088016200031c565b979a9699509497505050505050565b600082516200044f8184602087016200031c565b9190910192915050565b60208152600082518060208401526200047a8160408501602087016200031c565b601f01601f19169190910160400192915050565b610c9d806200049e6000396000f3fe6080604052600436106100dd5760003560e01c80638a979cd61161007f578063e8e71f0c11610059578063e8e71f0c14610328578063e9c714f214610358578063f5e3c4621461036d578063f851a44014610380576100dd565b80638a979cd6146102c7578063a0712d68146102f5578063b71d1a0c14610308576100dd565b80634487152f116100bb5780634487152f1461022f5780634847655d1461024f578063555bcc40146102875780635c60da1b146102a7576100dd565b80630933c1ed146101d35780630e752702146102095780632608f8181461021c575b34156101565760405162461bcd60e51b815260206004820152603860248201527f4b436c69656e7444656c656761746f723a66616c6c6261636b3a2063616e6e6f60448201527f742073656e642076616c756520746f2066616c6c6261636b000000000000000060648201526084015b60405180910390fd5b6002546040516000916001600160a01b0316906101769083903690610911565b600060405180830381855af49150503d80600081146101b1576040519150601f19603f3d011682016040523d82523d6000602084013e6101b6565b606091505b505090506040513d6000823e8180156101cd573d82f35b3d82fd5b005b3480156101df57600080fd5b506101f36101ee3660046109e6565b6103a0565b6040516102009190610a3f565b60405180910390f35b6101d1610217366004610a72565b6103bf565b6101d161022a366004610aa3565b610408565b34801561023b57600080fd5b506101f361024a3660046109e6565b61045c565b34801561025b57600080fd5b5060005461026f906001600160a01b031681565b6040516001600160a01b039091168152602001610200565b34801561029357600080fd5b506101d16102a2366004610add565b61051f565b3480156102b357600080fd5b5060025461026f906001600160a01b031681565b3480156102d357600080fd5b506102e76102e2366004610b3f565b61068c565b604051908152602001610200565b6101d1610303366004610a72565b6106f6565b34801561031457600080fd5b506102e7610323366004610b3f565b61073b565b34801561033457600080fd5b50610348610343366004610aa3565b610788565b6040519015158152602001610200565b34801561036457600080fd5b506102e76107f2565b6101d161037b366004610b5c565b610845565b34801561038c57600080fd5b5060015461026f906001600160a01b031681565b6002546060906103b9906001600160a01b0316836108a2565b92915050565b610404816040516024016103d591815260200190565b60408051601f198184030181529190526020810180516001600160e01b031663073a938160e11b1790526103a0565b5050565b6040516001600160a01b0383166024820152604481018290526104579060640160408051601f198184030181529190526020810180516001600160e01b03166304c11f0360e31b1790526103a0565b505050565b6060600080306001600160a01b03168460405160240161047c9190610a3f565b60408051601f198184030181529181526020820180516001600160e01b0316630933c1ed60e01b179052516104b19190610b9e565b600060405180830381855afa9150503d80600081146104ec576040519150601f19603f3d011682016040523d82523d6000602084013e6104f1565b606091505b50909250905081610503573d60208201fd5b808060200190518101906105179190610bba565b949350505050565b6001546001600160a01b0316331461059f5760405162461bcd60e51b815260206004820152603a60248201527f4b436c69656e7444656c656761746f723a3a5f736574496d706c656d656e746160448201527f74696f6e3a2043616c6c6572206d7573742062652061646d696e000000000000606482015260840161014d565b81156105d9576040805160048152602481019091526020810180516001600160e01b031663153ab50560e01b1790526105d7906103a0565b505b600280546001600160a01b038581166001600160a01b031983161790925560405191169061063e9061060f908490602401610a3f565b60408051601f198184030181529190526020810180516001600160e01b0316630adccee560e31b1790526103a0565b50600254604080516001600160a01b03808516825290921660208301527fd604de94d45953f9138079ec1b82d533cb2160c906d1076d1f7ed54befbca97a910160405180910390a150505050565b6040516001600160a01b038216602482015260009081906106d99060440160408051601f198184030181529190526020810180516001600160e01b031663454bce6b60e11b1790526103a0565b9050808060200190518101906106ef9190610c31565b9392505050565b6104048160405160240161070c91815260200190565b60408051601f198184030181529190526020810180516001600160e01b031663140e25ad60e31b1790526103a0565b6040516001600160a01b038216602482015260009081906106d99060440160408051601f198184030181529190526020810180516001600160e01b0316632dc7468360e21b1790526103a0565b6040516001600160a01b03831660248201526044810182905260009081906107dc9060640160408051601f198184030181529190526020810180516001600160e01b0316633a39c7c360e21b1790526103a0565b9050808060200190518101906105179190610c4a565b6040805160048152602481019091526020810180516001600160e01b03166374e38a7960e11b1790526000908190610829906103a0565b90508080602001905181019061083f9190610c31565b91505090565b6040516001600160a01b038085166024830152604482018490528216606482015261089c9060840160408051601f198184030181529190526020810180516001600160e01b0316637af1e23160e11b1790526103a0565b50505050565b6060600080846001600160a01b0316846040516108bf9190610b9e565b600060405180830381855af49150503d80600081146108fa576040519150601f19603f3d011682016040523d82523d6000602084013e6108ff565b606091505b50909250905081610517573d60208201fd5b8183823760009101908152919050565b634e487b7160e01b600052604160045260246000fd5b604051601f8201601f1916810167ffffffffffffffff8111828210171561096057610960610921565b604052919050565b600067ffffffffffffffff82111561098257610982610921565b50601f01601f191660200190565b600082601f8301126109a157600080fd5b81356109b46109af82610968565b610937565b8181528460208386010111156109c957600080fd5b816020850160208301376000918101602001919091529392505050565b6000602082840312156109f857600080fd5b813567ffffffffffffffff811115610a0f57600080fd5b61051784828501610990565b60005b83811015610a36578181015183820152602001610a1e565b50506000910152565b6020815260008251806020840152610a5e816040850160208701610a1b565b601f01601f19169190910160400192915050565b600060208284031215610a8457600080fd5b5035919050565b6001600160a01b0381168114610aa057600080fd5b50565b60008060408385031215610ab657600080fd5b8235610ac181610a8b565b946020939093013593505050565b8015158114610aa057600080fd5b600080600060608486031215610af257600080fd5b8335610afd81610a8b565b92506020840135610b0d81610acf565b9150604084013567ffffffffffffffff811115610b2957600080fd5b610b3586828701610990565b9150509250925092565b600060208284031215610b5157600080fd5b81356106ef81610a8b565b600080600060608486031215610b7157600080fd5b8335610b7c81610a8b565b9250602084013591506040840135610b9381610a8b565b809150509250925092565b60008251610bb0818460208701610a1b565b9190910192915050565b600060208284031215610bcc57600080fd5b815167ffffffffffffffff811115610be357600080fd5b8201601f81018413610bf457600080fd5b8051610c026109af82610968565b818152856020838501011115610c1757600080fd5b610c28826020830160208601610a1b565b95945050505050565b600060208284031215610c4357600080fd5b5051919050565b600060208284031215610c5c57600080fd5b81516106ef81610acf56fea2646970667358221220d1fb0980766e8c9a3e33e2a208ba1642636f0a111ad272b0d9cd8213723790bc64736f6c63430008140033",
  "devdoc": {
    "author": "Kawa",
    "kind": "dev",
    "methods": {
      "_acceptAdmin()": {
        "details": "Admin function for pending admin to accept role and update admin",
        "returns": {
          "_0": "uint 0=success, otherwise a failure (see ErrorReporter.sol for details)"
        }
      },
      "_setImplementation(address,bool,bytes)": {
        "params": {
          "allowResign": "Flag to indicate whether to call _resignImplementation on the old implementation",
          "becomeImplementationData": "The encoded bytes data to be passed to _becomeImplementation",
          "implementation_": "The address of the new implementation for delegation"
        }
      },
      "_setPendingAdmin(address)": {
        "details": "Admin function to begin change of admin. The newPendingAdmin must call `_acceptAdmin` to finalize the transfer.",
        "params": {
          "newPendingAdmin": "New pending admin."
        },
        "returns": {
          "_0": "uint 0=success, otherwise a failure (see ErrorReporter.sol for details)"
        }
      },
      "delegateToImplementation(bytes)": {
        "details": "It returns to the external caller whatever the implementation returns or forwards reverts",
        "params": {
          "data": "The raw data to delegatecall"
        },
        "returns": {
          "_0": "The returned bytes from the delegatecall"
        }
      },
      "delegateToViewImplementation(bytes)": {
        "details": "It returns to the external caller whatever the implementation returns or forwards reverts  There are an additional 2 prefix uints from the wrapper returndata, which we ignore since we make an extra hop.",
        "params": {
          "data": "The raw data to delegatecall"
        },
        "returns": {
          "_0": "The returned bytes from the delegatecall"
        }
      },
      "liquidateBorrow(address,uint256,address)": {
        "params": {
          "borrower": "The borrower of this kToken to be liquidated",
          "kTokenCollateral": "The market in which to seize collateral from the borrower",
          "repayAmount": "The amount of the underlying borrowed asset to repay"
        }
      },
      "mint(uint256)": {
        "details": "Accrues interest whether or not the operation succeeds, unless reverted",
        "params": {
          "mintAmount": "The amount of the underlying asset to supply"
        }
      },
      "repayBorrow(uint256)": {
        "params": {
          "repayAmount": "The amount to repay, or uint.max for the full outstanding amount"
        }
      },
      "repayBorrowBehalf(address,uint256)": {
        "params": {
          "borrower": "the account with the debt being payed off",
          "repayAmount": "The amount to repay, or uint.max for the full outstanding amount"
        }
      }
    },
    "title": "Kawa's KClientDelegator.sol Contract",
    "version": 1
  },
  "userdoc": {
    "events": {
      "LiquidateBorrow(address,address,uint256,address,uint256)": {
        "notice": "Event emitted when a borrow is liquidated"
      },
      "Mint(address,uint256,uint256)": {
        "notice": "Event emitted when tokens are minted"
      },
      "NewImplementation(address,address)": {
        "notice": "Emitted when implementation is changed"
      },
      "NewMessageHub(address,address)": {
        "notice": "Event emitted when the message hub is changed"
      },
      "RepayBorrow(address,address,uint256,uint256,uint256)": {
        "notice": "Event emitted when a borrow is repaid"
      }
    },
    "kind": "user",
    "methods": {
      "_acceptAdmin()": {
        "notice": "Accepts transfer of admin rights. msg.sender must be pendingAdmin"
      },
      "_setImplementation(address,bool,bytes)": {
        "notice": "Called by the admin to update the implementation of the delegator"
      },
      "_setPendingAdmin(address)": {
        "notice": "Begins transfer of admin rights. The newPendingAdmin must call `_acceptAdmin` to finalize the transfer."
      },
      "admin()": {
        "notice": "Administrator for this contract"
      },
      "delegateToImplementation(bytes)": {
        "notice": "Delegates execution to the implementation contract"
      },
      "delegateToViewImplementation(bytes)": {
        "notice": "Delegates execution to an implementation contract"
      },
      "implementation()": {
        "notice": "Implementation address for this contract"
      },
      "liquidateBorrow(address,uint256,address)": {
        "notice": "The sender liquidates the borrowers collateral.  The collateral seized is transferred to the liquidator."
      },
      "messageHub()": {
        "notice": "MessageHub implementation's address"
      },
      "mint(uint256)": {
        "notice": "Sender supplies assets into the market and receives kTokens in exchange"
      },
      "repayBorrow(uint256)": {
        "notice": "Sender repays their own borrow"
      },
      "repayBorrowBehalf(address,uint256)": {
        "notice": "Sender repays a borrow belonging to borrower"
      }
    },
    "notice": "KTokens which wrap an EIP-20 underlying and delegate to an implementation",
    "version": 1
  },
  "storageLayout": {
    "storage": [
      {
        "astId": 1282,
        "contract": "contracts/KClientDelegator.sol:KClientDelegator",
        "label": "messageHub",
        "offset": 0,
        "slot": "0",
        "type": "t_address"
      },
      {
        "astId": 1285,
        "contract": "contracts/KClientDelegator.sol:KClientDelegator",
        "label": "admin",
        "offset": 0,
        "slot": "1",
        "type": "t_address_payable"
      },
      {
        "astId": 1288,
        "contract": "contracts/KClientDelegator.sol:KClientDelegator",
        "label": "initialized",
        "offset": 20,
        "slot": "1",
        "type": "t_bool"
      },
      {
        "astId": 1245,
        "contract": "contracts/KClientDelegator.sol:KClientDelegator",
        "label": "implementation",
        "offset": 0,
        "slot": "2",
        "type": "t_address"
      }
    ],
    "types": {
      "t_address": {
        "encoding": "inplace",
        "label": "address",
        "numberOfBytes": "20"
      },
      "t_address_payable": {
        "encoding": "inplace",
        "label": "address payable",
        "numberOfBytes": "20"
      },
      "t_bool": {
        "encoding": "inplace",
        "label": "bool",
        "numberOfBytes": "1"
      }
    }
  }
}