{
  "address": "0xD6937829C841E8b4EAB3DFD44E195299eCEFb43e",
  "abi": [
    {
      "inputs": [],
      "stateMutability": "nonpayable",
      "type": "constructor"
    },
    {
      "anonymous": false,
      "inputs": [
        {
          "indexed": false,
          "internalType": "address",
          "name": "liquidator",
          "type": "address"
        },
        {
          "indexed": false,
          "internalType": "address",
          "name": "borrower",
          "type": "address"
        },
        {
          "indexed": false,
          "internalType": "uint256",
          "name": "repayAmount",
          "type": "uint256"
        },
        {
          "indexed": false,
          "internalType": "address",
          "name": "kTokenCollateral",
          "type": "address"
        },
        {
          "indexed": false,
          "internalType": "uint256",
          "name": "seizeTokens",
          "type": "uint256"
        }
      ],
      "name": "LiquidateBorrow",
      "type": "event"
    },
    {
      "anonymous": false,
      "inputs": [
        {
          "indexed": false,
          "internalType": "address",
          "name": "minter",
          "type": "address"
        },
        {
          "indexed": false,
          "internalType": "uint256",
          "name": "mintAmount",
          "type": "uint256"
        },
        {
          "indexed": false,
          "internalType": "uint256",
          "name": "mintTokens",
          "type": "uint256"
        }
      ],
      "name": "Mint",
      "type": "event"
    },
    {
      "anonymous": false,
      "inputs": [
        {
          "indexed": false,
          "internalType": "address",
          "name": "oldMessageHub",
          "type": "address"
        },
        {
          "indexed": false,
          "internalType": "address",
          "name": "messageHub",
          "type": "address"
        }
      ],
      "name": "NewMessageHub",
      "type": "event"
    },
    {
      "anonymous": false,
      "inputs": [
        {
          "indexed": false,
          "internalType": "address",
          "name": "payer",
          "type": "address"
        },
        {
          "indexed": false,
          "internalType": "address",
          "name": "borrower",
          "type": "address"
        },
        {
          "indexed": false,
          "internalType": "uint256",
          "name": "repayAmount",
          "type": "uint256"
        },
        {
          "indexed": false,
          "internalType": "uint256",
          "name": "accountBorrows",
          "type": "uint256"
        },
        {
          "indexed": false,
          "internalType": "uint256",
          "name": "totalBorrows",
          "type": "uint256"
        }
      ],
      "name": "RepayBorrow",
      "type": "event"
    },
    {
      "inputs": [
        {
          "internalType": "bytes",
          "name": "data",
          "type": "bytes"
        }
      ],
      "name": "_becomeImplementation",
      "outputs": [],
      "stateMutability": "nonpayable",
      "type": "function"
    },
    {
      "inputs": [],
      "name": "_resignImplementation",
      "outputs": [],
      "stateMutability": "nonpayable",
      "type": "function"
    },
    {
      "inputs": [
        {
          "internalType": "address",
          "name": "newMessageHub",
          "type": "address"
        }
      ],
      "name": "_setMessageHub",
      "outputs": [],
      "stateMutability": "nonpayable",
      "type": "function"
    },
    {
      "inputs": [],
      "name": "admin",
      "outputs": [
        {
          "internalType": "address payable",
          "name": "",
          "type": "address"
        }
      ],
      "stateMutability": "view",
      "type": "function"
    },
    {
      "inputs": [],
      "name": "implementation",
      "outputs": [
        {
          "internalType": "address",
          "name": "",
          "type": "address"
        }
      ],
      "stateMutability": "view",
      "type": "function"
    },
    {
      "inputs": [
        {
          "internalType": "address",
          "name": "borrower",
          "type": "address"
        },
        {
          "internalType": "uint256",
          "name": "repayAmount",
          "type": "uint256"
        },
        {
          "internalType": "contract KTokenInterface",
          "name": "kTokenCollateral",
          "type": "address"
        }
      ],
      "name": "liquidateBorrow",
      "outputs": [],
      "stateMutability": "payable",
      "type": "function"
    },
    {
      "inputs": [],
      "name": "messageHub",
      "outputs": [
        {
          "internalType": "address",
          "name": "",
          "type": "address"
        }
      ],
      "stateMutability": "view",
      "type": "function"
    },
    {
      "inputs": [
        {
          "internalType": "uint256",
          "name": "mintAmount",
          "type": "uint256"
        }
      ],
      "name": "mint",
      "outputs": [],
      "stateMutability": "payable",
      "type": "function"
    },
    {
      "inputs": [
        {
          "internalType": "address payable",
          "name": "recipient",
          "type": "address"
        },
        {
          "internalType": "uint256",
          "name": "amount",
          "type": "uint256"
        }
      ],
      "name": "releaseETH",
      "outputs": [
        {
          "internalType": "bool",
          "name": "",
          "type": "bool"
        }
      ],
      "stateMutability": "nonpayable",
      "type": "function"
    },
    {
      "inputs": [
        {
          "internalType": "uint256",
          "name": "repayAmount",
          "type": "uint256"
        }
      ],
      "name": "repayBorrow",
      "outputs": [],
      "stateMutability": "payable",
      "type": "function"
    },
    {
      "inputs": [
        {
          "internalType": "address",
          "name": "borrower",
          "type": "address"
        },
        {
          "internalType": "uint256",
          "name": "repayAmount",
          "type": "uint256"
        }
      ],
      "name": "repayBorrowBehalf",
      "outputs": [],
      "stateMutability": "payable",
      "type": "function"
    },
    {
      "stateMutability": "payable",
      "type": "receive"
    }
  ],
  "transactionHash": "0xf198e5d501e6a98d482d7dcdad5565b7bac52a7e827073c206a704098f8f736b",
  "args": [],
  "numDeployments": 1,
  "solcInputHash": "b64876b1e957758841b9047c285c3bf7",
  "bytecode": "0x608060405234801561001057600080fd5b506108ce806100206000396000f3fe6080604052600436106100a05760003560e01c80635c60da1b116100645780635c60da1b146101465780638a979cd614610166578063a0712d6814610186578063e8e71f0c14610199578063f5e3c462146101c9578063f851a440146101dc57600080fd5b80630e752702146100ac578063153ab505146100c15780632608f818146100d65780634847655d146100e957806356e677281461012657600080fd5b366100a757005b600080fd5b6100bf6100ba366004610667565b6101fc565b005b3480156100cd57600080fd5b506100bf61029e565b6100bf6100e4366004610695565b610315565b3480156100f557600080fd5b50600054610109906001600160a01b031681565b6040516001600160a01b0390911681526020015b60405180910390f35b34801561013257600080fd5b506100bf6101413660046106d7565b6103c0565b34801561015257600080fd5b50600254610109906001600160a01b031681565b34801561017257600080fd5b506100bf610181366004610788565b610433565b6100bf610194366004610667565b6104dd565b3480156101a557600080fd5b506101b96101b4366004610695565b6104fc565b604051901515815260200161011d565b6100bf6101d73660046107ac565b6105a5565b3480156101e857600080fd5b50600154610109906001600160a01b031681565b60405160009061021b9063157b6bd560e31b90339085906020016107ee565b60408051601f198184030181529190526000549091506001600160a01b031663bb5ddb0f6102498434610819565b33846040518463ffffffff1660e01b815260040161026892919061083a565b6000604051808303818588803b15801561028157600080fd5b505af1158015610295573d6000803e3d6000fd5b50505050505050565b6001546001600160a01b031633146103135760405162461bcd60e51b815260206004820152602d60248201527f6f6e6c79207468652061646d696e206d61792063616c6c205f72657369676e4960448201526c36b83632b6b2b73a30ba34b7b760991b60648201526084015b60405180910390fd5b565b60408051632c84352f60e11b602082015233818301526001600160a01b03848116606083015260808083018590528351808403909101815260a090920190925260005490911663bb5ddb0f61036a8434610819565b33846040518463ffffffff1660e01b815260040161038992919061083a565b6000604051808303818588803b1580156103a257600080fd5b505af11580156103b6573d6000803e3d6000fd5b5050505050505050565b6001546001600160a01b031633146104305760405162461bcd60e51b815260206004820152602d60248201527f6f6e6c79207468652061646d696e206d61792063616c6c205f6265636f6d654960448201526c36b83632b6b2b73a30ba34b7b760991b606482015260840161030a565b50565b6001546001600160a01b0316331461047c5760405162461bcd60e51b815260206004820152600c60248201526b155b985d5d1a1bdc9a5e995960a21b604482015260640161030a565b600080546001600160a01b038381166001600160a01b031983168117909355604080519190921680825260208201939093527f71ad738455238e074409355be0b830053b58dfcc1b834957d5915003784864a1910160405180910390a15050565b60405160009061021b906340c10f1960e01b90339085906020016107ee565b600080546001600160a01b031633146105465760405162461bcd60e51b815260206004820152600c60248201526b155b985d5d1a1bdc9a5e995960a21b604482015260640161030a565b6000836001600160a01b03168360405160006040518083038185875af1925050503d8060008114610593576040519150601f19603f3d011682016040523d82523d6000602084013e610598565b606091505b5090925050505b92915050565b60408051630c9fae0f60e31b602082015233918101919091526001600160a01b03808516606083015260808201849052821660a082015260009060c00160408051601f198184030181529190526000549091506001600160a01b031663bb5ddb0f6106108534610819565b33846040518463ffffffff1660e01b815260040161062f92919061083a565b6000604051808303818588803b15801561064857600080fd5b505af115801561065c573d6000803e3d6000fd5b505050505050505050565b60006020828403121561067957600080fd5b5035919050565b6001600160a01b038116811461043057600080fd5b600080604083850312156106a857600080fd5b82356106b381610680565b946020939093013593505050565b634e487b7160e01b600052604160045260246000fd5b6000602082840312156106e957600080fd5b813567ffffffffffffffff8082111561070157600080fd5b818401915084601f83011261071557600080fd5b813581811115610727576107276106c1565b604051601f8201601f19908116603f0116810190838211818310171561074f5761074f6106c1565b8160405282815287602084870101111561076857600080fd5b826020860160208301376000928101602001929092525095945050505050565b60006020828403121561079a57600080fd5b81356107a581610680565b9392505050565b6000806000606084860312156107c157600080fd5b83356107cc81610680565b92506020840135915060408401356107e381610680565b809150509250925092565b6001600160e01b03199390931683526001600160a01b03919091166020830152604082015260600190565b8181038181111561059f57634e487b7160e01b600052601160045260246000fd5b60018060a01b038316815260006020604081840152835180604085015260005b818110156108765785810183015185820160600152820161085a565b506000606082860101526060601f19601f83011685010192505050939250505056fea26469706673582212207f84f359df9e8231a7a592b888b5d0afc804029cf871dfdf10700e16d816a38964736f6c63430008140033",
  "devdoc": {
    "author": "Kawa",
    "kind": "dev",
    "methods": {
      "_becomeImplementation(bytes)": {
        "params": {
          "data": "The encoded bytes data for any initialization"
        }
      }
    },
    "title": "Kawa's KClientDelegate Contract",
    "version": 1
  },
  "userdoc": {
    "events": {
      "LiquidateBorrow(address,address,uint256,address,uint256)": {
        "notice": "Event emitted when a borrow is liquidated"
      },
      "Mint(address,uint256,uint256)": {
        "notice": "Event emitted when tokens are minted"
      },
      "NewMessageHub(address,address)": {
        "notice": "Event emitted when the message hub is changed"
      },
      "RepayBorrow(address,address,uint256,uint256,uint256)": {
        "notice": "Event emitted when a borrow is repaid"
      }
    },
    "kind": "user",
    "methods": {
      "_becomeImplementation(bytes)": {
        "notice": "Called by the delegator on a delegate to initialize it for duty"
      },
      "_resignImplementation()": {
        "notice": "Called by the delegator on a delegate to forfeit its responsibility"
      },
      "admin()": {
        "notice": "Administrator for this contract"
      },
      "constructor": {
        "notice": "Construct an empty delegate"
      },
      "implementation()": {
        "notice": "Implementation address for this contract"
      },
      "messageHub()": {
        "notice": "MessageHub implementation's address"
      }
    },
    "notice": "KTokens which wrap an EIP-20 underlying and are delegated to",
    "version": 1
  },
  "storageLayout": {
    "storage": [
      {
        "astId": 9991,
        "contract": "contracts/KClientDelegate.sol:KClientDelegate",
        "label": "messageHub",
        "offset": 0,
        "slot": "0",
        "type": "t_address"
      },
      {
        "astId": 9994,
        "contract": "contracts/KClientDelegate.sol:KClientDelegate",
        "label": "admin",
        "offset": 0,
        "slot": "1",
        "type": "t_address_payable"
      },
      {
        "astId": 9997,
        "contract": "contracts/KClientDelegate.sol:KClientDelegate",
        "label": "initialized",
        "offset": 20,
        "slot": "1",
        "type": "t_bool"
      },
      {
        "astId": 9954,
        "contract": "contracts/KClientDelegate.sol:KClientDelegate",
        "label": "implementation",
        "offset": 0,
        "slot": "2",
        "type": "t_address"
      }
    ],
    "types": {
      "t_address": {
        "encoding": "inplace",
        "label": "address",
        "numberOfBytes": "20"
      },
      "t_address_payable": {
        "encoding": "inplace",
        "label": "address payable",
        "numberOfBytes": "20"
      },
      "t_bool": {
        "encoding": "inplace",
        "label": "bool",
        "numberOfBytes": "1"
      }
    }
  }
}